:1010000000A600208DBB0000F92E030079BB000074
:1010100079BB000079BB000079BB00000000000034
:101020000000000000000000000000006DBD000096
:1010300079BB00000000000039BD000079BB000052
:101040009DBF0000053002009DBF00009DBF000055
:101050009DBF00009DBF00009DBF00009DBF000020
:101060009DBF00009DBF00009DBF00009DBF000010
:101070009DBF00009DBF00009DBF00009DBF000000
:101080009DBF00009DBF00009DBF00009DBF0000F0
:101090009DBF00009DBF00009DBF00009DBF0000E0
:1010A0009DBF00009DBF00009DBF00009DBF0000D0
:1010B0009DBF00009DBF00009DBF00009DBF0000C0
:1010C0009DBF00009DBF00009DBF00009DBF0000B0
:1010D0009DBF00009DBF00009DBF00009DBF0000A0
:1010E0009DBF00009DBF00009DBF00009DBF000090
:1010F0009DBF00009DBF00009DBF00009DBF000080
:1011000081F0004102E000BF83F0004330B54FEAB8
:1011100041044FEA430594EA050F08BF90EA020F25
:101120001FBF54EA000C55EA020C7FEA645C7FEAB8
:10113000655C00F0E2804FEA5454D4EB5555B8BFDB
:101140006D420CDD2C4480EA020281EA030382EA4C
:10115000000083EA010180EA020281EA0303362DDE
:1011600088BF30BD11F0004F4FEA01314FF4801CB1
:101170004CEA113102D0404261EB410113F0004FC3
:101180004FEA03334CEA133302D0524263EB43037A
:1011900094EA050F00F0A780A4F10104D5F1200E18
:1011A0000DDB02FA0EFC22FA05F2801841F1000173
:1011B00003FA0EF2801843FA05F359410EE0A5F147
:1011C00020050EF1200E012A03FA0EFC28BF4CF078
:1011D000020C43FA05F3C01851EBE37101F000452E
:1011E00007D54FF0000EDCF1000C7EEB00006EEB3B
:1011F0000101B1F5801F1BD3B1F5001F0CD34908C5
:101200005FEA30004FEA3C0C04F101044FEA44521B
:1012100012F5800F80F09A80BCF1004F08BF5FEAA2
:10122000500C50F1000041EB045141EA050130BD82
:101230005FEA4C0C404141EB0101013C28BFB1F594
:10124000801FE9D291F0000F04BF01460020B1FADF
:1012500081F308BF2033A3F10B03B3F120020CDAB2
:101260000C3208DD02F1140CC2F10C0201FA0CF090
:1012700021FA02F10CE002F11402D8BFC2F1200CF5
:1012800001FA02F120FA0CFCDCBF41EA0C019040AB
:10129000E41AA2BF01EB0451294330BD6FEA0404F4
:1012A0001F3C1CDA0C340EDC04F11404C4F12002DF
:1012B00020FA04F001FA02F340EA030021FA04F3F1
:1012C00045EA030130BDC4F10C04C4F1200220FA48
:1012D00002F001FA04F340EA0300294630BD21FA86
:1012E00004F0294630BD94F0000F83F4801306BF4C
:1012F00081F480110134013D4EE77FEA645C18BF40
:101300007FEA655C29D094EA050F08BF90EA020FD6
:1013100005D054EA000C04BF1946104630BD91EACE
:10132000030F1EBF0021002030BD5FEA545C05D1D1
:101330004000494128BF41F0004130BD14F5800410
:101340003CBF01F5801130BD01F0004545F0FE4184
:1013500041F470014FF0000030BD7FEA645C1ABFB9
:10136000194610467FEA655C1CBF0B46024650EAF0
:10137000013406BF52EA033591EA030F41F400211C
:1013800030BD00BF90F0000F04BF0021704730B5A2
:101390004FF4806404F132044FF000054FF0000177
:1013A00050E700BF90F0000F04BF0021704730B538
:1013B0004FF4806404F1320410F0004548BF40420D
:1013C0004FF000013EE700BF42004FEAE2014FEA62
:1013D00031014FEA02701FBF12F07F4393F07F4F3D
:1013E00081F06051704732F07F4208BF704793F040
:1013F0007F4F04BF41F40021704730B54FF4607453
:1014000001F0004521F000411CE700BF50EA010255
:1014100008BF704730B54FF000050AE050EA0102FE
:1014200008BF704730B511F0004502D5404261EB6E
:1014300041014FF4806404F132045FEA915C3FF4AF
:10144000D8AE4FF003025FEADC0C18BF03325FEA4C
:10145000DC0C18BF033202EBDC02C2F1200300FAFD
:1014600003FC20FA02F001FA03FE40EA0E0021FA22
:1014700002F11444BDE600BF70B54FF0FF0C4CF410
:10148000E06C1CEA11541DBF1CEA135594EA0C0FC2
:1014900095EA0C0F00F0DEF82C4481EA030621EAFD
:1014A0004C5123EA4C5350EA013518BF52EA033538
:1014B00041F4801143F4801338D0A0FB02CE4FF0EA
:1014C0000005E1FB02E506F00042E0FB03E54FF01A
:1014D0000006E1FB03569CF0000F18BF4EF0010E12
:1014E000A4F1FF04B6F5007F64F5407404D25FEA0E
:1014F0004E0E6D4146EB060642EAC62141EA5551C1
:101500004FEAC52040EA5E504FEACE2EB4F1FD0C02
:1015100088BFBCF5E06F1ED8BEF1004F08BF5FEA80
:10152000500E50F1000041EB045170BD06F0004632
:1015300046EA010140EA020081EA0301B4EB5C04DF
:10154000C2BFD4EB0C0541EA045170BD41F48011D7
:101550004FF0000E013C00F3AB8014F1360FDEBFFC
:10156000002001F0004170BDC4F10004203C35DAD8
:101570000C341BDC04F11404C4F1200500FA05F35B
:1015800020FA04F001FA05F240EA020001F00042FC
:1015900021F0004110EBD37021FA04F642EB060172
:1015A0005EEA430E08BF20EAD37070BDC4F10C049C
:1015B000C4F1200500FA04F320FA05F001FA04F260
:1015C00040EA020001F0004110EBD37041F100014C
:1015D0005EEA430E08BF20EAD37070BDC4F1200557
:1015E00000FA05F24EEA020E20FA04F301FA05F2BF
:1015F00043EA020321FA04F001F0004121FA04F267
:1016000020EA020000EBD3705EEA430E08BF20EA36
:10161000D37070BD94F0000F0FD101F00046400070
:1016200041EB010111F4801F08BF013CF7D041EAF2
:10163000060195F0000F18BF704703F000465200F6
:1016400043EB030313F4801F08BF013DF7D043EAC7
:101650000603704794EA0C0F0CEA135518BF95EA7D
:101660000C0F0CD050EA410618BF52EA4306D1D104
:1016700081EA030101F000414FF0000070BD50EA23
:10168000410606BF1046194652EA430619D094EAAD
:101690000C0F02D150EA013613D195EA0C0F05D197
:1016A00052EA03361CBF104619460AD181EA0301EB
:1016B00001F0004141F0FE4141F470014FF00000A3
:1016C00070BD41F0FE4141F4780170BD70B54FF03E
:1016D000FF0C4CF4E06C1CEA11541DBF1CEA1355BE
:1016E00094EA0C0F95EA0C0F00F0A7F8A4EB0504A0
:1016F00081EA030E52EA03354FEA013100F0888097
:101700004FEA03334FF0805545EA131343EA12635F
:101710004FEA022245EA111545EA10654FEA002614
:101720000EF000419D4208BF964244F1FD0404F5CD
:10173000407402D25B084FEA3202B61A65EB030529
:101740005B084FEA32024FF480104FF4002CB6EBE6
:10175000020E75EB030E22BFB61A754640EA0C0066
:101760005B084FEA3202B6EB020E75EB030E22BFA6
:10177000B61A754640EA5C005B084FEA3202B6EBE7
:10178000020E75EB030E22BFB61A754640EA9C00A6
:101790005B084FEA3202B6EB020E75EB030E22BF76
:1017A000B61A754640EADC0055EA060E18D04FEA34
:1017B000051545EA16754FEA06164FEAC30343EAD4
:1017C00052734FEAC2025FEA1C1CC0D111F4801FA1
:1017D0000BD141EA00014FF000004FF0004CB6E79A
:1017E00011F4801F04BF01430020B4F1FD0C88BF39
:1017F000BCF5E06F3FF6AFAEB5EB030C04BFB6EB44
:10180000020C5FEA500C50F1000041EB045170BD36
:101810000EF0004E4EEA113114EB5C04C2BFD4EB63
:101820000C0541EA045170BD41F480114FF0000EE7
:10183000013C90E645EA060E8DE60CEA135594EA63
:101840000C0F08BF95EA0C0F3FF43BAF94EA0C0F66
:101850000AD150EA01347FF434AF95EA0C0F7FF4DB
:1018600025AF104619462CE795EA0C0F06D152EA2F
:1018700003353FF4FDAE1046194622E750EA410613
:1018800018BF52EA43067FF4C5AE50EA41047FF424
:101890000DAF52EA43057FF4EBAE12E74FEA410287
:1018A00012F5001215D211D56FF47873B3EB6252B2
:1018B00012D94FEAC12343F0004343EA505311F0D9
:1018C000004F23FA02F018BF404270474FF000006B
:1018D000704750EA013005D111F0004008BF6FF0A9
:1018E000004070474FF00000704700BF4A0011D21F
:1018F00012F5001211D20DD56FF47873B3EB62526A
:101900000ED44FEAC12343F0004343EA505323FA75
:1019100002F070474FF00000704750EA013002D1EA
:101920004FF0FF3070474FF00000704780F00040EC
:1019300002E000BF81F0004142001FBF5FEA4103A7
:1019400092EA030F7FEA226C7FEA236C6AD04FEAA7
:101950001262D2EB1363C1BFD218414048404140EC
:10196000B8BF5B42192B88BF704710F0004F40F49E
:10197000000020F07F4018BF404211F0004F41F4BA
:10198000000121F07F4118BF494292EA030F3FD086
:10199000A2F1010241FA03FC10EB0C00C3F1200399
:1019A00001FA03F100F0004302D5494260EB400028
:1019B000B0F5000F13D3B0F1807F06D340084FEA93
:1019C000310102F10102FE2A51D2B1F1004F40EB88
:1019D000C25008BF20F0010040EA030070474900F0
:1019E00040EB0000013A28BFB0F5000FEDD2B0FA8D
:1019F00080FCACF1080CB2EB0C0200FA0CF0AABFB0
:101A000000EBC25052421843BCBFD040184370474D
:101A100092F0000F81F4000106BF80F40000013253
:101A2000013BB5E74FEA41037FEA226C18BF7FEA2A
:101A3000236C21D092EA030F04D092F0000F08BF6C
:101A40000846704790EA010F1CBF0020704712F053
:101A50007F4F04D1400028BF40F00040704712F192
:101A600000723CBF00F50000704700F0004343F0F7
:101A7000FE4040F4000070477FEA226216BF08462D
:101A80007FEA23630146420206BF5FEA412390EAF0
:101A9000010F40F4800070474FF0000304E000BFE6
:101AA00010F0004348BF40425FEA000C08BF704797
:101AB00043F0964301464FF000001CE050EA01025B
:101AC00008BF70474FF000030AE000BF50EA010270
:101AD00008BF704711F0004302D5404261EB41015D
:101AE0005FEA010C02BF84460146002043F0B64382
:101AF00008BFA3F18053A3F50003BCFA8CF2083AA7
:101B0000A3EBC25310DB01FA02FC634400FA02FCAF
:101B1000C2F12002BCF1004F20FA02F243EB0200B6
:101B200008BF20F00100704702F1200201FA02FC18
:101B3000C2F1200250EA4C0021FA02F243EB02000B
:101B400008BF20EADC7070474FF0FF0C1CEAD0524F
:101B50001EBF1CEAD15392EA0C0F93EA0C0F6FD010
:101B60001A4480EA010C400218BF5FEA41211ED0EE
:101B70004FF0006343EA501043EA5111A0FB0131DA
:101B80000CF00040B1F5000F3EBF490041EAD371AF
:101B90005B0040EA010062F17F02FD2A1DD8B3F12B
:101BA000004F40EBC25008BF20F00100704790F09A
:101BB000000F0CF0004C08BF49024CEA502040EAEC
:101BC00051207F3AC2BFD2F1FF0340EAC2507047B2
:101BD00040F400004FF00003013A5DDC12F1190FF0
:101BE000DCBF00F000407047C2F10002410021FA62
:101BF00002F1C2F1200200FA02FC5FEA310040F17A
:101C0000000053EA4C0308BF20EADC70704792F0F2
:101C1000000F00F0004C02BF400010F4000F013A2A
:101C2000F9D040EA0C0093F0000F01F0004C02BF25
:101C3000490011F4000F013BF9D041EA0C018FE794
:101C40000CEAD15392EA0C0F18BF93EA0C0F0AD09A
:101C500030F0004C18BF31F0004CD8D180EA0100C0
:101C600000F00040704790F0000F17BF90F0004F59
:101C7000084691F0000F91F0004F14D092EA0C0F3B
:101C800001D142020FD193EA0C0F03D14B0218BFCE
:101C9000084608D180EA010000F0004040F0FE4014
:101CA00040F40000704740F0FE4040F440007047B0
:101CB0004FF0FF0C1CEAD0521EBF1CEAD15392EA2F
:101CC0000C0F93EA0C0F69D0A2EB030280EA010C1F
:101CD00049024FEA402037D04FF0805343EA1111B8
:101CE00043EA10130CF000408B4238BF5B0042F116
:101CF0007D024FF4000C8B4224BF5B1A40EA0C00BB
:101D0000B3EB510F24BFA3EB510340EA5C00B3EBEC
:101D1000910F24BFA3EB910340EA9C00B3EBD10FDA
:101D200024BFA3EBD10340EADC001B0118BF5FEA2C
:101D30001C1CE0D1FD2A3FF650AF8B4240EBC25055
:101D400008BF20F0010070470CF0004C4CEA502016
:101D50007F32C2BFD2F1FF0340EAC250704740F465
:101D600000004FF00003013A37E792F0000F00F057
:101D7000004C02BF400010F4000F013AF9D040EAD5
:101D80000C0093F0000F01F0004C02BF490011F469
:101D9000000F013BF9D041EA0C0195E70CEAD15361
:101DA00092EA0C0F08D142027FF47DAF93EA0C0F48
:101DB0007FF470AF084676E793EA0C0F04D14B022C
:101DC0003FF44CAF08466EE730F0004C18BF31F0DE
:101DD000004CCAD130F000427FF45CAF31F00043D8
:101DE0007FF43CAF5FE700BF4FF0FF3C06E000BF71
:101DF0004FF0010C02E000BF4FF0010C4DF804CD94
:101E00004FEA40024FEA41037FEA226C18BF7FEAA3
:101E1000236C11D001B052EA530C18BF90EA010FA5
:101E200058BFB2EB030088BFC81738BF6FEAE17034
:101E300018BF40F0010070477FEA226C02D15FEAD0
:101E4000402C05D17FEA236CE4D15FEA412CE1D03C
:101E50005DF8040B704700BF844608466146FFE703
:101E60000FB5FFF7C9FF002848BF10F1000F0FBDE5
:101E70004DF808EDFFF7F4FF0CBF012000205DF8DE
:101E800008FB00BF4DF808EDFFF7EAFF34BF012063
:101E900000205DF808FB00BF4DF808EDFFF7E0FFFC
:101EA00094BF012000205DF808FB00BF4DF808ED4D
:101EB000FFF7D2FF94BF012000205DF808FB00BFB0
:101EC0004DF808EDFFF7C8FF34BF012000205DF892
:101ED00008FB00BF7BB972B90029BEBF00204FF0DC
:101EE000004106E008BF00281CBF6FF000414FF022
:101EF000FF3000F077B8ADF1080C6DE904CE002991
:101F000009DB002B1ADB00F082F8DDF804E0DDE9E4
:101F1000022304B07047404261EB4101002B1BDB00
:101F200000F075F8DDF804E0DDE9022304B040427A
:101F300061EB4101524263EB43037047524263EB52
:101F4000430300F064F8DDF804E0DDE9022304B0A7
:101F5000404261EB41017047524263EB430300F0A2
:101F600056F8DDF804E0DDE9022304B0524263EBE9
:101F70004303704753B94AB9002908BF00281CBF62
:101F80004FF0FF314FF0FF3000F02CB8ADF1080CEE
:101F90006DE904CE00F03BF8DDF804E0DDE9022352
:101FA00004B07047D0B5FFF70FFA0C4B002206467D
:101FB0000F46FFF761FAFFF799FC0446FFF7E2F9D5
:101FC000074B0022FFF758FA02460B4630463946C7
:101FD000FFF79AF8FFF78AFC2146D0BD0000F03DDC
:101FE0000000F041704700BF10B500210446FFF724
:101FF00049FF20B92046BDE81040FFF7D3BF04F1E8
:102000000040FFF7CFFF404261EB410110BD2DE9D9
:10201000F04786468C460846089E15467446194683
:10202000002B40F0C2808542B2FA82F245D94AB113
:10203000C2F1200300FA02FC2EFA03F3954043EAB2
:102040000C0C94404FEA154EA8B2BCFBFEF8230CD2
:102050000EFB18CC08FB00F943EA0C43994528D93C
:10206000EB1808F1FF3704D2994502D9A8F102070D
:102070002B44A3EB0903A4B2B3FBFEFC0EFB1C3301
:102080000CFB00F044EA0344A04214D92C190CF1D3
:10209000FF3304D2A04202D9ACF102032C44241A2B
:1020A00043EA07401EB1D440002334607360BDE8AA
:1020B000F0874746DDE76346F1E792BB431B01210A
:1020C0004FEA154EAFB2B3FBFEFC200C0EFB1C33E7
:1020D0000CFB07F840EA0343984562D9EB180CF172
:1020E000FF3004D2984502D9ACF102002B44A3EB97
:1020F0000803A4B2B3FBFEFC0EFB1C330CFB07F77A
:1021000044EA0344A7424ED92C190CF1FF3304D200
:10211000A74202D9ACF102032C44E41B43EA00407D
:10212000C0E7C2F1200320FA03F1954090402EFA57
:1021300003F303434FEA154EAFB2B1FBFEFC0EFBB7
:102140001C10190C0CFB07F841EA0041884504FA01
:1021500002F422D969180CF1FF3004D2884502D963
:10216000ACF102002944A1EB08019BB2B1FBFEFCDB
:102170000EFB1C110CFB07F743EA01439F420ED9EB
:10218000EB180CF1FF3104D29F4202D9ACF10201ED
:102190002B44DB1B41EA004192E76046E3E76146DE
:1021A000F7E76046A3E76346B7E7834206D916B967
:1021B000002108467BE7C6E900E0F9E7B3FA83F7B8
:1021C0008FB9834201D3724508D8BEEB020460EB9D
:1021D000030301209C461EB9002168E73846FAE750
:1021E000C6E9004CF8E7C7F1200CBB4022FA0CF41A
:1021F0001C432EFA0CF120FA0CF3B84001434FEACD
:1022000014490EFA07F5B3FBF9F81FFA84FE09FB2F
:1022100018300B0C08FB0EFA43EA00439A4502FA09
:1022200007F240D9E31808F1FF3004D29A4502D9E9
:10223000A8F102002344A3EB0A0389B2B3FBF9F827
:1022400009FB183308FB0EFE41EA03418E452CD9E9
:10225000611808F1FF3304D28E4502D9A8F10203B8
:10226000214443EA0040A0FB0298A1EB0E01414546
:10227000CE46434602D306D14D4504D2B9EB020EF9
:1022800068EB04030138002EA6D0B5EB0E0261EB1B
:10229000030101FA0CFC22FA07F34CEA0303F940AC
:1022A000C6E9003198E74046C5E74346D9E703460B
:1022B00013F8012B002AFBD1181A013870470000CF
:1022C0002DE9F04788B000AF05460C469246B44869
:1022D00034F01FFF0646002800F0AD80B048836848
:1022E000DB683B219847002840F0FB80AC488368BE
:1022F0001B6907F1080203219847B868FFF752F8F5
:1023000080468946F868FFF74DF8A3A3D3E9002378
:10231000FFF7DCF902460B4640464946FEF7F6FE5B
:102320000022A04BFFF7A8F8FFF7B8FA2880386919
:10233000FFF738F8804689467869FFF733F896A3A7
:10234000D3E90023FFF7C2F902460B46404649464F
:10235000FEF7DCFE0022934BFFF78EF8FFF79EFAA4
:102360002080B869FFF71EF880468946F869FFF7B4
:1023700019F889A3D3E90023FFF7A8F902460B4611
:1023800040464946FEF7C2FE0022864BFFF774F82E
:10239000FFF784FA00B2AAF80000B5F900E0B4F93A
:1023A00000C06C468AB06B4613F1100200F0ED805D
:1023B0001825BAB12946042D03DDDFF8EC81C3F8F6
:1023C0001480082903DDDFF8E481C3F818800C29A4
:1023D00001DDC3F81CE0102901DDC3F820C0142979
:1023E00000DD5862172D40F3D38018253AB106213D
:1023F000397100217971B971F9717868186100211A
:102400006FF300016FF341016FF382016FF3C501B8
:10241000042363F38811C5F30A0363F353216FF3B5
:102420001F510023624808F029F8A546304620379E
:10243000BD46BDE8F0875A4B19686C4600233B71D6
:1024400002237B7188B0EC461CF1100213D00E20E1
:1024500022B1042802DD574BCCF8143000233B7026
:1024600002237B70A2B1082801DDCCF818100CF112
:102470001C0300210AE06FF00040E9E701F12005AC
:102480003D4415F8205C03F8015B01310129F5D9C1
:102490000D2823DD0E234AB1032139710021797102
:1024A000B9710121F9717868CCF8100000216FF33F
:1024B00000016FF341016FF382016FF3C501012049
:1024C00060F38811C3F30A0363F353216FF31F51C1
:1024D0000023374807F0D2FFA546A7E76FF01B039C
:1024E000D9E72F4B19686C4600233B7102237B719F
:1024F00088B06D4615F1100211D00E201AB10428D3
:1025000001DD2D4B6B6100233B7002237B709AB180
:10251000082800DDA96105F11C0300210AE06FF025
:102520000040EBE701F120063E4416F8206C03F86A
:10253000016B01310129F5D90D2823DD0E2342B1AC
:102540000321397100217971B9710121F97178681C
:10255000286100216FF300016FF341016FF38201E5
:102560006FF3C501012060F38811C3F30A0363F31D
:1025700053216FF31F5100230D4807F07FFFA5463D
:10258000002653E76FF01B03D9E76FF0004510E713
:102590006FF01B052AE700BF0000000080842E4179
:1025A000A07C03000000A0409C8F0300E48F030088
:1025B000D47F0300588E03007C8F030000000000CE
:1025C00001A1D1E9000170473F71890010000000AE
:1025D0002DE9F843D0E90735D0F818805C1930347C
:1025E000A0450F46164619D81D4DA3FB05011AA399
:1025F000D3E90023FFF7BEFC0346A4EB0800A0FBD1
:10260000050123F07F4414A3D3E90023FFF7B2FCB4
:1026100020F07F403C603060BDE8F883DFF84090F8
:102620000DA3D3E90023A8FB0901FFF7A3FC04468F
:1026300005F1300008A3D3E90023A0FB0901FFF74F
:1026400099FC24F07F4420F07F403C603060BDE87E
:10265000F88300BFAFF300808D49FD1A070000002A
:1026600000CA9A3B000000002DE9F04F8DB09B4658
:10267000179C9DF85890636D05460E46904663B1D1
:10268000B4F8963023B1B4F894209A4280F0858053
:10269000D4F89820002A40F083804FF6FF739B45C2
:1026A00023D027780137FFB22770002F00F09380E6
:1026B0007F49804BC1F8048004F11C000022C860EF
:1026C00081F80A900D60A1F808B0996001201146C8
:1026D00011F028FC002840F08D80676DC4F8A850E8
:1026E000002F6CD0204618F029F994F8245015F0EA
:1026F000010561D1704B714A19781378994200F045
:1027000095804FF6FF739B4540F08A804FF0000B99
:10271000676DD846D4F89890B4F894A0B9F1000F3A
:1027200033D0BAF1000F30D0D4F888200BF1010B70
:1027300040F271211FFA8BF301FB02FB604A4FF05C
:10274000070CA6FB02010BFB03F30CFB061109931C
:1027500055A3D3E90023FFF70DFC099B584A1E1827
:102760004FF0070CA5FB02010CFB05114EA3D3E9AA
:102770000023FFF7FFFB58443044814586BFA9EB97
:102780000606C4F89860C4F898B0D044A4F89480C1
:102790001FB13A68536E2B4453660DB0BDE8F08FFD
:1027A000D4F8881040F27123A1FB0313914273F116
:1027B0000003FFF472AFF0E7676D0025E8E794F8D7
:1027C0002430DB07E9D43C4B3C4A19781378994212
:1027D0002CD03D4625E03B4A3B493C4840F642135D
:1027E0002FF0ABF887F31188BFF36F8F03231846E0
:1027F00002DF5DE7334A3649344840F664132FF070
:102800009CF8002383F31188BFF36F8F03231846CE
:1028100002DF676DC4F8A850002F7FF463AFCEE7E6
:10282000676D0BF101081FFA88F873E70133042183
:102830000BA8137020F04CFF0B9B26490694A1FBBC
:102840000321581A244A01EB50012448A21AA0FB84
:102850000202090A40F247105209002500FB113319
:1028600002321F4905910133CDE90355CDE90155E8
:10287000D2B20095012128460B9312F043FF10F0CD
:10288000FD0F0DD00F4A1749104840F2B3732FF0D7
:1028900054F885F31188BFF36F8F0323184602DFC6
:1028A0000B9D2EE7AFF3008000CA9A3B00000000AA
:1028B0008C3B0020CC040020F9630020FA63002048
:1028C0008D49FD1A58CA0300B0CB0300A084030051
:1028D00014C7030021F1D490F015002083BEA02F6F
:1028E0001D8D0100B4CB0300002900F0E4812DE927
:1028F000F04F012895B0044600F2CE82DFF8008345
:102900009A46AC2303FB0086934610FB03F20B921E
:1029100096F89C30D80708EB020500F1C88295F8BC
:102920003D3005EB83031E6C95F8293005EB8303DE
:10293000DF6A002E00F0478132463946284616F0FD
:10294000A5FB8146002840F0B2813B7813F00E0FC2
:1029500000F0B78103F00F03072B00F0AE8114F0F5
:102960006DFD002840F0DC82AC2303FB0483186576
:102970004FF0000A53464FF0AC0909FB04890121CE
:10298000A9F896A0C9F898304FF0000A95F825B03C
:10299000A9F894A095F824300DF14500C3F3420343
:1029A0008DF8453011F00CFCCBF3820B0246002869
:1029B00000F073815B463146384616F007FD9149B9
:1029C000914B0B9AB9F8886008F802A0A0FB0101AE
:1029D000C0184FF03103C5E905AA41F10701C9E963
:1029E00001A3C9F80CA084A3D3E90023FFF7C2FA1E
:1029F000C9F8100012F08AFF00F1090B002E00F058
:102A0000B58295F824906AF3000985F8249019F0AE
:102A1000010940F00381AC2303FB04831A460E93A3
:102A2000AB6DD2F810A0002B00F02E821B680C9327
:102A300093F8623003F00303012B0F9340F02482DC
:102A40000DF1470312A901930DF146034A460B917C
:102A5000009328460B46202100F022FD81460028E5
:102A600040F02581DDF849100C9819F0E1F86F6D00
:102A7000002F00F0CD823F680B990AF102035B44FE
:102A80003846129300F034FCFF2211460D90384670
:102A900017F04AFF5B4958A3D3E90023A0FB0101CB
:102AA000FFF768FA129B20F07F410D980233034430
:102AB0004A46284601EB03090C9901F091FA0C995A
:102AC00003464A46284601F0BFFA002840F0E58058
:102AD0000E9B9DF847205B6DDDF83C905A759DF884
:102AE000463085F82930AC2303FB048340F2E140F3
:102AF000D3F88820002140F27123E2FB030140F269
:102B0000E2420023FFF736FAA7F850000D9A129917
:102B1000384600F035FC002840F0BF8001230D93BB
:102B20000B9B089304EB440C384BCDF810A00AF231
:102B30004711069543F82C1003EB8C030993344B93
:102B400007933448344B05930223A6FB00021293EB
:102B500004EB030A91214FF6FF7301FB0621039357
:102B6000002625A3D3E900230296FFF703FA5FFAB4
:102B70008AFA019003215B4652460096304612F0D5
:102B800061FD0B9913F092FF002840F086800D9BA9
:102B90007BB197F8623043F0010387F86230B9F1F6
:102BA000000F06D00C9A92F8623043F0020382F8CC
:102BB0006230AC2303FB048393F89C2042F00102B3
:102BC00083F89C206DE13B7803F00F03072B6CD05A
:102BD0000B9B03F13C00404421F05CFAC0B200289A
:102BE00040F09B8195F83D3005EB83031E6C042378
:102BF0003370062373709FE68D49FD1A07000000AD
:102C0000F015002000CA9A3B8C49FD1AAC3B00200D
:102C1000155B0100002AE78469260000AC2303FB52
:102C2000048306951B69CC4904930226019304EBA7
:102C30004403B34004EB4402002001EB82020992FA
:102C4000C85012AB0893C54FC54B0593A219032179
:102C5000CDE9020000900797D2B25B46129612F0BF
:102C6000F1FC12A913F022FFB8B9BE4A059212A9CD
:102C70004AF2D832089100920321CDE90300CDE950
:102C8000010007975B4606950122129612F0BEFCE2
:102C900012A913F00BFF00288BD0AC2303FB048395
:102CA0001B6A13B1284616F07BF84FF00C09484612
:102CB00015B0BDE8F08F16F0B9B8BB785A067FF5AD
:102CC0004EAE2B6A002BF0D113F032FE0C90002890
:102CD00000F0238113F038FE0D90002800F01A81D7
:102CE0001AF048F98146002800F01181D0F88800D8
:102CF0004FF6FF7209F11C03A9F828200E93002853
:102D000000F0758109F17C0209F1780111F086F873
:102D100099F88E2022F0070289F88E200022C9F847
:102D20008820A9F88C203A7802F00F02072A00F0D8
:102D3000418199F8762022F07F0242F0190289F849
:102D400076200121884A99F8CA01D2F801C0C9F851
:102D5000CBC1C9F8D1C112F801CB9288A9F8CF2113
:102D6000A9F8D52199F8392002F03F0262F07F02DC
:102D700089F83920B9F8F42022F4807222F0010297
:102D8000A9F8F42099F8772061F3020289F87720F6
:102D900099F83C2099F8D41022F0070289F83C20D9
:102DA000002262F300010CF0010C89F8D41040F20B
:102DB0007F416CF30000A9F8D2100E216CF34100A2
:102DC00089F8D7104FF4C021C9F8B811C9E9122207
:102DD00089F8CA01A9F83220C9F82E2089F83B20C9
:102DE000C9F85020A9F8BE21A9F8B42148461CF022
:102DF00093FA0C9BC9F88431002289F880211AF0DB
:102E00009BFB99F8C41160F3020189F8C4111AF010
:102E100099FB99F8C41160F3C50189F8C41199F8B8
:102E2000B011002262F3410189F8B0113A7802F042
:102E30000F02072A0ABF95F82510012149094846C3
:102E40001AF0D4FF09F582701CF03EF8AC2202FBA8
:102E500004820C9BC2F880300D9BC2F884300022A3
:102E600009F11C032B62C9E90522C9F81C9089F8F5
:102E7000002020F05FFF00283FF471AD284615F0D8
:102E80008FFF4FF0030912E76F6D002F79D112AB5E
:102E9000CDE90C770B9343E614F0D0FA00287FF4C9
:102EA00004AF4FF00009484615B0BDE8F08F14F0AC
:102EB000C5FA0028F5D096F89C30D9077FF5F5AE15
:102EC00095F83D3005EB830328461A6C95F82930B8
:102ED00005EB8303D96A16F0D9F8814600287FF400
:102EE000E6AE336D002B3FF4E0AE1A7902F0FF013D
:102EF0004AB942F2107202FB0BF2A6F89410A6F83F
:102F000096A0C6F898201B79002BCAD0CDE60D9864
:102F100013F020FD0C9813F011FD4FF00709C6E6E1
:102F200013F006FD814600283AD013F00DFD00286D
:102F300062D0AC2303FB04830022C0F8009002712E
:102F4000186595F82430DB073FF512AD42F2107397
:102F500003FB0BF30FE500BFAC3B0020155B01004A
:102F600069260000818B01000CA7030097F800A0E0
:102F70000AF00F0AAAF1010ABAFA8AFA4FEA5A1AB3
:102F80003FE50AF102033F685B44129312AB194616
:102F900038460B9300F0ACF900230D900C93A2E59A
:102FA000AC2303FB04831B6A002BB6D0284615F024
:102FB000F7FEB2E795F8252099F87610520962F3EA
:102FC000020189F8761095F82520C9B2520962F3FA
:102FD000061189F8761095F8261099F8762061F395
:102FE000C30289F8762095F825104909AAE609F167
:102FF0008000C9F8880085E6AC2303FB04831B6AC4
:1030000013B1284615F0CCFE484613F097FC84E730
:103010000D9785E500000000F0B590F8243090F899
:1030200025708BB0C3F342030D46044601210DF118
:10303000230016468DF8233011F0C2F8C7F382073B
:1030400002463B463146284616F0C0F91E491F4A43
:10305000A0FB0131981841F1070119A3D3E900231E
:10306000FEF788FF23699842054621D21B1A0022E9
:103070000192174A0293174BA21AA3FB02320221B4
:10308000520900230A4409AE099113490591CDE97B
:1030900003330321D2B206960093184612F032FB96
:1030A000314613F003FD38B9256100200BB0F0BDA7
:1030B000FBD9C21A0023DBE70C200BB0F0BD00BF28
:1030C0008D49FD1A0700000000CA9A3B8C49FD1A81
:1030D000F015002083BEA02F155B0100000000004A
:1030E0002DE9F04788B08146119C9DF840A0274605
:1030F000164617F81C5B0135EDB298462570002D79
:103100007DD06F4A6F4BC2F80090A2F8088082F819
:103110000AA05660D7609A6000221146012010F084
:1031200001FF00287AD1676EE06C002F60D0B0F507
:10313000967F36D8002363664FF000096249682203
:10314000204610F04BFE002560490591021DCDE997
:103150000355CDE90155CDF8009006943B46D2B217
:103160000121284612F0CEFA10F0FD0F0DD0584A7A
:103170005849594840F683532EF0DFFB85F31188F8
:10318000BFF36F8F0323184602DF256A2868836D1B
:1031900023B11B6893F8622092074FD408B0BDE8B2
:1031A000F087A36C8342C5D1256A2A7B697B8A425A
:1031B000D3B204D00133DBB2022B08BF002305EBEE
:1031C00083036A7A1B6959784FF49673E364C2F3F8
:1031D00081030B440933DB00C2F3C002D340C01AA1
:1031E000B0F5967F30D800236366002FA4D1CDE7D9
:1031F000B0F5967FC9D9A36C8342C6D1D4E7344ACF
:103200003649354840F60D532EF097FB85F311886B
:10321000BFF36F8F0323184602DF72E72C4A304951
:103220002D4840F647532EF088FB002383F3118886
:10323000BFF36F8F0323184602DF74E75E6608B0A2
:10324000BDE8F04718F006BD2649A0F596701AA310
:10325000D3E90023A0FB0101FEF78CFE4FF000082C
:1032600030F07F49C4F86480BFD0286816F012FDA2
:103270001D4B0593821CCDE90388CDE90189069495
:10328000CDF80080D2B243460121404612F03AFA0E
:1032900010F0FD0F3FF452AF0D4A0E490E4840F6B4
:1032A00077532EF04AFB88F31188BFF36F8F032307
:1032B000184602DF42E700BF8D49FD1A07000000F3
:1032C000D43B00200C050020083C0020BDA00100DC
:1032D00060CC0300A4CA0300A0840300B0CB0300A9
:1032E00014C7030000CA9A3BF9A0010000000000C7
:1032F0002DE9F04182B004461F4E204F884616F05B
:10330000BDFE072500236360E36029463346E0FBEA
:1033100007313122A260184615A3D3E90023FEF736
:1033200029FE94F8313020F07F4004EB83032061C4
:10333000596BFF231A46204616F060FE2946E0FB33
:1033400007610BA3D3E900233046FEF713FE01A962
:1033500020F07F401FF030F918B9019B0233C8F804
:1033600000300020E06402B0BDE8F081AFF30080DF
:103370008D49FD1A070000008C49FD1A00CA9A3BCE
:103380002DE9F04100258CB08846C0E905551C495F
:10339000057017466822044610F020FDCDE902555D
:1033A00006942369B4F850C01F44061D40F2E2435E
:1033B0001448049703FB0CF3A3FB0001124B079383
:1033C000124B059302230BAC0B930BA3D3E9002301
:1033D0000894FEF7CFFDF6B2CDE9005043463246E1
:1033E0002846032112F012F9214613F05FFB0CB0BE
:1033F000BDE8F081AFF300808D49FD1A07000000A1
:10340000083C002000CA9A3B155B0100E130000037
:1034100070B590F803C01CF0010F14BF00F10A044E
:10342000041D1B481CF0020F15461E464FF00702F4
:10343000A1FB000318BF063402FB01311CF0080F8A
:1034400011A3D3E9002318BF0234FEF793FDAD1B8F
:1034500010492844A1FB00310D09490C04D00E4B42
:10346000A3FB003001214509A2782078657022F085
:103470001F02C5F3042361F3C71013432070A37028
:10348000204670BDAFF3008000CA9A3B00000000E8
:103490008D49FD1A89888888B5814E1B000000007F
:1034A0002DE9F04FA5B00C461E4640F201232E999F
:1034B0000E92A3432F9A0F910546109200F0B68109
:1034C00095F8293005EB8303D3F82CA09AF8007007
:1034D00007F00F07072F04F400730ED023B90C2751
:1034E000384625B0BDE8F08FD6F80120317828465F
:1034F00025B0BDE8F04F16F08BBC9AF802200AF117
:10350000040112F03F0B18BF9AF803B00B9113B1EE
:103510007F2A00F2AD810F99099305F1280020F070
:1035200081FE9AF800100278034601F00F0122F0A4
:103530003F020A4303F8022B81469AF8022099F8C9
:1035400002101493920962F3871189F80210696DD1
:10355000099B05F11C004FF00008002900F03283A0
:103560004A7D01EB820290690A681692C2780D903A
:103570000230139002F00100129001F11400109932
:103580001192099320F04EFE804699F8000098F8B9
:1035900000100D9B119A00F00F0021F03F01014334
:1035A00088F80010197898F80000C1F3801161F3D1
:1035B000861088F800001978C0B2C90961F3C710F5
:1035C00088F8000099F8021098F802004FF0010303
:1035D000890961F387108DF8283014F0010388F809
:1035E00002000C930BF00100099B40F02F81002892
:1035F00000F082819AF8000098F800C00C99C0F39E
:10360000801060F3861C88F800C099F8000061F310
:10361000861089F800000AF10A010B91129800281F
:1036200040F07D810D980430099002F002011BF0FA
:10363000020F219100F040810B9998F800C00631EB
:103640000B919AF800104046C90961F3C71C00F8B5
:1036500010CB4FF003018DF8281099F800106FF38C
:10366000C71189F8001002F0020111B10999063161
:1036700009911BF008011A9102D00B9902310B91AC
:10368000811C0C9114F0080100F0148102213170AA
:10369000D6F801101991C6F8010005360A9941F0D3
:1036A000080C12F008018DF828C01B9102D009996E
:1036B000023109911BF010011C9102D00B990331CA
:1036C0000B914FF018018DF85C1009F1090111916F
:1036D00002F010011E91E10640F1E080811CC6F865
:1036E00001104CF010010A9103213170053602F0EF
:1036F0001001002900F0DA800021189109990331A6
:1037000009919DF828C01CF0100F1CBF05300C90CB
:1037100002F020001D90A0065FFA8CF140F1AA8013
:103720000A990C98C6F8010041F02001122030706F
:103730008DF828100536C9B202F02000002800F0EC
:10374000A98000201F90099812300990880602D5A0
:103750000C9912310C911BF0400F10D00B990131D4
:103760000B9195F8251001F01C01102900F04B82F7
:103770004FF058018DF85C1009F10A0111915106C2
:1037800006D5099A013209920A9A42F040020A9239
:103790009DF82820D1B212F040021591209202D05B
:1037A0000C9A01320C921499119A521AD2B2022A2E
:1037B000149204D809F1030211920122149209997A
:1037C0001398091AC9B2022903D80D9A0332099233
:1037D00001210D9A92F801B08B45C0F0C4800C9A7B
:1037E00008F10200101AC0B2022803D808F103023F
:1037F0000C920120002B00F09680ABEB010396F8B1
:1038000000B0099AD6F80110C6F80120DBB2337077
:103810000536BBF1000F40F0BB80002940F0BE81AF
:103820000F465C4609999B46BC468BE0624A634959
:1038300063484FF4C0632EF080F8002383F31188AF
:10384000BFF36F8F0323184602DF39E616F801EB4A
:1038500098F800C06EF3861C88F800C099F800C084
:103860006FF3861C89F800C000283FF4D7AED2E67B
:10387000122735E60E9880063FF55EAF02F0200075
:1038800040B10A9909981F9041F020018DF8281045
:10389000C9B258E702F020001F9057E70E99C906F9
:1038A0003FF525AF02F0100100297ED102F0100192
:1038B000189126E71991F1E60C9908F10A00002900
:1038C0007FF4CBAE02F00201002966D00D9998F882
:1038D00000C00878C00960F3C71C40464FF00301E0
:1038E00000F810CB8DF8281099F800C00C9961F3FE
:1038F000C71C89F800C0B9E61298A0B30D9998F8D2
:1039000000C008780C99C0F3801060F3861C88F81A
:1039100000C099F8000061F3861089F800000D9945
:103920000A31099181E662051FD40E9A940500F1CF
:103930003581ABEB010B1C465FFA8BFB09995B46AB
:103940002746A44603446344FF2B3BDD431C23442A
:103950005B44CA45337000F0C2810D9B984500F06E
:10396000B9814527BCE51F27BAE53478D6F801E0D0
:10397000ABEB01015FFA81FB0BEB0401B1F5807F3A
:103980005B46A4463FF7ACAD099977460536D9E7C3
:1039900000245B462746A446D4E799F800C00C995A
:1039A00061F3C71C89F800C063E64CF010010A916E
:1039B00009991891A2E600BF60CC030010CD030066
:1039C000A0840300149B89F801305A1E99F8023034
:1039D0000C9E62F3050389F8023098F80230421E0B
:1039E00062F3050388F8023004EB0B03034488F804
:1039F00001305A46304634F04BF82FB12246394652
:103A000006EB0B0034F036F898F802309A0600F016
:103A1000C380179B5B0640F10B810B9A119912F83A
:103A2000013C01F8013C531E0B934B1E11931D9B4F
:103A300013B1099B123B0993159B9F0602D50C9B62
:103A4000123B0C931F9B23B10C981946122234F0A1
:103A50001FF81C9B13B10B9B033B0B93119E95F816
:103A6000253016F8032C6FF3050206F8032C5C09C9
:103A700020F0B2F932288CBF0020012094FAA4F380
:103A8000002CB3FA83F308BF4FF0FF335B0106F855
:103A9000013C16F8033C60F386136FF3C71306F876
:103AA000033C002306F8023C1E9B13B1099B033B19
:103AB0000993159BDE0602D50C9B033B0C93189BC8
:103AC00023B10C980322194633F0E2FF1A9B13B17D
:103AD0000B9B023B0B931B9B13B1099B023B09936E
:103AE000199B002B00F0E980199A537812781B0279
:103AF00003F470631A431198D1B200F8051C95F8CD
:103B00009230C3F303031B0103EB122300F8043CC0
:103B10000C9800F8021C95F89230C3F303031B01C4
:103B200003EB122300F8013C159B9C0770D4831E05
:103B3000159AD0070BD5129A002A00F0D580099A61
:103B4000063A116843F8061C928823F8022C99F86B
:103B500002300D9899061CBF9DF85C3089F803303F
:103B600098F802309A061CBF9DF8283088F8033078
:103B700095F8264095F82530189A04F00104009431
:103B80004FF496745B094146019416F0FFFE169BB4
:103B900093F86230DB075AD40027A1E4149B89F81C
:103BA00001305A1E99F8023062F3050389F8023099
:103BB00098F8023088F80100013860F3050388F8AE
:103BC000023021E716F052FE099B1690002800F003
:103BD0009780DDF858E0CDF848809EF831200EEB54
:103BE00082020121506B0D9084461CF8022BCDF807
:103BF0004CC002F03F024170027080F803800EF169
:103C00001C014246B9E40A9941F040010A91B6E527
:103C1000219B002B6BD0099B063B09930C991A68DA
:103C200041F8082C9B8821F8043CA1F108037FE7A8
:103C3000209B002B3FF4FBAE099A0C9912F8013C33
:103C400001F8013C531E09934B1E0C93EFE6169CA2
:103C5000204616F013FA364A364B0721E0FB0231B4
:103C6000184631A3D3E90023FEF784F9256920F033
:103C70007F44AC423FD22E1B0025169F2E490223C3
:103C800068223846239310F0A9F800232B490195A8
:103C9000021D23AD0591CDE9033303210296D2B273
:103CA00000931846069511F02DFD294612F0FEFEF0
:103CB00000287FF414AC3C616EE795F892302049FF
:103CC00003F00F0331F81320501C21F81300C2F346
:103CD0000B0210E7109A6B6D12785A7541E60F9B34
:103CE0001B7885F8293038E60B9A063A29E70B9BB2
:103CF000063B0B9392E77FF64FAF651B0026BCE7B0
:103D0000CA457FF4EDAB0F4A0F49104840F23363C8
:103D10002DF013FE169B83F31188BFF36F8F0323DF
:103D2000184602DFFFF7DCBB8D49FD1A07000000D3
:103D300000CA9A3B8C49FD1A083C0020155B010023
:103D4000E43B002060CC030060CD0300A0840300AE
:103D50002DE9F04FD0F858B09549DBF8003091B01C
:103D6000682209901846089310F038F80025861D3F
:103D7000FF23CDE90C55F6B28DF82D3004240DF15A
:103D80003C0A0DF12E090DF138080CAF0DE00D9B2A
:103D9000AB4203D0002C2FD0013CE4B29DF82D3073
:103DA000FF2B3DD09E424ED00D9D824B05930020AF
:103DB0000221CDE90189CDE90300CDF818A00097D3
:103DC0000DAB0DF12D020F9111F03AFD022800F01C
:103DD000D7800F9B002BDAD0774A7849784840F695
:103DE000F3032DF0AAFD002383F31188BFF36F8F37
:103DF0000323184602DFCAE772496F4A704840F64B
:103E0000F5032DF09AFD84F31188BFF36F8F032320
:103E1000184602DF9DF82D30FF2B4FF0FF04C1D173
:103E20006949654A664840F6F7032DF086FD002390
:103E300083F31188BFF36F8F0323184602DF9DF8C9
:103E40002D309E42B0D10E9B60490C9FA3F5742289
:103E5000A2F510728A4207D903F1E873013F03F516
:103E6000D4330C9703F5A573089A5949526EA1FBF8
:103E700003139E0C5549A2F57423A3F510738B42CE
:103E800007D902F1E872013702F5D4320C9702F536
:103E9000A572099B596D4E4B487DA3FB0232950CD0
:103EA0000A7D0E958242D3B204D00133DBB2022BDD
:103EB00008BF002301EB83018C69E378D80748BF72
:103EC0000A34444858BF0434990748BF06341A07D7
:103ED00048BF02340721DB06A7FB000301FB0731C3
:103EE00031A3D3E9002348BF0334FEF743F8731B23
:103EF0001844B0F5161F384A28BFA0F51610A2FBCB
:103F000000122CBF40230023550C4FEA121143D05E
:103F1000324AA2FB0020C0F34712C0F344300343EF
:103F2000203363702270BBF81010BBF81430BDF85A
:103F30002E200B44134423829BF824209BF8251049
:103F40008A429BB206D0BBF826001B1A13F4004F1E
:103F500008BF0A461821062313FB02130BEB0302CA
:103F60005BF803306360137903F01F0323721FF0C3
:103F700031FF237A43EA4013237211B0BDE8F08F7A
:103F80000F9B022B7FF425AF0221002011F0A6FC2D
:103F90000F9B022BF8D01CE743EA1233DBB2CAB204
:103FA000BFE700BFAFF3008000CA9A3B00000000EB
:103FB000FC3C0020F5B90100A0CE030024CE030094
:103FC000A08403002CCE03005CCE0300BFBDF07FB5
:103FD00083DE1B438D49FD1A89888888B5814E1B75
:103FE00038B50023C1E905330C460B70F2B15178A6
:103FF00093783E31C3F30503C91AC9B2204617F0BE
:10400000FDFD0F4A0F4B0721E0FB0231002518464A
:104010003123A360656008A3D3E90023E560FDF7C1
:10402000A9FF20F07F402061284638BD91F8453037
:1040300001EB83039A6CDAE78D49FD1A0700000053
:1040400000CA9A3B8C49FD1A2DE9F047B1F860503F
:104050000E4640F2E2418CB0904601FB05F5682225
:104060001D4930461F460FF0B9FE04461B48022387
:104070000B93A5FB000116A3D3E90023FDF77AFFFC
:104080000DF12C0ACDF820A00696194633691F447D
:10409000134B0793134B05930025814600231046CD
:1040A0004FF47A72CDE90357FDF764FF0634E4B2AA
:1040B000CDE901904346224600952846032111F0A0
:1040C000A5FA514612F0F2FC0CB0BDE8F08700BF33
:1040D0008D49FD1A07000000FC3C002000CA9A3BF5
:1040E000155B010065BA0100F0B58A784B7803F1E1
:1040F0003E01C2F30503C91A8BB0C9B2044617F0DA
:104100007DFD1D491AA3D3E90023A0FB0101FDF7A2
:1041100031FF266920F07F45AE4220D9761B00276B
:10412000022316490993682220460FF057FE002308
:1041300013490296821D09AE0591CDE9033303218F
:10414000D2B2019700931846069611F0DBFA314679
:1041500012F0ACFC38B9256100200BB0F0BDFBD2E9
:10416000AF1B0026DCE70C200BB0F0BDAFF30080E6
:104170008D49FD1A0700000000CA9A3BFC3C002054
:10418000155B0100000000002DE9F04F06468DB0E0
:104190008A46012002219946154622F083FE00221C
:1041A0000B90022101200FF089FE3B494FF4EC7285
:1041B00030460FF013FEC71DFFB2384B00963A464B
:1041C0000121002011F0B6FA10F0FD0F0ED0344A94
:1041D0003449354840F632032DF0AFFB002383F31A
:1041E0001188BFF36F8F0323184602DF2F4CA5FB06
:1041F000044527A3D3E9002320462946FDF7BAFE4C
:104200000896069633690493294B20F07F48A8FB53
:104210000331E01A274B07934FF00702264B059313
:1042200002FB08114FF6FE7365EB010103934FF497
:104230007A720023FDF79EFE4FF0000BCDE901805E
:10424000CDF800A04B463A460121584611F0DEF960
:1042500010F0FD0F0DD0124A1249134840F64703E3
:104260002DF06BFB8BF31188BFF36F8F0323184680
:1042700002DF0B9B13B90DB0BDE8F08F01220221C4
:1042800010460DB0BDE8F04F0FF018BEAFF3008040
:104290008D49FD1A070000004817002015CF0100C6
:1042A00054CF03000CD00300A084030000CA9A3B43
:1042B0008D49FD1AB5CE01002D240200000000003A
:1042C0002DE9F0438468228D4FF6FF739A428DB03A
:1042D00000F08880054620461BF0BCFA2B7D012BA0
:1042E00000F00F81022B00F00281002B00F0E18032
:1042F00094F88071002F40F0FD80E68DB4F8308096
:10430000002E72D12A8A08F101060023CDE90A3372
:10431000B6B2002A71D094F93930002BC0F248812E
:104320000023A4F8BA31AB7CD90740F1F080002318
:10433000A4F8BE310DF12702314620461BF028F8C3
:10434000743000F04781B4F8B8312BB1B34240F279
:104350000E819B1BA4F8B831B4F8B4312BB1B34231
:1043600040F2FC809B1BA4F8B431258E17B9A845F8
:1043700000F0EB800135ADB294F8D13013F00106B6
:104380005BD1DDE90A130A46002B40F0EE800029DC
:1043900000F0DD801E461846228DE4690694CDE9C2
:1043A00003570732A84D0290CDE90016D2B2012181
:1043B0000020059511F0A6F910F0FD0F12D012F0B3
:1043C0009FFB84420ED0A14AA149A2484FF4A363A7
:1043D0002DF0B3FA002383F31188BFF36F8F03230B
:1043E000184602DF0DB0BDE8F0832A8A4644002358
:1043F000CDE90A33B6B2002A8DD1AB7CDA0796D468
:10440000B4F8BA31002B00F08280B34240F2FA8057
:104410009B1BA4F8BA31B4F8BE31002B8AD09E425F
:1044200080F0DE809B1B9BB20022062BA4F8BE31DD
:10443000228600F2AC8001277CE794F939206FF3E3
:104440000003002A84F8D13077DB94F87600C0F3BB
:10445000C00100F007001FF095FAB4F86E20B4F820
:104460006C30134403F2D51303447B4A7B48072185
:10447000E3FB0021104672A3D3E90023FDF77AFD88
:10448000DDE90A1320F07F4220692261904235BFA6
:10449000161A801A002000260A46002B7FF47CAFF3
:1044A00056EA010C7FF478AF002850D019461E461A
:1044B00072E794F88E3003F01803182B7FF418AFCE
:1044C000A18DB4F8B6218B1D9A42C4BF931F5B1A0D
:1044D000B4F8B211CCBF9BB21346994200F08C8065
:1044E000A4F8B231A4F8B431A4F8B82100E73D270C
:1044F00084F88071394620460DB0BDE8F04319F0CC
:104500003FB90023A4F8B831A4F8B431F0E6B4F808
:10451000BE31002B83D1628DB4F8BC3140F2E24150
:1045200001FB02F242F2107101FB0323013BB3FBDA
:10453000F2F39BB2A4F8BE316FE794F87700012143
:1045400000F007001FF020FA87E73D4614E7002D32
:104550004BD000261146304633461DE70023A4F811
:10456000B43120461AF0B6FFFFE6304614E712F0E9
:1045700031FA014600283BD00023A4F8B831238D3E
:10458000C3801B230371006812F0F6F9E4E694F986
:1045900039309342BFF6CEAEB8F1000F7FF44BAF87
:1045A000D4F8A8315A08DB0743D4C4F8A821C1E6DF
:1045B00028460AAA0BA904F58279FEF709F84846AD
:1045C0001AF0C4FC18B348461AF0C0FC18B3002314
:1045D0002386A5E69DF82710204619F0D1F801E7BB
:1045E0000821204619F0CCF8FCE6002FB1D1F9E6FD
:1045F0000123A4F8B831AFE6B4F8B81100297FF46C
:1046000077AE6FE73E21204619F0BAF8EAE6FF20C0
:1046100019F070F8D7E70246D4E91E010FF016FC36
:104620000028D4D194F83C30580744BFA38D23868A
:1046300076E642F00042C4F8A821FCE6AFF3008021
:104640008D49FD1A0700000071CE010054CF030010
:1046500058D00300A08403008C49FD1A00CA9A3B7D
:104660002DE9F04F87B0CDE90423BDF8442003784D
:104670000292BDF84820BDF84080BDF84C50468EEF
:10468000B0F82E90B0F844B1019104460392002B8B
:1046900000F08F80013EB6B2A368D4F83C71721B63
:1046A00092B2002B009209DAE168626823F00043BD
:1046B00091422CBF7F18BF18A360FF1A009A638D28
:1046C00013FB02F39BB2B3FBF8F218FB02F080B2CB
:1046D00083421FFA82FA5BD2C01A40F2E2425E497C
:1046E00002FB00F0A0FB010159A3D3E90023FDF771
:1046F00041FC20F07F400744D94494F839304D44C0
:10470000AD1B554440F2E246DB09E58506FB08F5A2
:1047100053D1524A5249534840F6BD032DF00DF98A
:10472000002686F31188BFF36F8F0323184602DF3C
:10473000A946029BA385039BA4F8BC3129462046C9
:10474000A4F82A801AF060FE474BA18D2B44881DE7
:10475000B3FBF5F39AB29042A4F8B62102D2521AF2
:10476000063A92B2019BA4F8B22113B10023A4F837
:10477000BE313B464A4631462046FFF705FD94F8D8
:10478000B03143F0010384F8B03107B0BDE8F08FD9
:1047900008FB1231304840F2E24389B203FB01F1D9
:1047A000A1FB00012AA3D3E90023FDF7E3FB3F1A95
:1047B000A2E74E445E44B6B26EE7226C0099A36C49
:1047C000DFF894B002FB1133A3641FF005FB8146B0
:1047D00094F8A401C0F342001FF002FB049B814443
:1047E00006FB03F305FB09F9236509F574291F4B43
:1047F00009F23F29A3FB09394FEA994303FB0AF069
:104800002364A5EB0309A36C6A080344963A934218
:1048100028BF1346C4E911230023C4F8AC31A0FB20
:104820000B010BA3D3E90023FDF7A4FB104B059A62
:104830003F1AA3FB0230800A06FB00F004A3D3E971
:104840000023A0FB0B01FDF795FB20F07F4670E7EE
:104850008D49FD1A0700000000CA9A3B54CF03009F
:1048600094870300A08403007FC3C90183DE1B4338
:104870005917B7D1000000002DE9F04F04460B682E
:10488000D0F81E00D3F80080638C166893B00F46F2
:10489000ADF84430237F21680A91C3F3801B109048
:1048A000CDF82CB012A911E903004FEAD31A08F190
:1048B0009D0915460E90ADF83C100EAB5A46504679
:1048C000494618F045FE002840F0BF8196F8CA110D
:1048D000BDF83C200C906BF341010E98C6F8D10155
:1048E0006AF3000186F8CA11A6F8D521D8F89D20F0
:1048F000C6F8CB21B9F80420A6F8CF21E28D94F8B0
:104900003010A9722A81D4F82A206A60D4F83A209B
:10491000AA6105F1180094F83E20027105210FF0FC
:104920004FFC6A7F00F03F0060F305026A7794F85D
:104930003F20C2F30401A977A18EE981012802F08A
:104940001F0289B240F281811B3202F01F020B2A42
:1049500000F27B810C9B002900F077813A6853605C
:10496000E38E2B82B5F80E90D8F85420618E0C910E
:1049700040F2E24303FB09F9002A00F0EB8198F8CA
:10498000251040F6C41240F6A6637F2988BF1A4658
:104990000D92002130461AF04BFD94F83F3096F806
:1049A000A4215B0963F3430286F8A4211FF014FAE3
:1049B000824696F8A401C0F342001FF011FA0AEBF8
:1049C000000309FB03F3CC4A03F5742303F23F23EE
:1049D000A2FB03239B0C6B624FEA5903963BAB622D
:1049E00094F8313040F2E24202FB03F3AB63238FD1
:1049F000A6F8BC31494630461AF006FDBF4BC04A06
:104A0000C6F8C0214B44B3FBF9F39AB2A6F8B6211D
:104A1000298A881D824204DDC1F57F41FA310A44AA
:104A200092B2A6F8B2216B68C6F8A831D8F8543013
:104A3000002B00F08B814FF0010AE20700F1488162
:104A40009DF82C30A377BDF83C30A4F823300E98A5
:104A5000C4F81F004FF48073A383EB89E3842B8A8F
:104A60002385B6F8BC31638596F8A431C3F34203BD
:104A700084F82C30304618F089FA0423A881E080AD
:104A800085F8B73021460A987C6811F069FFAB8938
:104A9000E3801C23D4F800B02371BAF1000F40F07A
:104AA0000E8184F81CA012F0C9FC002840F0ED80B3
:104AB0002146584611F060FF95F85B00B5F850406C
:104AC000B5F852A0012100F007001EF05DFFA244DE
:104AD0000AF2D51A824404468A4A8B480721EAFB27
:104AE000002131234FF0000A1046B360C6F804A03D
:104AF0007FA3D3E90023C6F80CA0FDF73BFA20F012
:104B00007F4030610C99FB686D6A40F2E24202FB23
:104B100001330D99303B19440C1B524602210120F0
:104B20000FF0CCF9D8F85430A9EB0505B3B1D3F8A0
:104B30000090484615F04AFE021D744BCDF80090D7
:104B4000D2B20121504610F0F5FD012800F0198184
:104B500099F862306FF3000389F86230404615F02F
:104B600099F88246684862A3D3E90023A4FB0001B8
:104B7000FDF700FACDF80480BB686449009120F08D
:104B80007F490AF102023A3BD2B24B440121002094
:104B900010F012FE012800F0DF8098F82430DB07C7
:104BA0006BD4304618F0F2F9574BA5FB03A8044626
:104BB0004FA3D3E9002350464146FDF7DBF9544BA0
:104BC000BF68544A079220F07F45A5FB0331BAEB3A
:104BD0000300514B059340F2D113069608933369B5
:104BE0004FF0000BCDE903B34FF0070303FB0511B2
:104BF00068EB01014FF47A720023FDF7BBF907342B
:104C00003A3FE4B2CDE90150CDF800903B46224650
:104C10000121584610F0FAFC10F0FD0F0DD03F4A6C
:104C20003F4940484FF4E9732CF087FE8BF311881D
:104C3000BFF36F8F0323184602DF012202211046C3
:104C40000FF03CF913B0BDE8F08F0022C8F8142033
:104C500095F820300A9862F3000385F82030E56863
:104C600001262146267111F07BFE28682E71294607
:104C700011F082FE13B0BDE8F08F002301220093F3
:104C80001846114610F056FD8BE72146584611F0A4
:104C900067FED8F850404046D4F800B014F0FAFF50
:104CA0005FFA80FABAF1010F40D800231222A4F86B
:104CB00006A023722271AA8962816372F8E66B7F73
:104CC00043F040036B77281D1DF0F2FFE883E8E610
:104CD000124A15491348F8232CF02FFE002383F3C2
:104CE0001188BFF36F8F0323184602DFA8E600BFC9
:104CF0008D49FD1A0700000083DE1B437FC3C901F5
:104D0000404B4C008C49FD1A00CA9A3BED2302002F
:104D10008D49FD1AB92302002D2402004CD5030051
:104D20000CD00300A084030050C903001F4A20498F
:104D300020484FF4A6732CF000FE002383F3118863
:104D4000BFF36F8F0323184602DFAEE7237FC3F361
:104D5000401A72E60D931CE611F0D2FE80453FF436
:104D60001CAF124A1449134840F279232CF0E5FD98
:104D7000002383F31188BFF36F8F0323184602DFEC
:104D80000BE711F0BDFE81453FF4E2AE074A0A4948
:104D9000084840F279232CF0D0FD8AF31188BFF344
:104DA0006F8F0323184602DFD2E600BF4CD5030005
:104DB00098CA0300A0840300A8D5030000000000E7
:104DC00038B503460438C0B201280D4616D9062B63
:104DD0002DD0D81FC3B2012B02D90024204638BDE4
:104DE00080B218F0DBF804460028F6D090F939308C
:104DF000002BF2DB03692B60204638BD15F086FDE1
:104E000004460028E9D0FF22114615F08DFD104A16
:104E1000104B0721E0FB023118460BA3D3E9002316
:104E2000FDF7A8F820F07F402860204638BD00201C
:104E300016F0C6FE04460028CFD0FF2116F0DEFE95
:104E4000E5E700BFAFF300808D49FD1A07000000C1
:104E500000CA9A3B8C49FD1A2DE9F04F8FB00DF135
:104E600037010446DFF8F0A0DFF8F0800DF13600DE
:104E700011F0F2FD9DF836309DF837B00B9310F02D
:104E800045FDDAF80060A6FB085631A3D3E90023FC
:104E90000027814631462846FDF76CF8CDE90777B3
:104EA000069420F07F44DAF804002D4B0593A0FB14
:104EB000080127A3D3E90023FDF75CF8294B20F074
:104EC0007F40A4FB0331072202FB0411CDE90370EC
:104ED000E81A66EB01014FF47A720023FDF74AF8F5
:104EE0000097CDE901404B460B985A46032110F03C
:104EF0008DFB10F0FD0404D06FF08B000FB0BDE807
:104F0000F08F1948194A002328F0B0F820B9DAF8D0
:104F10000C000FB0BDE8F08F9DF837209DF83600EB
:104F200000942346032110F005FC10F0FD0F0CD077
:104F30000F49104A1048E4232CF0FFFC0F482CF0D6
:104F4000FCFC0C48E4212CF0EFFC6FF07300D5E77B
:104F50008D49FD1A07000000E848002000CA9A3B6E
:104F6000BD2E02008D49FD1AD0480020447B0B0065
:104F700028D70300B8D60300A084030070D703002D
:104F800038B50F4D044610F0C1FCA96810F0C0FC04
:104F9000696803460B48B3FBF4F4A1FB00011C4411
:104FA00005A3D3E90023FCF7E5FF20F07F4084420E
:104FB00094BF0020012038BD8D49FD1A0700000074
:104FC000E848002000CA9A3BF0B5C468636883B023
:104FD0000546002B56D121F0DDF994F9400021F06F
:104FE00003FAA17A607A01F00101C0F3820021F096
:104FF000EDF9627A252102F01C02082021F05CFA0A
:105000003D4B019301A821F03FFA3C4940F25B601F
:1050100021F0F2FA237AC3F3420262F306132372F9
:1050200020461FF077F927682E6838461EF044FCAA
:1050300006446A6806F10901012021F029FD21F0EA
:1050400017FE204614F032FE811C3246C9B23846A3
:105050001EF040FC054600BB20461EF0A1FB10B927
:10506000002003B0F0BD264A2649274840F22C43D1
:105070002CF063FC85F31188BFF36F8F0323184670
:1050800002DFEDE793F820309B07A4D01F482146AC
:1050900021F03EF921F060FAE2E7194A1C491A486A
:1050A00040F214432CF049FC1A4B0721A5FB0303E3
:1050B00001FB05310EA3D3E90023FCF75BFF164982
:1050C000024616482CF039FC002585F31188BFF301
:1050D0006F8F0323184602DF1148214621F018F98B
:1050E00021F03AFA6FF08B00BBE700BFAFF300800E
:1050F00000CA9A3B00000000D6BE898E5555550067
:10510000DCD9030014C70300A08403008D3A020019
:10511000948703008D49FD1A94DA030054DA0300E2
:10512000453E0200000000002DE9F047C46882B04F
:10513000002380460DF1030104F1140066688DF828
:1051400003301FF0A5F80546002800F0CA80337B25
:1051500006EB83031F693B7803F00F03072B0DD089
:105160008D4A8E498E489F232CF0E7FB002383F362
:105170001188BFF36F8F0323184602DFBB7813F04B
:105180003F0976D0FB78D8074CBF07F10A023A1DD9
:10519000990748BF0632180748BF0232D90640F1C6
:1051A0009980937851781B0203F4F8530B4300F075
:1051B0009180238992F800A00133238121F0EAF83D
:1051C00096F9400021F010F996F80990B17A4FEA6B
:1051D000591901F00101484621F0F8F84FEA890217
:1051E000FF21082021F068F96E4B019301A821F0FE
:1051F0004BF90AF03F0A6C4940F25B6021F0FCF980
:1052000050461EF079FB284621F090F9BB783F2BE1
:105210003DD8AB789A0602D0EB78DB066FD46348B2
:10522000214621F075F821F0BDFB2668D8F8005022
:1052300030461EF041FB054405F10901D8F8042071
:10524000012021F025FC21F013FD204615F0C8FABD
:10525000011D2A46C9B230461EF03CFB0546002817
:105260006DD120461EF09CFA28BB002002B0BDE89C
:10527000F087494A4E494A48AB232CF05EFB89F33C
:105280001188BFF36F8F0323184602DF7AE70DF111
:10529000030106F120001EF0FBFF0546002840D068
:1052A0002146444821F034F8962021F0E5FB484699
:1052B00021F0C2FAB9E7384A3F4939484FF4AD7393
:1052C0002CF03BFB85F31188BFF36F8F0323184647
:1052D00002DFCAE73948214621F01AF821F03CF9EB
:1052E000C3E72D4A36492E488A232CF026FB85F346
:1052F0001188BFF36F8F0323184602DF27E721468B
:105300003048A56221F004F84FF4967021F0B4FB08
:10531000B37A03F0010319464A46484621F01AFBC6
:1053200083E71D4A28491E48F1232CF006FB85F32C
:105330001188BFF36F8F0323184602DFB0E7164AC8
:105340002249174840F249132CF0F7FA204B072165
:10535000A5FB030301FB05310DA3D3E90023FCF7F3
:1053600009FE1C4902461C482CF0E7FA002585F38B
:105370001188BFF36F8F0323184602DF0B482146C5
:1053800020F0C6FF21F0E8F86FF08B006EE700BF59
:1053900000CA9A3B00000000A0DA0300F8DA03001C
:1053A000A0840300D6BE898E55555500AD4B020032
:1053B00020DB0300D14C020014C70300014E0200A1
:1053C000F0DA0300FD4B020048DA03009487030083
:1053D0008D49FD1A40DB030054DA03000000000091
:1053E000F0B5C4680189228AA38A0A4492B21344A0
:1053F0000646628298B294F8242094F82530411C25
:10540000A1829A424FF0000183B0218205D0E18C45
:10541000411A090402D484F824301A4602EB4203EC
:1054200004EB430306215B7F01FB02421832E18A51
:1054300003F03F031DF040FC054620F0ABFF63681E
:1054400093F9400020F0D0FF63685F7A997A7F0972
:1054500001F00101384620F0B9FFBA00FF21082011
:1054600021F02AF804F1080021F00EF8A389A17BAD
:1054700040F25B6043EA014121F0BEF828461EF08D
:105480003BFA00210DF1030204F128008DF803100E
:105490001FF034F9054600285CD001AA29462046B1
:1054A00020F08CFD284621F041F8AB789A0602D016
:1054B000EB78DB0624D44448214620F029FF21F074
:1054C00071FA2768356838461EF0F6F9054405F18B
:1054D00009017268012021F0DBFA204616F078FB02
:1054E000811D2A46C9B238461EF0F4F90546002847
:1054F0003ED120461EF054F9B8B9002003B0F0BDEB
:105500003248E563214620F003FF4FF4967021F006
:10551000B3FA94F8403013F0010315D000233A4653
:105520003846194621F046FECBE7294A29492A4840
:1055300040F207132CF001FA85F31188BFF36F8F47
:105540000323184602DFD8E719463A46384621F0C9
:1055500001FAB6E71E4A21491F48B0232CF0EDF9A5
:1055600085F31188BFF36F8F0323184602DF94E79A
:10557000174A1B491848F7232CF0DFF9194B07216C
:10558000A5FB030301FB05310DA3D3E90023FCF7C1
:10559000F1FC1549024615482CF0CFF9002585F39A
:1055A0001188BFF36F8F0323184602DF104821468E
:1055B00020F0AEFE20F0D0FF6FF08B009EE700BF22
:1055C00000CA9A3B0000000001520200E1520200B2
:1055D0004CDB030014C70300A0840300F4DA0300CB
:1055E000948703008D49FD1A9CDB030054DA030005
:1055F0004D3A0200000000002DE9F041C468A28984
:105600004FF6FF739A4282B000F0F98005461FF012
:105610008DFF2B89628AE08A1A4492B21044637F1C
:10562000A28280B2411CE1825E064FF000016182DD
:1056300004F1180100F1B78003F03F000B46A17F91
:10564000009004F11F001DF0EBFA0646D4E90B327E
:105650001A44D4E90D030021E1626163A16A0344A5
:105660008A42A36394F8723028BF0A46226313F07B
:10567000040200F0A48020F08DFE94F9B70020F021
:10568000B3FE201D20F000FF2389A17A40F25B6069
:1056900043EA014120F0B0FF30461EF02DF9724878
:1056A000214620F035FE962021F0E6F994F85B00C3
:1056B00000F00703042B7ED0002104F1B9000EF0A6
:1056C00067FD0178CB0740F1978094F85B30477B0A
:1056D00003F0070301930123421C0093490833465A
:1056E00007F0030020F0B4FC94F8B83066F34603EA
:1056F00084F8B83094F85B00012394F85A200093A2
:105700000021C2F3C00300F0070002F0070221F0FD
:1057100007F920461FF06CFF27682E6838461EF0F8
:10572000CBF806446A6806F10901002021F0B0F9BF
:10573000804621F071FA002021F088FA236B94F85A
:105740005B0003F13002A36B00F00700012103EBC3
:10575000420520F0F9FE4544054494F85B0000F052
:105760000700022829D004280CBF4FF4BC7328235B
:1057700001211D4420F0EAFE284421F03FFA21F0E7
:1057800023F9A18907313246C9B238461EF0A2F882
:10579000054600283AD120461EF002F8E8B900205C
:1057A00002B0BDE8F0810A4603F03F03E18B1DF033
:1057B00083FA06464AE700239FE71823D8E7D4E98F
:1057C00017010EF043FB00287FF455AF94F87230B8
:1057D00043F0040384F872304DE7244A24492548F5
:1057E00040F255132CF0A9F885F31188BFF36F8FA1
:1057F0000323184602DFD2E720F048FC7AE71E4870
:10580000214620F085FD20F0A7FEC8E7174A1B4976
:10581000184840F24B132CF090F8194B0721A5FBC8
:10582000030301FB05310EA3D3E90023FCF7A2FB20
:105830001449024614482CF080F8002585F311889D
:10584000BFF36F8F0323184602DF1048214620F074
:105850005FFD20F081FE6FF08B00A1E7AFF30080C9
:1058600000CA9A3B00000000255902001CDC03001E
:1058700014C70300A08403008D3A0200948703003C
:105880008D49FD1A70DC030054DA03004D3A020022
:1058900038B50446002A46D0072A48D11D68E917C2
:1058A0004A0142EAD5624FEA451CBCEB050C62EBAB
:1058B0000102520242EADC524FEA4C2C1CEB050C6E
:1058C00041EB02004FEA801E4EEA9C6E4FEA8C12BA
:1058D000B2EB0C026EEB000E521941EB0E01586850
:1058E000131841EBE071012B71F1000211DB144838
:1058F000181811A3D3E9002341F10001FCF7EAFADB
:10590000B0FA80F1C1F11E01C9B2204630F086FD27
:105910000FE00C48181808A3D3E9002361F1000137
:10592000FCF7D8FAECE7198823F012FE01E06FF0DB
:10593000850038BDAFF300803AA395000000000059
:105940009DD14A00632EB5FF082815DC10F1140F15
:1059500008DB14300C4BC34013F0010F0AD16FF079
:105960001500704710F1280F09D010F11E0F08D153
:1059700000207047002070476FF01500704700202E
:1059800070476FF0150070471111D11F08B502481C
:1059900027F068FF08BD00BF201E002008B50D28B5
:1059A00004D001460B4B1B68642B08D90A4B1868BE
:1059B00083685B699847094827F054FF08BD084A87
:1059C000D0540133034A1360034B18688368DB69C2
:1059D0009847F3E7401E0020081E0020301E0020DC
:1059E000441E002038B50546002406E0064B186822
:1059F000295D8368DB69984701342846FCF757FC2A
:105A0000A042F3D838BD00BF081E002008B56422AC
:105A10000021034832F056F8024B00221A6008BDFC
:105A2000441E0020401E002038B50C460B78023B77
:105A3000042B14D8DFE803F0031429312D001C4B8C
:105A40001D8804E06368585DFFF7A8FF0135184B17
:105A50001B88E2689918A942F4D8154A118038BD0C
:105A6000134B00221A80134B186883681B694FF48C
:105A7000807211490968984703460028EFD00F4A01
:105A800001210F482CF0BFFDE9E74A680A4B1A6074
:105A9000E5E70A790B4B1A60E1E70A4B1B68002B1C
:105AA000DDD0084B00221A60074827F0DBFED6E75E
:105AB000DC630020081E0020C8020020A88003002C
:105AC000E47E03000C1E0020101E002008B5104BC1
:105AD000186883685B69984760B940F6CD4000213B
:105AE00029F096FC00210A4B186805F0E7F80346F8
:105AF00038B908BD0346074A012107482CF083FD49
:105B0000EBE7064A012104482CF07DFDF1E700BFD8
:105B1000081E0020BC800300E47E03000481030013
:105B200010B50C4A03210C482CF063FD0B4B186890
:105B30008368DC6801234FF480720949A04710B9DB
:105B4000FFF764FF10BD0346064A012102482CF00E
:105B50005AFDF5E720810300E47E0300081E0020C3
:105B6000A81E002038810300004870474C810300C4
:105B7000004870477481030030B583B04048414B02
:105B8000186031F0C6FA18B12BF0D5FB054608E0D5
:105B90003D4A01213D482CF02CFD6FF00D0450E0F2
:105BA000ACB1384B18682BF0B4FB04460028F7D092
:105BB0002BF0C1FB401BB0F57A7FF1D92346344A64
:105BC000012132482CF01FFD6FF0040439E02D4B09
:105BD000186883681B68002B36D000222D4998472F
:105BE0000346002832D1274C0121206805F066F8D1
:105BF00020688368DC6801234FF480722649A0473F
:105C0000034658BBFFF702FF24491E4B18682BF0D0
:105C100089FB044650BB2249224827F04DFD22490A
:105C2000224827F049FD2249224827F045FD00225D
:105C30000023CDE900234FF4A02200231E482AF0C0
:105C400079FA204603B030BD6FF057031B4A01219B
:105C50000E482CF0D8FC6FF00D04F2E7184A012131
:105C60000A482CF0D0FC6FF00D04EAE70346154A11
:105C7000012106482CF0C7FC6FF00D04E1E700BFDE
:105C8000287C0300081E002088810300E47E0300B6
:105C9000A0810300295A0000A81E002028830300C9
:105CA000E55F0000301E0020CD5A0000201E0020BD
:105CB000215B0000101E002098070020D8810300FF
:105CC000F081030008820300F0B5A5B004460D463C
:105CD0001646642200210BA831F0F4FE042221466E
:105CE000A24831F052FE08B9042D5DD009222146A8
:105CF0009F4831F04AFE08B9092D68D00722214695
:105D00009C4831F042FE10B9072D00F0A08002221D
:105D10002146994831F039FE10B9022D00F0B280C9
:105D200006222146954831F030FE10B9062D00F0CC
:105D3000AD800A222146924831F027FE10B90A2D83
:105D400000F0AA80092221468E4831F01EFE10B9CB
:105D5000092D00F2AB80092221468B4831F015FE57
:105D600010B9092D00F0BE8009222146874831F084
:105D70000CFE10B90D2D00F2C48009222146844882
:105D800031F003FE10B9092D00F2DF80092221460F
:105D9000804831F0FAFD002800F020817E48B047AD
:105DA0000024204625B0F0BDFFF7DEFE0446FFF7D5
:105DB000DFFE0346794A0092224679490BA82AF071
:105DC000ADFF0BA8B0477748B0470124E9E70023AF
:105DD0000793089309938DF8283003A82BF0DFFA76
:105DE0009DF80C305BBB9DF812308DF814309DF897
:105DF00011308DF815309DF810308DF816309DF863
:105E00000F308DF817309DF80E308DF818309DF852
:105E10000D308DF819300D2307AA062105A82BF0A7
:105E20000CFF07A800F0E4FA07AA5F490BA82AF0C4
:105E300075FF0BA8B0475B48B0470124B1E7DDF818
:105E40000D000590BDF81130ADF81830E3E72BF0E8
:105E50008CFA044608B95548B0472BF092FA05462B
:105E600010B95348B0472C462BF095FA28B9514841
:105E7000B0474948B047012493E7002CF9D04E4879
:105E8000B0478EE74C48B04701248AE74B48B047FB
:105E90004448B047012484E74748B04741F69A1088
:105EA000002129F0B5FA002002F024FF31F01AFE9B
:105EB0000546434F0021C1510A2204F109002AF08E
:105EC00055FF0446EB5913B9FFF73EFD18B13248B0
:105ED000B047002465E760B201F0C4FC3648B04723
:105EE00001245EE707A801F0E7FC9DF91C20354975
:105EF0000BA82AF013FF0BA8B0472F48B047012486
:105F00004FE731F0EFFD05462D4F0021C1510A2228
:105F100004F10D002AF02AFFEB5993B928B10128AA
:105F200009D01D48B04700243BE700F0CFF92248D4
:105F3000B047012435E700F07BF91F48B047012442
:105F40002FE71548B04701242BE731F0CBFD05467C
:105F50001B4F0021C1510A22A0182AF007FFEB595C
:105F600093B30D48B04700241BE700BF2482030011
:105F70004882030064820300B0820300B4820300FD
:105F8000D0820300DC820300E88203000083030068
:105F9000108303001C830300A482030038910300D4
:105FA0002C82030040820300548203006C820300B1
:105FB0007C8203008C8203009C820300BC8203006D
:105FC0000C000000F482030080B2014600F0C4F926
:105FD00004460028C5D00248B047E2E60124E0E6C6
:105FE0009C82030010B5194B1B68632B28BF6323E9
:105FF000174C0022E2542046FCF759F90146154A95
:106000002046FFF761FE18B9FFF700FD012407E005
:10601000114831F0DEFBF7E7A420002129F0F8F960
:1060200094B10E4B18688368DC6801234FF48072CA
:106030000B49A04704460028EED00346094A012137
:1060400009482CF0E0FAE7E710BD00BF401E002031
:10605000441E0020E559000098070020081E00207B
:10606000A81E002038810300E47E030070B584B0D0
:106070000E4614461D46FBF795F900225B4BFBF7D5
:1060800025FBFBF733FC5A4B18803046FBF78AF9A7
:106090000022564BFBF71AFBFBF728FC554B1880E8
:1060A0000026554B1E70554B5A6920686168506038
:1060B0009160218991815A692968C2F80E10A988D6
:1060C00051825B699DF92020DA704D4A03214D48C9
:1060D0002CF08FFA4C4A31464C4809F0F5FB002869
:1060E00063D1484C4A4A032120462CF082FA494A9F
:1060F000032120462CF07DFA0023009303223F4920
:10610000414800682DF082FD0346002855D13D4CE2
:106110003F4A032120462CF06CFA3F4A03212046D7
:106120002CF067FA3D49384B18680DF095FD034691
:10613000002848D1334C364A032120462CF059FA26
:10614000374A032120462CF054FA294B1B88ADF81E
:106150000830284B1B88ADF80A304FF48043039376
:1061600002A9294B186809F04FFC034688BB254C4F
:10617000274A032120462CF03CFA2A4A03212046D4
:106180002CF037FA204B18680DF0BCFD034630BBED
:106190001F4D1C4C2A46032120462CF02AFA2A4681
:1061A000032120462CF025FA05E003461E4A012172
:1061B00014482CF028FA04B070BD1C4A0121204676
:1061C0002CF021FAA3E7184A012120462CF01BFAF3
:1061D000F1E7154A012120462CF015FAEBE7124AA7
:1061E000012120462CF00FFAE5E700BF0000F43F44
:1061F000E0630020DE630020EE630020CC0200207C
:1062000038830300F47E0300A82000200C03002044
:106210004C83030058830300908303000403002091
:10622000A8830300CC830300F88C03006C83030075
:1062300010B51D4B1B782BBB1C4A03211C482CF0AE
:10624000D8F91C4B18682DF011FD034600BB184C03
:10625000194A032120462CF0CCF9184A0321204684
:106260002CF0C7F91649134B186809F05DFB03467B
:10627000A0B90D4B01221A700F4A03210C482CF0D3
:10628000B8F904E00F4A022109482CF0B2F910BD18
:106290000D4A012106482CF0B6F9F8E70A4A012117
:1062A00020462CF0B0F9F2E7EE630020FC830300F7
:1062B000F47E0300A82000204C8303001C8403000C
:1062C000AC200020DC830300F88C030010B5194BD0
:1062D0001B7893B1184B18682DF0CDFC98B9164B6C
:1062E00018682DF061FCC8B9144A032114482CF039
:1062F00080F9104B00221A7010BD124A022110487A
:106300002CF077F9F8E7104CC52322460F491048C6
:106310002BF013FBC52120462BF006FB0A4CC623AD
:1063200022460C490A482BF008FBC62120462BF0D8
:10633000FBFA00BFEE630020A8200020E4840300E5
:10634000F47E03003C8403005C8403007C8403002F
:10635000A0840300C084030030B583B00C46FBF773
:1063600021F800221B4BFBF7B1F91B4DFBF7BEFADE
:1063700028802046FBF716F80022164BFBF7A6F9FB
:10638000164CFBF7B3FA2080FFF7A0FF2B88ADF87F
:1063900000302388ADF802304FF480430193694602
:1063A0000F4B186809F030FB044658B90D4A032119
:1063B0000D482CF01EF9FFF73BFFB4FA84F04009BA
:1063C00003B030BD0346094A012107482CF01BF9F0
:1063D000ECE700BF0000F43FE0630020DE63002034
:1063E000A82000204C830300F47E0300F88C0300F7
:1063F00010B50446FBF75BFF002302E08CF80010A9
:10640000013383420ADA04EB030CE15C044A525C78
:1064100002F00302022AF1D12039EFE710BD00BFDC
:10642000D9FA030010B582B043681B6801248C4080
:1064300023420AD001A92AF0FDFF20B9019B1C428A
:1064400014BF0120002002B010BD084C40F2FF53E1
:106450002246074907482BF070FA07482BF06DFADF
:1064600040F2FF5120462BF05FFA00BFFC8403008E
:1064700030850300A084030070850300F8B58668AA
:106480004768046912F0FC6F33D1134602F0300202
:10649000302A3ED0504A1A40504DAA4249D003F00B
:1064A0000602042A55D013F4402202D013F4003F10
:1064B0005CD0B2F5402F69D013F4801F05D022B113
:1064C00013F0010F01D083F4402323F480123D68C0
:1064D0004FF0010C0CFA01FC15EA0C0F66D013F01A
:1064E000010F73D023684CEA030323603368984795
:1064F000F8BD3B4C4FF4747322463A493A482BF0AE
:106500001CFA3A482BF019FA4FF4747120462BF01C
:106510000BFA334C40F2D3332246354932482BF044
:106520000CFA34482BF009FA40F2D33120462BF014
:10653000FBF92B4C40F2D73322462F492A482BF047
:10654000FCF92E482BF0F9F940F2D73120462BF018
:10655000EBF9234C40F2DA332246294922482BF04A
:10656000ECF940F2DA3120462BF0DEF91C4C40F217
:10657000DD33224623491C482BF0DFF922482BF05B
:10658000DCF940F2DD3120462BF0CEF9144C40F21C
:10659000E13322461D4914482BF0CFF91C482BF05B
:1065A000CCF940F2E13120462BF0BEF90C4C40F220
:1065B000ED33224617490C482BF0BFF916482BF053
:1065C000BCF940F2ED3120462BF0AEF9236823EA06
:1065D0000C0323608AE700BF0200030002000100F1
:1065E000FC84030084850300A0840300E485030089
:1065F000088603004486030084860300CC860300DB
:106600001C8703005087030098870300D48703008A
:1066100018880300308503007085030070B5836817
:10662000456806699C69002C72D002F4C003B3F57A
:10663000C00F1DD063B302F0E863B3F1C86F37D069
:1066400002F0C863B3F5800F42D02D6801238B4060
:106650001D424DD012F4000F04D035682B4201D0FA
:1066600082F0C06202F0B05302F0B072A04770BD79
:10667000294C40F273332246284929482BF05DF912
:1066800028482BF05AF940F2733120462BF04CF990
:10669000214C40F277332246234921482BF04DF913
:1066A00022482BF04AF940F2773120462BF03CF992
:1066B000194C40F27A3322461D4919482BF03DF916
:1066C0001C482BF03AF940F27A3120462BF02CF995
:1066D000114C40F281332246174911482BF02DF915
:1066E00016482BF02AF940F2813120462BF01CF994
:1066F000094C40F28B332246114909482BF01DF911
:1067000010482BF01AF940F28B3120462BF00CF98F
:106710006FF05700ABE700BFFC8403004488030020
:10672000A084030088880300B4880300E088030085
:106730000C89030090890300E4890300308A030078
:10674000308503007085030010B582B021E005F0AC
:10675000E9FE02211C48FFF765FE04464FF4A470D1
:10676000002128F055FE002CF3D1184A136801339C
:10677000136068462AF098FEB0F57A7F71F1000147
:1067800020DA0020124B1B68984712490E482AF065
:106790005DFE4FF0FF324FF0FF330F4826F066FCEE
:1067A0000028D4D12AF066FE00900023019340F621
:1067B000CD40002128F02CFE02210348FFF732FED5
:1067C0000446D0E70120DDE7E07B0300B020002095
:1067D000D8200020CC200020B420002010B5064C8A
:1067E000064920462AF03CFE02212046FFF71AFE09
:1067F000034826F0F5FB10BDE07B0300CC20002011
:10680000B4200020F0B583B000AF744B186074481A
:1068100030F07FFC88B3734973482AF068FE034662
:10682000002869D06E4A15686C4601223A7103222D
:106830007A718AB0EC461CF1100226D016204AB1BB
:106840000146042802DD694ECCF81460082901DDF8
:10685000CCF8183001233B7003237B701AB3034636
:106860000C2801DDCCF81C50102B02DD0223CCF8E3
:1068700020300CF12403002113E05D4A01215D4822
:106880002BF0B7FE0C37BD46F0BD6FF00040D6E7E9
:1068900001F1080505EB070E1EF808EC03F801EB03
:1068A00001310129F4D9152823DD16234AB1052128
:1068B000397100217971B9710121F9717868CCF8C9
:1068C000100000216FF300016FF341016FF38201AB
:1068D0006FF3C501012060F38811C3F30A0363F36A
:1068E00053216FF31F510023424803F0C7FDA54613
:1068F000C8E76FF01B03D9E7012200213E4830F0C2
:10690000F9FC3E4830F011FE3D493E4B4B600423FC
:106910008B60334C20462AF099FD4FF0B861324825
:106920002AF0F0FD21686C4600233B7102237B7145
:106930008AB0EC461CF1100224D0122022B10428A7
:1069400002DD314BCCF8143000233B7002237B7006
:10695000DAB10346082801DDCCF818100C2B02DD53
:106960000223CCF81C300CF12003002101290CD8A3
:1069700001F1080505EB070E1EF808EC03F801EB22
:106980000131F3E76FF00040D8E7112823DD12232F
:106990004AB10421397100217971B9710121F9716C
:1069A0007868CCF8100000216FF300016FF341010B
:1069B0006FF382016FF3C501032060F38811C3F305
:1069C0000A0363F353216FF31F510023094803F0B7
:1069D00055FDA54656E76FF01B03D9E7D8200020E8
:1069E000E07B030010000100F88A03009C8A03008A
:1069F000788A0300647F0300B4200020E8090020A7
:106A0000CC200020DD670000C48A0300F8B586684A
:106A10004768046912F0FC6F33D1134602F030026C
:106A2000302A3ED0504A1A40504DAA4249D003F075
:106A30000602042A55D013F4402202D013F4003F7A
:106A40005CD0B2F5402F69D013F4801F05D022B17D
:106A500013F0010F01D083F4402323F480123D682A
:106A60004FF0010C0CFA01FC15EA0C0F66D013F084
:106A7000010F73D023684CEA0303236033689847FF
:106A8000F8BD3B4C4FF4747322463A493A482AF019
:106A900054FF3A482AF051FF4FF4747120462AF00F
:106AA00043FF334C40F2D3332246354932482AF073
:106AB00044FF34482AF041FF40F2D33120462AF007
:106AC00033FF2B4C40F2D73322462F492A482AF075
:106AD00034FF2E482AF031FF40F2D73120462AF009
