:0200000270008C
:102000000000022001230700292307002B230700DB
:102010002D2307002F2307003123070000000000B5
:102020000000000000000000000000003323070053
:10203000352307000000000037230700392307007D
:102040003B2307003B230700893B07003B23070096
:102050003B2307003B2307003B2307003B230700EC
:102060003B2307003B2307003B2307003B230700DC
:102070003B2307003B2307003B2307003B230700CC
:10208000294B07003B2307003B2307003B230700A6
:102090003B2307003B2307003B2307003B230700AC
:1020A0003B2307003B2307003B2307003B2307009C
:1020B0003B2307003B230700000000000000000056
:1020C0003B2307003B2307003B2307003B2307007C
:1020D000F14407003B2307003B2307003B23070095
:1020E0006D7F0700000000000000000000000000FD
:1020F000000000003B230700000000003B23070016
:1021000000000000000000000000000000000000CF
:1021100000000000000000000000000000000000BF
:1021200000000000000000000000000000000000AF
:10213000000000000000000000000000000000009F
:10214000000000000000000000000000000000008F
:10215000000000000000000000000000000000007F
:10216000000000000000000000000000000000006F
:10217000000000000000000000000000000000005F
:10218000000000000000000000000000000000004F
:10219000000000000000000000000000000000003F
:1021A000000000000000000000000000000000002F
:1021B000000000000000000000000000000000001F
:1021C000000000000000000000000000000000000F
:1021D00000000000000000000000000000000000FF
:1021E00000000000000000000000000000000000EF
:1021F00000000000000000000000000000000000DF
:102200000348044B834202D0034B03B11847704785
:10221000982B0020982B002000000000054806495C
:10222000091A891001EBD171491002D0034B03B197
:1022300018477047982B0020982B002000000000C2
:1022400010B5064C237843B9FFF7DAFF044B13B1FE
:102250000448AFF300800123237010BDAC2B002095
:102260000000000008BC070008B5054B1BB105497C
:102270000548AFF30080BDE80840FFF7CFBF00BFBF
:1022800000000000B02B002008BC0700154B002BFD
:1022900008BF134B9D46A3F5803A00218B460F469D
:1022A0001348144A121A07F0A5F80F4B002B00D060
:1022B00098470E4B002B00D09847002000210400C7
:1022C0000D000D48002802D00C48AFF3008007F045
:1022D00051F82000290001F015FD07F037F800BF84
:1022E00000000800000002200000000000000000C4
:1022F000AC2B0020746300200000000000000000F0
:102300000649074A074B9B1A03DD043BC858D050C7
:10231000FBDC00F023F8FFF7B9FF0000BCBC0700AE
:10232000E82A0020AC2B0020FEE7FEE7FEE7FEE7F0
:10233000FEE7FEE7FEE7FEE7FEE7FEE7054B1B686C
:102340000D2B01BF044B1868B0FA80F0400918BF8C
:1023500000207047300100103401001008B5FFF76D
:10236000EDFF40B14FF080430022C3F80C21C3F8C9
:102370001021C3F83825FFF7E1FF002846D04FF0C1
:1023800080524D4BD2F80414C3F82015D2F808142B
:10239000C3F82415D2F80C14C3F82815D2F8101479
:1023A000C3F82C15D2F81414C3F83015D2F8181449
:1023B000C3F83415D2F81C14C3F84015D2F8201411
:1023C000C3F84415D2F82414C3F84815D2F82814D9
:1023D000C3F84C15D2F82C14C3F85015D2F83014A9
:1023E000C3F85415D2F83414C3F86015D2F8381471
:1023F000C3F86415D2F83C14C3F86815D2F8401439
:10240000C3F86C15D2F84424C3F87025FFF796FF83
:1024100048B14FF08043D3F80024D20744BF6FF097
:102420000102C3F80024254AD2F8883043F470032F
:10243000C2F88830BFF34F8FBFF36F8F4FF0102378
:10244000D3F80022002A03DBD3F80432002B2FDA62
:102450001B4B0122C3F80425D3F80024002AFBD02B
:102460004FF010221221C2F80012D3F80024002AE3
:10247000FBD04FF010231222C3F80422104B1A464F
:10248000D3F800140029FBD00021C3F80415D2F8BA
:102490000034002BFBD0BFF34F8F0849094BCA68AB
:1024A00002F4E0621343CB60BFF34F8F00BFFDE740
:1024B000054B064A1A6008BD00C0004000ED00E070
:1024C00000E001400400FA05E82A00200090D00353
:1024D0007047000007B5044B0093044A402300F006
:1024E00032F803B05DF804FBF1240700C92B00208B
:1024F0002DE9F84389461446B2B10F4B0F4E032520
:10250000002743F00108224609EB0701002001F0F3
:10251000D1FC0744241A48B933782BB14FF47A40E0
:10252000C047013D02D13570BDE8F8830123337007
:10253000002CE8D1F8E700BF40940700C82B00202A
:10254000704701F0EBBCF0B595B01C461646084646
:102550000D4601F0B3F91A9B0D93CDE908640024F0
:102560002346082205A928460A948DF82C400C948D
:1025700001F0C1F9079B0293069B03939DF8143069
:102580008DF8114003F00302012A1DD1BDF814405B
:10259000059EC3F3C203C4F383148DF81030A20068
:1025A00008230EA9284601F0A6F9C6F3952608AB24
:1025B0000093224602AB0EA9304600F0FBFB2846F2
:1025C00001F080F915B0F0BD022AF8D1BDF816402F
:1025D000C3F3C203A4098DF810300827082C26463F
:1025E00028BF08263B4632460EA9284601F083F94B
:1025F000A41B08AB02AA31460EA8374400F03EFCEB
:10260000002CEBD1DBE7000008B5FFF79AFF0421AF
:10261000034800F033FB034B01225A7108BD00BF91
:10262000A4BC0700EC2A0020037813F0040216D0A3
:1026300003F00303012B03D0022B09D001207047C4
:102640000A6800880232C0F3831002440A60F5E78A
:102650000B684288023303EB92130B60EEE71046DF
:10266000704700002DE9F04F044685B0851C00201E
:102670000F46904600F060FD444806683E60D0E991
:102680000132134401339B1B414E8246A6F10409DB
:10269000A6F10807AB421AD30022B8F1000F6FD0A1
:1026A000052363F3070264F38912DAF80010DAF8FD
:1026B00008300B4003330D444AF823200020CAF8A9
:1026C000005000F03BFD012005B0BDE8F08F012176
:1026D000304600F087FD484600F09DFD384600F08A
:1026E0009AFDDAF80400DAF808B0009000EA0B006E
:1026F00003300AEB80006946FFF796FF009B50BB52
:102700000BEA03020AEB820203F1020CD268019287
:10271000013303EA0B0B0AEB8B0B02F00302012AD5
:10272000CDF800C0DBF80C1022D0022A16D0834668
:10273000384600F073FD10B1009BCAF804305946CA
:10274000304600F04FFDDAE901231344DAF80020A7
:1027500001339B1A9EE70BEA0300C9E7BDF8063078
:102760009B0903334FEA114B0CEB93030093DFE714
:10277000BDF80430C3F383134FEA114B6344F5E70C
:10278000062363F3070264F39F528EE7DC2C0020DC
:10279000F83C00200D4B0E4840F2FF3241F2180188
:1027A00010B59A6000225A5041F21401C3E9002288
:1027B0005A5003F581531A7001F039F8044610B9E4
:1027C000044801F0A2F8204610BD00BFDC2C002018
:1027D0007CBC07006494070030B50A4C71B10A4A0A
:1027E0000A49121BD20800239A4201D1002030BDB1
:1027F00031F82350854202D00133F5E7034654F8FF
:102800003300F4E714BC07007CBC0700AC2B0020AD
:10281000094B013903EBC000032909D8DFE801F0B7
:102820000A02040604207047007970474079704717
:10283000002070470220704714BC0700034BD3E907
:102840000030C31A58425841704700BFDC2C0020AA
:102850002DE9F04385B0FFF7F1FF0646002840F070
:10286000FF80804D41F21803E850BFF34F8F686836
:10287000AC680090204003307B4F05EB8000694638
:10288000FFF7D2FE009B10B13A68002A61D004EA3B
:102890000302991C013305EB8202234005EB8303FD
:1028A000D268DB68029302F00303022B01920091CD
:1028B00067D1BDF806306D484FEA9318B8F1500F54
:1028C000C14628BF4FF0500969F38F1309F1080181
:1028D000ADF8063000F0C3FF0746002800F0AA80DC
:1028E00000F0ECFF01A900230822384600F0F9FFB0
:1028F000009924EA01060136B600B1453AD95FFADB
:1029000089F9A6B3F6B2A9EB0609214003315FFAB3
:1029100089F4B146564E05EB810108234A463846F4
:1029200000F0DFFF36B109F1080322463146384690
:1029300000F0D7FF009B08F1030803EB9803009316
:1029400041F21803EB58002B4FD141F21003EC5821
:102950005EE02A689A4204D86A60304605B0BDE855
:10296000F08304EA0300033005EB800087E7404969
:102970003446D2E72140033108234A4605EB810162
:10298000D5E7012B56D1BDF804303848C3F3831185
:10299000062928BF062161F3891302318900ADF8A9
:1029A000043000F05CFF0746002843D000F086FFAB
:1029B0000023082201A9384600F093FF0026BDF845
:1029C0000420C2F38312B300964203F10803B7D286
:1029D00000994A1C21400331009205EB8101042239
:1029E000384600F07EFF0136E9E7384600F06AFF1E
:1029F000FFF724FF80F00100C6B2AEE7E3685B7921
:102A000023B1236839461B6820469847E3681C6851
:102A1000002CF3D1384600F055FF204600F08CFB27
:102A200041F21803EB580BB9009B6B60002000F0DB
:102A300085FBDDE741F21003EC5854B90D4B0E480D
:102A40000E49C01AC008000440F0020000F072F8FD
:102A5000CEE7236820469B689847E3681C68ECE74C
:102A600000267AE7DC2C0020F43C00207CBC070028
:102A7000E82C002014BC070024BC07007094070059
:102A80002DE9F74F284D80460F46924601A90122B5
:102A900018469B46D5F80890FFF7E4FD80B3019CEB
:102AA0000026A11C5E4506EB010233D100211F4820
:102AB00000F062FB80F31000621C02EA090205EBE1
:102AC0008202000404EA0903033340EA1840D0609C
:102AD00015F8232068F3C50205F8232035F82320D4
:102AE00066F3891225F8232055F8232067F39F22E7
:102AF00045F8232002F0F80242F0010205F82320F5
:102B00000B4B1B781BB1FFF7A3FE0028FBD103B0D2
:102B1000BDE8F08F09EA020205EB82025AF826307E
:102B2000D3600136BEE700BFDC2C0020F83C00205B
:102B3000FC3C002000231A46FFF7A2BF07B5012383
:102B4000019201AAFFF79CFF03B05DF804FB07B5F3
:102B5000CDE9002302236A46FFF792FF03B05DF838
:102B600004FB1FB5CDE90123069B039301AA0323B0
:102B7000FFF786FF05B05DF804FB1FB5CDE9002324
:102B8000069B0293079B03936A460423FFF778FF93
:102B900005B05DF804FB7FB5CDE90123089B0393E5
:102BA000099B04930A9B059301AA0523FFF768FF7D
:102BB00007B05DF804FB00002DE9F34780462C4C7C
:102BC000D01C8A46174601A900228008A568FFF795
:102BD00049FDC8B3DDF80490A66809F10200019030
:102BE00001362840361AB6000330B74204EB8000A5
:102BF00034D83A46514606F0EFFB00211D4800F05C
:102C0000BBFA80F3100009F101032B4004EB8303AE
:102C10004FEA184242EA0042DA6005EA0903033348
:102C200004EB830214F8231068F3C50104F82310A1
:102C3000518867F38F11518034F8232002F0380255
:102C400042F0020224F823200B4B1B781BB1FFF744
:102C5000FFFD0028FBD102B0BDE8F08732465146A7
:102C600006F0BAFBBA1B0AEB060104F10C00C2E73E
:102C7000DC2C0020F83C0020FC3C002030B541F268
:102C80001003124AD4580023214651B9C468237155
:102C900041F21004155955B91051C2681160184617
:102CA00030BDC9680D799D4209D00968EDE7ED682E
:102CB000C1682D680D601259D2681060EFE70133CA
:102CC0000A2BE1D14FF0FF33E9E700BFDC2C0020F5
:102CD00038B541F21002094B9C5803F5815201238B
:102CE00013701D4604B938BDE3685D712368204642
:102CF0005B689847E3681C68F4E700BFDC2C0020A1
:102D000010B5037A052B0C460FD0437A23B1084A3D
:102D10000849204600F0E1FA0749204600F0DDFAB4
:102D20002046BDE8104000F0CDBA002AF8D0F3E705
:102D3000BB9407001FB20700DD94070073B5C3887A
:102D400004460D4633B1144A00921449144A2846E9
:102D500000F0C3FA217A05291CD0637A4BB1A08810
:102D6000FFF756FD0F4B104953F82020284600F07E
:102D7000B4FA227A0D4BA08853F822600021FFF7A5
:102D80002BFD0B4903463246284602B0BDE8704091
:102D900000F0A3BA02B070BDBB940700C89407004E
:102DA000C0940700889407001FB20700EC94070046
:102DB000E09407002DE9F04385B01F460C9D0023E9
:102DC00006460C46904695F80C902B7329463846DB
:102DD000FFF7B4FFB8F1060F09D8DFE808F00412D6
:102DE000181F283340003146284600F076FA0022AA
:102DF00029463846FFF784FF85F80C9005B0BDE8FA
:102E0000F08322683146284600F067FAEFE7D4E9FC
:102E100000233146284600F060FAE8E7A3680093F3
:102E20003146D4E90023284600F057FADFE7E3688B
:102E30000193A36800933146D4E90023284600F0AB
:102E40004CFAD4E723690293E3680193A3680093E3
:102E50003146D4E90023284600F03FFAC7E763690A
:102E6000039323690293E3680193A36800933146B7
:102E7000D4E90023284600F030FAB8E708292DE904
:102E8000F84F80460E4617461C463BD8002593F85F
:102E90000C901D7319461046FFF750FFDFF88CA009
:102EA000DFF88CB0AE422FD918F8052059462046DD
:102EB00000F013FA0135082DF4D11949194DDFF846
:102EC00074B0204600F009FA4FF0000A564522D9A6
:102ED00018F80A207E2A1CD812F80B1011F0970F50
:102EE00008BF2E221049204600F0F7F90AF1010A26
:102EF000BAF1080FEAD1012221463846FFF700FF58
:102F000084F80C90BDE8F88F5146204600F0E5F9B2
:102F1000D0E72E22E6E72946204600F0DEF9E5E775
:102F2000B6940700B4940700B8940700B294070061
:102F3000AC94070001BB0700074B1B5C1F2B86BF2F
:102F400003F01F0305494FF0A041012202FA03F3E9
:102F5000C1F80835704700BF5195070000030050C5
:102F600008B50020FFF7E8FF0120FFF7E5FF02208A
:102F7000BDE80840FFF7E0BFC20710B504460AD518
:102F80004FF0A0420323C2F83437C2F8043AC2F823
:102F9000003AFFF7E5FFA30742BF4FF0A0430C2222
:102FA000C3F8082710BD000030B54C1CE40012F037
:102FB0000303A4B20ED1084D2A602244074C2260BC
:102FC000074A1370074A1370074A1080074A1846C9
:102FD000118030BD0720FCE7A03D00209C3D002073
:102FE000983D0020A83D0020A43D0020A63D0020E3
:102FF0002DE9F047284D2B888B4206460C46174694
:1030000045D3002000F098F8244B254A254819782C
:1030100013780088DBB2834238BF0133C9B234BFB2
:10302000DBB2002399422CD092F800801378DBB2F7
:10303000984286BF0133DBB200231370002000F0FA
:103040007DF84FF6FF73984523D0DFF860A0DAF8DB
:1030500000304FEAC80903EB090243F838709EB10B
:1030600094B1114B28881B68224608FB003031467A
:1030700006F0B2F9DAF800304B4400209C80BDE83D
:10308000F0874FF6FF78D9E700209080F7E7092016
:10309000F5E70420F3E700BFA43D0020A83D002091
:1030A000983D0020A63D00209C3D0020A03D002032
:1030B000F8B5124C124D264622782B789A4200D150
:1030C000F8BD23780F48104A078812680F48DBB212
:1030D00019B202EBC10C006852F83120BCF80410A0
:1030E00003FB070090470A4A23781288DBB29A4212
:1030F00086BF0133DBB200233370DDE7A83D00203B
:10310000983D0020A43D0020A03D00209C3D0020D3
:10311000A63D002072B6024A13680133136070475F
:10312000AC3D0020034A1368013B136003B962B64B
:10313000704700BFAC3D0020FFF7ECBFFFF7F2BFC8
:1031400030B53AB11368DB430A4D0144884204D1DB
:10315000D84330BD4FF0FF33F6E710F8012B534052
:10316000082213F0010418BF2C46013A84EA5303E5
:10317000F7D1EBE72083B8ED50E8002F0B4640E88D
:10318000003C9CF0000FF7D11046704750E8002F2C
:1031900042EA010340E8003C9CF0000FF6D11046E3
:1031A000704750E8003F43EA010240E8002C9CF0E1
:1031B000000FF6D11046704750E8002F02EA0103D5
:1031C00040E8003C9CF0000FF6D11046704750E8F4
:1031D000003F03EA010240E8002C9CF0000FF6D10A
:1031E0001046704750E8003F03EB010240E8002C16
:1031F0009CF0000FF6D11046704750E8003FA3EB5B
:10320000010240E8002C9CF0000FF6D110467047F8
:103210000121FFF7BBBF0121FFF7C3BF0021FFF76B
:10322000CBBF0021FFF7D3BF10B590B1D0E9012388
:1032300001689B1ADBB20A60013BDBB2FF2B02681C
:1032400002D10020107110BD11684C1C14600B706D
:10325000F2E70E20F7E738B504460020FFF76CFFD1
:103260002268616813688B4215D9591E116013F8E2
:10327000015C228AE36802FB05352268A3681168B5
:103280005B1A1179DBB2994200D213710020FFF76B
:1032900055FF284638BD0025F8E738B5054600201B
:1032A0000C46FFF749FF2A681368591C1160E9684A
:1032B000641A298AB4FBF1F41C700020BDE8384080
:1032C000FFF73CBF10B5826804462AB14369016824
:1032D000006998470023A36010BD0EB403B503999D
:1032E00021B104AB01AA019300F074F802B05DF8BB
:1032F00004EB03B070470A2938B504460D4602D1E5
:103300000D21FFF7F8FFA3682268591CA160D5546E
:10331000D4E901329A4204D32046BDE83840FFF791
:10332000D1BF38BD2DE9F84F9946DDE90A4317466C
:10333000824688460A460126BA420FD24E4538BF19
:103340004E4613F0010B01D164B900240125B9F1F7
:10335000010F1AD909F1FF397D43F8E7B2FBF7F203
:103360000136E9E79B070ED5B9F1000F0CBF3025F8
:103370002025A642EAD2013C29465046FFF7BBFF72
:10338000002CF6D1E1E72025F3E7B8FBF5F39F42E7
:10339000E2D9DFF83C90B8FBF5F3504619F803107A
:1033A00005FB1388FFF7A7FFB5FBF7F3BD4207D274
:1033B000BBF1000F02D00CB1A64203D3BDE8F88FD9
:1033C0001D46E8E720215046013CFFF794FFF2E755
:1033D0005D9507002DE9F74F0546174688460029F9
:1033E00000F0318118F8011B49B92B7B002B00F04C
:1033F0002A81284603B0BDE8F04FFFF763BF2529B7
:1034000040F0C080002698F800302D2B424608F18D
:10341000010823D0302B24D02B2B25D000242A2B9D
:1034200002F1010123D13B681A1D3A601B680A466C
:103430001C4413782E2B26D101324FF0000A10467F
:1034400010F8011BA1F1300CBCF1090F1DD80A23A3
:1034500003FB0A13A3F1300A0246F0E746F0010627
:10346000D1E746F00206CEE746F00406CBE711F8B6
:10347000013CA3F130000928DBD80A2202FB043406
:10348000303C0A46CBE74FF0000A12F8011B01F06E
:10349000FB0068289046F8D069290ED04AD85829F0
:1034A00064D006D825296DD098F80030002B99D12A
:1034B0009BE7632962D06429F6D13A68111D39600F
:1034C000D2F8009089EAE972A2EBE9724FF0010BA1
:1034D000092A5BDCD34538BFD3462CB1B9F1000FC4
:1034E00001DB710700D5013CB20702D5BAF1000F2C
:1034F00004D0F30702D4002C4ED10024B9F1000F00
:1035000052DAC9F100092D212846FFF7F4FE06F032
:103510000302022A05D1BAF1000F02D1002C47D1D3
:103520000024CDE9004653460A2249462846FFF7C3
:10353000F9FEB9E773294CD014D87029B4D13B688F
:103540001A1D3A60302128461C68FFF7D4FE782106
:103550002846FFF7D0FE00220823CDE9003221469D
:103560001022E3E775292BD078299DD139680A1DEF
:103570003A60CDE900465346102228E03B681A1D08
:103580003A6019782846FFF7B6FE8DE70A230BF15B
:10359000010BB2FBF3F29BE7A345AFD220212846F3
:1035A000013CFFF7A8FEA6E77007B0D52B21ABE7DB
:1035B000A345B6D230212846013CFFF79CFEADE77B
:1035C0003968CDE900460A1D3A6053460A22096867
:1035D000ACE73B681A1D3A60F107D3F8009020D49D
:1035E000B9F1000F25D0484605F014FF0646B44255
:1035F00000D9C4B909F1FF3920E028460136FFF7A8
:103600007AFE19F806100029F7D1A642BFF44CAF94
:10361000002C3FF449AF20212846013CFFF76BFE08
:10362000F3E70026EDE720212846013CFFF763FE83
:10363000DDE74E46DBE72846FFF75DFE19F8011F80
:103640000029F8D130E703B0BDE8F08F01600B68C6
:103650001146184710B40468E468A4465DF8044BAA
:10366000604710B404682469A4465DF8044B6047C1
:1036700070B508B10368ABB90C4D0D4C0026641B46
:103680001423B4FBF3F4B44201D1002009E02B6809
:1036900013B901361435F6E7DB6928469847002848
:1036A000F7D070BDDB69BDE870401847982B00204B
:1036B000AC2B0020014B4360002070477C95070035
:1036C0000846704700207047024B1868003018BF4A
:1036D00001207047B03D002008B50248FFF7A1FD6A
:1036E000002008BDB03D002008B510461A4605F080
:1036F00073FE002008BD00002DE9F041804686B031
:1037000013480E4615461F46FFF782FD044630B1AA
:1037100011200EE006EB043000F0E8F90134A54278
:10372000F8D10B48FFF77DFDD8F8083000241BB90D
:10373000184606B0BDE8F081022268468DF80020E8
:10374000CDE90146CDE90345059798472046F0E7C6
:10375000B03D00202DE9F041804686B012480F466A
:1037600016461D46FFF754FD0446D8B9AA0831464F
:10377000384600F0E9F90C48FFF753FDD8F8083057
:103780001BB9184606B0BDE8F08101228DF8002073
:103790000C9A05926846CDE90147CDE90365984743
:1037A0002046EFE71120EDE7B03D00202DE9F0477E
:1037B000B0F806904479D2F800A09DF8208009FB6B
:1037C00004F4043C06460AEB0300A0420F4688BFFF
:1037D000A4EB030A191DC2F800A0B1FBF9F509FB1F
:1037E00015114DB9A9EB0104544528BF5446BAF14F
:1037F000000F04D1BDE8F0873668013DF1E70431E0
:103800007B1970182246B8F1000F0ED001461846F9
:10381000AAEB040A05F0E0FDD145254436684C4684
:103820004FF0000128BF5446E1E71946F0E7FFF7E3
:10383000FBBCF8B546790146721E0546002393424B
:103840002D6803D30024A64202D8F8BD0133F6E761
:103850000F682846FFF721FD01343946F3E72DE9CB
:10386000F843CD1C068A0746FFF7F5FC043E3544B5
:103870000446B5FBF6F5F0B14FF48073EDB28380EA
:10388000C680013D076081464FF00008A84512D26E
:103890003846FFF7E0FC064648B1637901336371AF
:1038A00008F10108C9F8000007608146EEE72046EC
:1038B000FFF7BFFF34462046BDE8F88301210430FE
:1038C000FFF790BC10B5012104460430FFF795FCCA
:1038D00010F0FF0F04D12046BDE81040FFF7A9BF4C
:1038E00010BD1FB503920022009203AAFFF75EFFEE
:1038F00005B05DF804FB1FB503920122009203AAF4
:10390000FFF754FF05B05DF804FB82680023936065
:1039100082681361826853618268D36082685360F1
:10392000826813607047000010B50D49A1F58C72D4
:10393000914201D800200FE08B1ADB1003EBD37308
:103940005B1002EBC30452F83330834205D802D235
:1039500004F10802ECE7606810BD2146E8E700BF0B
:10396000D496070008B5FFF7DFFF024B002808BF19
:10397000184608BDA8950700F0B578B371B36BB3CE
:1039800000241C600A44DB274FF0DC0C4FF0DD0EF6
:103990001C688A4204F1010500EB040604D11D6095
:1039A000C02333700020F0BD0E78C02E05D0DB2E72
:1039B0000CD01D600D78055506E01D6007551C688C
:1039C000651C1D6000F804C00131E1E71D6006556B
:1039D0001C68651C1D6000F804E0F5E70E20E2E7B6
:1039E00010B590B3D0E902239A4230D00478012C6C
:1039F00011D063B21BB1022C21D0112012E0C029DA
:103A000027D0DB2902D101230370F6E74368541C59
:103A100084609954F1E7DC2905D0DD290AD002231E
:103A200003700B2010BD511C43688160C021995464
:103A30000023E9E7511C81604368DB21F7E7C029D7
:103A4000DBD1002303708360D7E70E20EAE7042070
:103A5000E8E71846E6E700001FB503788DF8003068
:103A60004368019383688DF80830C3680393054A5F
:103A7000054B684653F8213052F82110984705B09D
:103A80005DF804FBB43D0020BC3D0020F0B50646C7
:103A90000F4B16F8047B43F827200E4B94460C4638
:103AA0000A6943F827200FCC89B06D460FC594E80A
:103AB0000F00BCF1000F85E80F00074A049708BF0C
:103AC00000226946304604F059FA09B0F0BD00BF43
:103AD000BC3D0020B43D0020593A0700024AD2F80C
:103AE0000034002BFBD0704700E001400A4908B5C4
:103AF0000223C1F80435BFF36F8FBFF34F8FC1F8B6
:103B00000805FFF7EBFF0023C1F80435BFF36F8F03
:103B1000BFF34F8F08BD00BF00E0014010B5094C56
:103B20000123C4F80435BFF36F8FBFF34F8F0160DB
:103B3000FFF7D4FF0023C4F80435BFF36F8FBFF342
:103B40004F8F10BD00E001400E4B10B50124C3F8AB
:103B50000445BFF36F8FBFF34F8F01EB8204401A10
:103B6000A14208D1074B0022C3F80425BFF36F8F91
:103B7000BFF34F8F10BD431851F8042B1A60FFF7A5
:103B8000ADFFEDE700E00140014B1B68184700BFA7
:103B9000C43D002038B50B4B98420D4601D00020A3
:103BA00038BD0020FFF7C8FA074B1C7914B9012271
:103BB0001D601A710020FFF7C1FA002CEFD0112010
:103BC000EEE700BF00200040C43D0020034B9842B8
:103BD00001BF034B00221A601A7170470020004099
:103BE000C43D002008B5072813D8DFE800F01322F1
:103BF0003112120412041E481E4B1F49C01AC0087D
:103C0000000440F00300FEF795FFFEF721FE0028B8
:103C1000FBD108BD1648174B1849C01AC00800044C
:103C200040F00300FEF786FFFEF712FE0028FBD1EE
:103C3000EFE70F480F4B1249C01AC008000440F0CC
:103C40000300FEF777FFFEF703FE0028FBD1E0E755
:103C50000748084B0B49C01AC008000440F0030095
:103C6000FEF768FFFEF7F4FD0028FBD1D1E700BFA7
:103C700024BC070014BC0700D69A0700E99A070085
:103C8000F49A07000C9B070008B5FFF721F8FEF730
:103C9000DFFD0028FBD10D4D642445F001054FF4F4
:103CA0007A40A847013CFAD1094B1B68DB0700D5D5
:103CB00000BEBFF34F8F0749074BCA6802F4E062AA
:103CC0001343CB60BFF34F8F00BFFDE7D09A0700CF
:103CD000F0ED00E000ED00E00400FA0508B5064A4A
:103CE000064B07499B1ADB081B04024643F0010000
:103CF000FEF724FFFFF7C8FF14BC070024BC070031
:103D0000AC9A070070B50320FFF736F900F0C4FE47
:103D1000002210464FF4805100F0CAFA024608B162
:103D2000FFF7DCFF1A4DC5F5FC21284600F0C0FA6C
:103D300001460028F4D11748174CFEF72BFDFEF77B
:103D400063FC164B1649E41AE408240444F0030605
:103D50003046FEF7EFFE2A4612493046FEF7EEFEE9
:103D6000FEF776FD0028FBD10F4800F061F900282E
:103D7000D6D1FEF76DFD0028FBD10C4944F00100BF
:103D8000FEF7D8FEFEF764FD0028FBD1C8E700BFB0
:103D9000002007002D46070024BC070014BC0700C4
:103DA000269B0700429B0700E53B07005E9B070040
:103DB0000369C1688B429DBF8268D21802F1FF324D
:103DC00003F1FF3394BF501A581A70472DE9F041A0
:103DD000D0E9027405463E1B40689642204488465E
:103DE000144404D905F0F8FAEC60BDE8F0813246DD
:103DF000E41B05F0F1FA224608EB06016868F1E7DA
:103E00002DE9F843C5680646894617464FF0000875
:103E10003469B3687068A54228BFE418013C621B8E
:103E20005C1BBC4228BF3C46944228BF144649460E
:103E30002844224605F0D0FAB3682544AB4208BFB7
:103E400000253F1BA044A144F560E1D14046BDE8F8
:103E5000F883000010B5114C114AA2610223C4E995
:103E60000433104BE361A2644FF480530E4A236283
:103E7000E264002310220D49A362E01D6362E36245
:103E8000A3656365E365226505F0BCFA0849204631
:103E900005F0B8FA2023A37110BD00BF7C5F00209D
:103EA000839B0700DC3D0020CC3D00208C9B07005D
:103EB000909B0700F8B5184C182300FB033503FB53
:103EC00000402544C46A012C0F46164611D024B187
:103ED000022C1BD000242046F8BD2846FFF768FFBF
:103EE000B042F8D3324639462846FFF76FFF3446D2
:103EF000F1E72846FFF75CFF8642344628BF0446B8
:103F0000224639462846FFF761FFE4E72846BDE828
:103F1000F840FFF775BF00BF7C5F0020FFF79ABF36
:103F2000014B01221A707047FC51002008B5FEF7C2
:103F3000CFFEFEF78DFC0028FBD1BFF34F8F054964
:103F4000054BCA6802F4E0621343CB60BFF34F8FA6
:103F500000BFFDE700ED00E00400FA0508B50948E0
:103F6000094B0A49C01AC008000440F00400FEF7DB
:103F7000E1FD074B074800221A70BDE8084002F037
:103F800037BA00BF24BC070014BC0700979B07008A
:103F9000FC5100202D3F070008B50748074B084992
:103FA000C01AC008000440F00300FEF7C3FDBDE8DE
:103FB0000840FFF7D3BF00BF24BC070014BC0700B4
:103FC000AD9B0700831E10B50446052B09D8DFE81A
:103FD00003F0120303080F0F09494FF4701000F0AB
:103FE000E5FA084B1B684BB12046BDE81040184766
:103FF000FFF7B4FFF5E702F0E1F8F2E710BD00BF0C
:10400000993F07000052002008B50648064B0749B3
:10401000C01AC008000440F00400FEF78BFD002029
:1040200008BD00BF24BC070014BC0700F59C0700B6
:10403000F8B56A4B6A4C6B49E41AE408240444F06E
:10404000040705463846FEF775FD674B674A1D6055
:104050004FF0A0430020C3F8082702F0DFF948B969
:1040600000F03EFC012800F0AE8041B221B10228F0
:1040700000F0B1800320F8BD4FF08043D3F8005426
:1040800015F4803547D04FF48032C3F800240D4634
:10409000574E336A012B51D0564944F00300FEF7C6
:1040A00049FD55493846FEF745FD4FF4701400F0C0
:1040B0004DFD524A20211820FEF776FF08B1FFF788
:1040C0000DFE4F4B1A6802F0F802B02A06D11A68AA
:1040D000D20742BF1A6802F04E021A60FFF794FF3F
:1040E0000028C7D12046474900F060FA464801F051
:1040F0005DFA0028BED145493846FEF71BFD00F0A9
:104100006BFDFEF7D5FFFEF7A3FB0028F7D120BF1C
:1041100040BF20BFF3E7D3F8202502F0F802A82A19
:104120000AD1D3F82025D00706D5D3F8202502F0F0
:104130005602C3F82025ABE70125A9E743F20403A3
:104140001A68334B9A420FD1726B1DB996F86032E0
:10415000012B09D04FF480512E4802F093FF18B97B
:104160002D4944F002009AE702F04CFAB269014688
:104170001DB996F8A132012B05D0284802F082FF24
:1041800008B92749EDE727493846FEF7D3FC4FF039
:10419000A043D3F81035590701D4234982E7184BBF
:1041A0001B6813F0B10F01D020497BE702F064F9DE
:1041B00000287FF45FAF1E4B18701E4802F018F9FC
:1041C00000F03CF801E0FFF7C9FE1B4944F0010094
:1041D000FEF7B0FC4EE74FF4A02468E714BC0700DC
:1041E00024BC0700C19B0700005200200C00030004
:1041F000F45F0020D89B0700769C0700DC4D002070
:104200001C050040993F0700C53F0700E59C0700DB
:10421000DBE5B15154620020069C07009562002046
:10422000419C0700699C0700999C0700B89C070007
:10423000FC510020213F0700D99C070070B5164BA8
:10424000164C174D1749E41AE408240444F00406F8
:104250004FF480523046FEF771FCD5F880201249A9
:104260003046FEF76BFC4FF0FF33C5F88030C5F8E1
:10427000803101F0BEFA20B10C4944F00100FEF794
:1042800059FCFEF7E5FA0028FBD14FF48050BDE859
:10429000704000F049B800BF14BC070024BC070000
:1042A00000E100E00F9D0700459D07006F9D07009E
:1042B000F0B5C1F30B048CBBB0F5FE2F2ED8184D12
:1042C000184F2B68002A18BF0626224608BF022670
:1042D0002C46072B05D902B123600420F0BD012232
:1042E000F7E71D0105F1804202F5F0323D44C2F8C6
:1042F0000008C2F80418C5F80868D2F800C860457C
:1043000003F10103EBD1D2F804289142E7D1D5F8AB
:1043100008289642E3D123600020DFE70720DDE78D
:104320000452002000E0014038B504462448002231
:10433000C0F50021FFF7BCFF054668B1214B2248BC
:104340002249C01AC008000440F001002A46FEF7C6
:10435000F5FB2846FFF7C2FC02F054F91C4B9969A3
:1043600001F6FF7121F47F61002221F00F01014469
:104370001046FFF79DFF054668B1124B12481549DC
:10438000C01AC008000440F001002A46FEF7D6FB20
:104390002846FFF7A3FCEFF305830023D4E90012BE
:1043A00083F3148883F3108883F3118883F31388CD
:1043B00081F308884FF0FF339E46104738BD00BF99
:1043C0000020070014BC070024BC0700A49D0700C0
:1043D000F45F0020DB9D070037B51E4B05461E48E5
:1043E000C01AC00800040C462A461C4940F00400CC
:1043F000FEF7A4FB1A4A6FF07F41D2F80435A142C0
:1044000028BF21460B44611A481E942896BF963156
:10441000696069602D7B144623F07F4305F5A8721F
:1044200098BF963B44F822300E4B4FF4F86043F0AF
:10443000010398470C4BAA00134400221A601B6822
:104440000193019B4FF48033AB40C4F8043303B0B5
:1044500030BD00BF14BC070024BC0700469E070007
:1044600000400240409E07004041024018490A783F
:1044700084B0002A29D14FF08043A020D3F818340B
:10448000DB035EBF134B01221A60134A0023136043
:1044900012680392039A114A136012680292029AF8
:1044A0000F4A136012680192019A0E4A82F824039F
:1044B000102050600C4A0D48C2F8083501230360F3
:1044C00002201360C2F804030B7004B0704700BFF1
:1044D0000C520020080000400041024040410240D0
:1044E0004441024000E100E0004002400840024038
:1044F0002DE9F743234B1A6842B123490A68013278
:104500000A6000221A601B680093009B1F4D204B1D
:10451000204C214EDFF88C80DFF88C901F4FED1A75
:10452000ED082D0445F004053368CBB1002333605A
:1045300033680193224641462846019BFEF7FEFA66
:10454000227B17494FF480339340C9F80833224641
:104550002846FEF7F3FA616851B12046FFF73CFFA9
:104560000436BE4204F11004DED103B0BDE8F0838E
:10457000A16811B12046FFF72FFF2368002BEFD071
:104580009847EDE7044102400852002024BC070090
:1045900014BC0700F42A0020404102404841024078
:1045A000219E07000F9E070000400240F8B5114B06
:1045B000114E044611483768C01AC00800043A4634
:1045C0000D4640F004000E49FEF7B8FA3A7B4FF46E
:1045D000803393400B4AC2F808334CB13668FFF77A
:1045E00045FF356021463046BDE8F840FFF7F4BE90
:1045F000F8BD00BF14BC0700142B002024BC07002A
:104600000F9E07000040024070B5074B1C680E4625
:10461000A0600546FFF72AFF266029462046BDE830
:104620007040FFF7D9BE00BF182B0020034A044B8F
:104630001068D3F8043503EB00607047085200207F
:1046400000400240014B01221A7070470D520020B9
:104650002DE9F341214BDA6A5F6A9D6CAC2A1FD1C8
:104660005B6B1D44FF1A1E4B1E4C1F4A1F490097CF
:10467000E41AE408240444F004082B464046FEF7FC
:1046800070FA3A462946184804F098FE064668B97A
:1046900017494046FEF74EFA304602B0BDE8F081B9
:1046A000002DE0D101F0C4FF0546DCE73B462A4679
:1046B00010494046FEF74BFAFEF7CAF80028FBD136
:1046C00000F08AFA3946284601F082F806460028AA
:1046D000E2D0094944F00100DCE700BFF45F0020AC
:1046E00014BC070024BC0700002007005C9E0700E4
:1046F000919E0700C89E0700F59E07002DE9F04F28
:10470000314B9046314A9B1A87B0DB081B04049357
:10471000814243F0040306468A46039308D12C499C
:104720001846FEF707FA0024204607B0BDE8F08FD0
:10473000AAEB06052D0B00F009FA082D28BF082565
:1047400008F6FF792B034FEA19390593B8F1000FEA
:1047500001D14446E8E74D452CBFCB46AB464FF070
:104760000002594630462CBF4746059F00F0EAFF3D
:1047700004460028D8D1334652461649039800977C
:10478000FEF7EFF9FA1C234622F0030251463046A9
:1047900000F09AFF04460028C6D10F4A136BA8EB1D
:1047A00007083E44BA441F44176301F027FEA9EBF3
:1047B0000B0904460028C9D0049B084943F00100B6
:1047C000FEF7B8F9B0E700BF24BC070014BC07002F
:1047D0000F9F07001E9F0700F45F00203F9F070008
:1047E0002DE9F04701F036FF344C354BDFF8ECA0F3
:1047F0003449DAF84850DAF83080DAF83460E41AEC
:10480000E408240444F0040781463846FEF792F990
:1048100042F20403EA5803F1A34303F5471303F2FA
:10482000D7539A4208D0284944F00100FEF782F994
:1048300003252846BDE8F087DAF83020B242154457
:1048400005D122493846FEF775F90025F1E7DAB9B6
:104850004FF4405338461B78142B81BF43F21403A6
:104860001A681B4BB2FBF3F205F500531B78142BAF
:1048700081BF42F214031649EB58B3FBF1F398BF22
:1048800000231449FEF763F9A6EB080202F6FF7253
:1048900022F47F62294622F00F0209EB0800FFF79D
:1048A0002DFF054628B10C4944F00100FEF742F9FE
:1048B000BFE7BDE8F04701F0A1BD00BF24BC070081
:1048C00014BC070045A107006AA107009EA10700CC
:1048D00040420F00B0A10700D9A10700F45F0020FB
:1048E0002DE9F047564B574C574F5849E41AE40806
:1048F000240444F004084046FEF71CF9FB6AA52B8B
:1049000079D009D8012B1FD044F003005049FEF79D
:1049100011F90020BDE8F087AA2B77D0AC2BF3D19A
:104920004C494046FEF706F94B494046FEF702F96E
:10493000FFF756FF0546002871D0484944F00100B2
:10494000FEF7F8F8012620E045494046FEF7F2F868
:104950007E6AD7F8489001F055FE3D6B414900EB67
:10496000050A4046FEF7E6F8396B49448A4514BF0C
:10497000721B00225046FFF7C1FE054668B13A4956
:1049800044F00100FEF7D6F80026FB6A37492A46B4
:1049900044F00100FEF7DBF812E001F033FE2A4696
:1049A0003146FEF7CDFBBA6A904281461CD13049B0
:1049B0004046FEF7BFF80123C7E90793BE612E46C4
:1049C0002C4801F0DFFD2C4B2C4800221A7001F01E
:1049D00015FD60BB96B33B6A012B2FD14046284999
:1049E000FEF7A8F8022095E70346264944F00100A7
:1049F000FEF7ADF8E3E724494046FEF79BF8FFF7E2
:104A0000EFFE01260546002DDAD0BEE71F494046DD
:104A1000FEF790F8FFF71CFE00260546F3E7FFF7C8
:104A200017FE054608B11A4988E70126C8E744F091
:104A300001001849FEF77EF803206BE7012069E7C3
:104A400014BC070024BC0700F45F0020789F070017
:104A500084A007002DA007003BA0070058A0070076
:104A6000999F0700A39F0700D9A107009DA00700F9
:104A7000BE9F0700186000200D5200204546070029
:104A8000CFA00700D39F07001BA0070024A00700AA
:104A90006EA007002BA1070008B540F6F870036868
:104AA000013302D10749FFF739F840F6FC7003687B
:104AB000013305D14FF4FC21BDE80840FFF72EB8C3
:104AC00008BD00BF002007000A4AD2F800347BB1BD
:104AD00009480023D2F80815D940C90748BF03F593
:104AE000C07103F1010348BF42F82100072BF1D147
:104AF000704700BF000001403546526E08B50748B8
:104B0000074B0849C01AC008000440F00300FEF734
:104B100011F8BDE80840FFF7D7BF00BF34BC07005D
:104B200014BC070063A2070007B5074B00221A60F8
:104B30001B680193019BFEF7CBF8FDF789FE002867
:104B4000FBD103B05DF804FB0001014070B5194EC4
:104B500033784BBB184C1949194B641AE408D3F845
:104B60000024240444F00304FAB1D3F80455154991
:104B70002A462046FDF7E2FF40F616539D42B8BF95
:104B80001D46A5F54865FFF79FFF2A460E492046BA
:104B9000FDF7D4FF0D492846FFF736FD0C4B4FF4C7
:104BA00080321A600123337070BD0A492046FDF738
:104BB000C1FFF7E70E52002034BC070014BC070009
:104BC00000000140F2A107000BA20700FD4A070008
:104BD00000E100E03DA20700034BD3F800340BB125
:104BE000FFF772BF704700BF000001400023C0E91B
:104BF0000232C0E900118B881A440261B1F9063013
:104C00001A4442610888003018BF0120704710B56F
:104C1000426811880346002939D002F11001416031
:104C2000148A2CB9C2680168FFF7E0FF204610BD66
:104C30009078118900F03004302C1BD1947C04F062
:104C40003004302C1DD190881969091A196100218E
:104C5000907810F0300F02BF986801309860908A09
:104C60000844196901441961B2F9162011445961C7
:104C70000120DCE700F0F004202C02D150894143F0
:104C8000E6E700F0C000802808BF0421E0E70846FE
:104C9000CDE770B5456804460E4663681A88B2428F
:104CA00004D19B7803F00F03082B07D12046FFF7B0
:104CB000AEFF6368AB42F0D1002070BD0120FCE77D
:104CC00043681A44426011B101399A4201D101206E
:104CD000704713F8010B01F8010FF6E770B5426851
:104CE000927802F00F01082986B003461FD10369AC
:104CF0001C6800260CB906B070BD236826739D6839
:104D0000626829466846FFF771FF6368049304F1FF
:104D10000C030593AB7803F0C003802B08BF231D61
:104D2000684608BF0493FFF7D9FFA468E2E712F0D2
:104D3000C00120D102F0300010280ED15A69117044
:104D40005A6818699378D46803F00F03072B09D1C8
:104D50000146204600F017F8CDE79006F0D55B69D4
:104D60001980C8E71289214614B104F035FBC2E767
:104D700004F040FBBFE78029BDD100690021920605
:104D80000160B8D5EBE77FB50A4601466846FFF7F4
:104D90002DFF30B16846FFF7A1FF6846FFF737FFE8
:104DA000F7E707B05DF804FB10B50122036804467D
:104DB000984710B1A368013BA36010BD2DE9F341F2
:104DC00083680746884623B90026304602B0BDE80E
:104DD000F0810DF10701FFF7E7FF06460028F3D049
:104DE0009DF80740220616D504F07F040725BB680E
:104DF000002BE9D00DF107013846FFF7D5FF002859
:104E0000E2D09DF8072002F07F03AB401C4313065D
:104E100005F1070502D4C8F80040D6E7232DE6D1F6
:104E2000D2E7000030B5044685B01546A9B902683E
:104E3000114B9A4211D0102D06D82A4669462046B9
:104E4000FFF7F0FF05B030BD102269462046FFF79E
:104E5000E9FF0028F6D0103DEDE7A368AB4201D290
:104E60000020EFE723682A46204698470028F7D01D
:104E7000A3685D1BA560E5E7C14C0700F7B50E46CA
:104E800001A907461546FFF799FFA8B1019A01232A
:104E9000D3184FF0000404D2B17801F0C00180298A
:104EA00001D1204608E031899942FAD32946384693
:104EB000FFF7B8FF019BEC5403B0F0BD73B50E468D
:104EC00001A905461446FFF779FFB8B1019BB3F578
:104ED000803F07D202229A1804D2B17801F0C001B3
:104EE000802901D1002009E031899142FAD321467D
:104EF0001A4621F8023B2846FFF794FF02B070BD26
:104F000010B5034C82600022C0E90041C26010BDB0
:104F1000C14C07002DE9F347002580460F462E4679
:104F20002C46D8F8083023B30DF107014046FFF7AF
:104F30003BFFF0B19DF807C00CF07F025FFA82F9E9
:104F4000A4F12003C4F1200109FA03F329FA01F1C5
:104F500009FA04F20B431CF0800F45EA020546EA09
:104F6000030604F1070402D1C7E9005602E0462C0B
:104F7000D7D1002002B0BDE8F08773B50C46694672
:104F80001646FFF7C7FF68B12389082B0CD1DDE96E
:104F90000045C6E90045DDE90023AB4206BFA24259
:104FA0000120002002B070BD042B04D1009B3360AF
:104FB0001C460025EFE7022B4FF0000004D1009BB8
:104FC00033809CB20546E6E7012BEBD1009B3370A2
:104FD00003F0FF04F6E737B50D4669461446FFF7C0
:104FE00099FF30B12A89082ADDE9003103D1C4E9EB
:104FF000003103B030BD042A18464FEAE37108D1EE
:1050000023601A460B468B4206BF824201200020D5
:10501000EFE7022A04D11BB223801AB2D317F2E7BA
:10502000012A03D15BB223705AB2F7E70020E0E710
:10503000F7B50C46002119702170116001A90746CF
:1050400015461E46FFF7BAFE30B9BB6813B90123F7
:105050003370002003B0F0BD01990029F7D0CB08D0
:1050600001F007012B602170F4E713B50446052910
:105070001FD8DFE801F0030F151E1E1C012201A935
:105080002046FFF7CFFE18B19DF90430002BF5DB69
:1050900002B010BD082200212046FFF7C3FEF7E74B
:1050A00001A9FFF78BFE0028F2D0019AF3E7042252
:1050B000F1E70020ECE773B50D4601A90446FFF7C0
:1050C0007DFE064618B90026304602B070BD94E851
:1050D0000F0085E80F0001998A42F4D3A960A36804
:1050E0005B1AA360F0E700002DE9F0435568AB7848
:1050F00013F0C00489B006468C46174603D0402CF6
:105100006AD000240AE003F00F025E4903F0300386
:10511000102B51F8228020D004D8CBB1204609B002
:10512000BDE8F083202B1ED0302BF7D17B69298876
:105130001980072A0AD17B6838691A89214604F048
:1051400059F97B683969D868FFF71DFE3A6940E074
:105150003A692946C0470446E0E77B6901221A7094
:105160003A697968F6E7BCF1020FD7F8149024D1B8
:10517000042A22D804A9FFF79EFF04460028C0D0C5
:10518000069B2BB17968B9F800304A899A4205D854
:10519000059B7360069B002BC0D0B2E708893A6973
:1051A00003FB002204A8C04728B1B9F8003001333E
:1051B000A9F80030E4E70446EAE7B9F800306A8964
:1051C0009A429ED93A692989581CA9F8000003FB24
:1051D000012279683046BDE7D2F81080454655F87F
:1051E000043B13B9FFF741FFB5E7022914D104A925
:1051F000FFF761FF002884D0D8F8003079682A468C
:1052000004A89847044600283FF47BAF069B002B78
:10521000F2D1059B736081E701292BD04CB24CB1D0
:1052200005297FF46EAF04220DEB0201FFF7FAFDB2
:10523000042424E00DF1040901340B2C3FF461AF88
:10524000012249463046FFF7EDFD00283FF459AFF3
:1052500019F9013B002BEFDB0B4B049301ABCDE9BC
:10526000053400230793D8F8003079682A4604A84B
:10527000984770E7082201A9FFF7D4FD0824002809
:10528000EAD13EE774A20700C14C07002DE9F04FB8
:1052900091B00446002604A8CDE90266FFF7A6FCFB
:1052A000A3683BBBDDE9053404A89D78FFF7AFFC9C
:1052B0000028F7D115F0300F03D1059B1B8803B1EF
:1052C0000134002C00F0A9806309002202A9934256
:1052D00040F09C8010AA02EB830304F01F04C4F189
:1052E00020044FF0FF3053F8383CE040C31A5842D6
:1052F00058410DE00DF1030301AA0DF10201204612
:10530000FFF796FE38B99DF80330002BCAD1002074
:1053100011B0BDE8F08F019904A8FFF7BAFC00288E
:1053200050D1019BB3427DD3059D059A937803F03C
:105330000F03082B7FD004A8FFF769FC059B9D4253
:10534000F3D14FF0FF36019FB7426BD3089B9DF816
:105350000290D4F808801D684FF0010AA368002D60
:105360005DD098459CD12B68D3F800B0BBF1000FFD
:1053700008D04B463A4629462046D8470028C6D092
:10538000AD68EBE7D3F808B0BBF800309F42F7D127
:105390006A6859460AA8FFF729FC6B680E9305F165
:1053A0000C030F939BF8023003F0C003802B04BF63
:1053B0002B1D0E930AAA85F80CA049462046FFF73C
:1053C00093FEDBE7059B9B7813F0300F0FD1069A15
:1053D0003F2A0CD8510910AB03EB810102F01F02E8
:1053E0000123934051F8382C134341F8383CE568C9
:1053F0002DB104AB9DF8022001992046A84704AACC
:105400009DF802102046FFF76FFE10E051F8225081
:1054100001357FF47DAF013259E7012078E79845E7
:105420007FF43EAF9DF802102046FFF71EFE0028D5
:105430007FF436AF6BE7168885E770B50C460646F5
:10544000154611462046FFF79EFC2A462146304667
:10545000BDE87040FFF71ABFF0B585B00C46CD68C7
:10546000694607461646FFF726FE68B1E06858B160
:10547000A37803F03003202B32462946684605D135
:10548000FFF7DBFF019B7B6005B0F0BDFFF7FEFE81
:10549000F8E7D3B50C466946FFF73CFD80B1DDE97E
:1054A000001300274A0801F0010642EAC37256EAD7
:1054B00007014FEA53031CBFD243DB43C4E9002377
:1054C00002B0D0BD37B50D4669461446FFF7E1FF7F
:1054D00068B12B89082B0CD1DDE90001C4E900017A
:1054E000DDE900238B4206BF82420120002003B089
:1054F00030BD042B03D100982060C117F0E7022BC8
:1055000004D1BDF90000208000B2F6E7012B04D1E0
:105510009DF90000207040B2EFE70020E7E713B5E7
:1055200004220C460DEB0201FFF77CFC08B1019B45
:10553000236002B010BD1146FFF7F1BF13B508227A
:105540000C466946FFF76EFC18B1DDE90023C4E99B
:10555000002302B010BD1146FFF7F0BF10B513686D
:105560001F2B144607D90022083002F0ABFB08B904
:105570002023236010BD48F21450FBE7083002F0EE
:105580007DBB083002F04ABB831F012B10B50446D7
:1055900002D8002000F0BCFF034B1B681BB1204663
:1055A000BDE81040184710BD1052002038B5104B10
:1055B000104C1860104B1149E41AE408240444F01C
:1055C0000300FDF7B7FA0020FFF7DEFF0C4800F0FC
:1055D00067FF054620B90A48BDE8384000F060BCC6
:1055E0000246084944F00100FDF7A8FA284638BDF4
:1055F0001052002024BC070014BC070064A407005C
:105600008955070077A4070030B51A490B6885B0A3
:1056100004460BB1013B0B601748184A63682578B4
:10562000801AC008000440F004008BB90B68144ACB
:1056300014490093012D08BF0A46A3681249FDF7DB
:1056400090FA63699BB1E06805B0BDE83040184747
:105650000A68029222690192A26800920949084AE6
:10566000012D08BF0A460949FDF795FAE9E705B09B
:1056700030BD00BF145200203CBC070014BC070022
:10568000A7A40700A1A40700ADA40700D3A40700A6
:1056900008B50848084B0949C01AC008000440F082
:1056A0000400FDF747FA002205490648BDE8084016
:1056B000FDF7CCBF3CBC070014BC070079A5070070
:1056C00088950700982B00202DE9F7439846174C42
:1056D000174BDFF86C90E41AE408D9F80030240482
:1056E0000546CDE900230E460B46174611490246F2
:1056F00044F00400FDF741FA2946CDF800803B460E
:1057000032460D48FDF7A6FF054640B9D9F80030EE
:105710000133C9F80030284603B0BDE8F0830246E3
:10572000064944F00200FDF709FAF4E73CBC070023
:1057300014BC0700A1A50700982B0020E4A50700D2
:10574000145200202DE9F341134B144C144EE41A6B
:10575000E40833680093240405460B460F46904640
:105760001049024644F00400FDF7FBF92946434680
:105770003A460D48FDF775FF054630B933680133E9
:105780003360284602B0BDE8F0810246074944F084
:105790000200FDF7D3F9F4E714BC07003CBC070096
:1057A000145200200FA50700982B00204CA50700DD
:1057B000014B18700B20704718520020024B00223A
:1057C00018781A70704700BF1852002018DF704711
:1057D00030B585B0054610220C466846002103F01E
:1057E00009FEA408684601950294FFF7EFFF05B093
:1057F00030BD1FB5062100234FF480526846CDE925
:105800000012CDE90233FFF7E1FF072802BF4FF096
:10581000005118460A6005B05DF804FB084B0948C2
:105820000949C01A10B5C008000440F00400FDF793
:1058300081F9064B06201B68BDE81040184700BFE1
:1058400014BC070044BC070084AB070024520020AE
:105850000A2803D90B38C0B2FFF7AABF704700006F
:1058600070B5054686B00020FDF702FF014690B1F5
:10587000244A18212846FDF7BBFB024648B12248BE
:10588000224B23491B1ADB081B0443F00100FDF7E0
:1058900055F906B070BD1822684603F0ABFD04232D
:1058A0008DF80030194C184B1A4EE41A1A4B1A6D29
:1058B0003368E40824049A4244F004041AD11749D6
:1058C0002046FDF737F9164B3168186801F0D4FD12
:1058D0008DF80100FFF7BCFFD5E901138DF8010039
:1058E000684698470F4800F089FD9DF801200E4951
:1058F0002046CCE701238DF801306846D5E9011335
:105900009847F2E76158070014BC070044BC070041
:1059100004AB07001C520020F45F00202DAB0700F1
:10592000205200201D5807005CAB07002DE9F04114
:1059300088B00446162200210DF10A0003F05AFD3A
:10594000B54EB64922788DF80820761AF60801235C
:1059500036048DF8093046F004051F460C2A00F283
:105960005282DFE812F00D00B300A500B300B300CF
:105970005002B3009D00B300950026003D00AA0030
:10598000A7492846FDF7D6F88DF80C709DF8092038
:10599000A4492846FDF7D2F8D4E9011302A8984794
:1059A0009DF80930012B00F01C829F4B05201B68DD
:1059B00016E29E492846FDF7BDF84FF08053D3F814
:1059C00000210392D3F804210492D3F80C2192020F
:1059D0000692D3F81021920205921B690793D5E72E
:1059E0009349944E2846FDF7A5F8227C9249284613
:1059F000FDF7A4F843F20403326A1B688F498B4217
:105A000014BF01230223012A4FF001028DF809205F
:105A1000227C08BF013352B902238DF80C30F368A1
:105A20000493874B0593C3F5FC230693AEE7012A45
:105A300017D143F204000068884212D100234FF4CA
:105A400040528DF80C301278142A84BF43F21403AC
:105A50001B6804934FF48053059343F208031B68BB
:105A6000E3E79A4209D201238DF80C30B36804931E
:105A700000F0EEFDB3690590D7E772492846FDF7BF
:105A800059F8FF238DF80C300023CDE90433CCE71F
:105A90006D492846FDF74EF8237C8DF80C3075E7EC
:105AA0006A492846FDF746F8238AADF80C306DE7C1
:105AB00067492846FDF73EF868E728466549FDF73F
:105AC00039F8594B07201B6898475FE7062A624F51
:105AD00001D0012A01D123693B703B78012B09D009
:105AE000022B72D05D4946F00100FDF723F8002338
:105AF0003B700BE1013A072A3FF648AF01A353F888
:105B000022F000BF255B07008D590700455B0700A9
:105B1000895B07008D590700BB5B07008D590700A3
:105B2000595B07004E492846FDF704F83E4B032019
:105B30001B689847606901F07BF9FFF789FE8DF8D3
:105B4000090023E747492846FCF7F4FF394BDA6B95
:105B50001B6C0392049319E743492846FCF7EAFFBC
:105B6000A18A206901F07CF9FFF772FE314B8DF8B4
:105B70000900DA6B1B6C0493E3680392002B3FF47B
:105B800005AF2069984701E738492846FCF7D2FF5E
:105B90003749384801F0E8F9FFF75AFE01288DF837
:105BA00009007FF4F3AE002000F028FC08B9324968
:105BB0007FE70A238DF80930E8E630492846FCF7EC
:105BC000B9FF4FF400730593C0E7013A072A3FF687
:105BD000DDAE01A353F822F0F95B07008D590700F1
:105BE0008B5D0700A95D07008D590700E95D07007F
:105BF0008D590700235D070021492846FCF79AFFCD
:105C000001F05EF900283FD11E4946F00100FCF783
:105C100091FF0823CEE700BF44BC070014BC070077
:105C20003BA607005CAB0700245200205EA60700DD
:105C300081A60700F45F0020A4A60700DBE5B151B0
:105C400000200700C1A60700D8A60700EFA607009E
:105C500009A707002DA707001C2B0020C5AA0700D5
:105C600045A707006FA7070093A70700BCA7070079
:105C70001C52002020520020E7A707000CA80700B4
:105C800036A807005DA80700626932B9614946F08D
:105C90000100FCF74FFF03238CE7C2F30B0343B172
:105CA0005D4B5E495B6D096813448B4201D05C49D2
:105CB000EDE7B2F5805F06D95A4946F00100FCF7DE
:105CC00039FF042376E7544F54497B6D0968D01897
:105CD000884206D9009146F001005349FCF741FF84
:105CE00097E77A64FA6CBA643B65504A3B63616932
:105CF000106801F6FF710022090B1844FFF722FD1E
:105D000030B14B4946F00100FCF714FF052351E781
:105D1000BB6C00933B6D7A6C46492846FCF721FF2B
:105D200034E645492846FCF705FF01F0C9F800288C
:105D30003FF46FAF384FA18AD7E914329B1A7A6CBF
:105D40000B44934201D93D49A1E7384A3B6B1268A5
:105D5000206903EB020807F14802FDF7F1F9E36857
:105D6000A28A216906464046FFF7AEFC08B1E36807
:105D700007E7A28A3B6B049613443B63A38A3A6D00
:105D8000BE6413443B65039300E6234E2C4928462A
:105D9000FCF7D0FEB36C326D2A492846FCF7D7FEDB
:105DA000B36C0493336DEEE728462749FCF7C2FE37
:105DB0001948D0E91473426CFB1A934205D0234969
:105DC00046F00100FCF7C3FE23E7836CC3640021A7
:105DD000416447652046FFF743FD1D4B1B680420C7
:105DE000984708B0BDE8F0811A492846FCF7A2FEA2
:105DF000094B4FF480519A6C1B6D059100910492F0
:105E00000393154989E7154946F00300FCF796FE10
:105E10000223CFE692A80700F45F00201C52002066
:105E2000ABA80700CCA80700F0A80700205200206C
:105E300061A9070078A90700B3A90700D9A907003D
:105E4000F0A9070011AA070027AA07004FAA070018
:105E50002452002073AA07009AAA0700E5AA0700A7
:105E600010B583688BB10A4A1821FDF7C1F80446C2
:105E700048B10848084B0949C01AC008000440F05E
:105E80000200FCF757FE204610BD0724FBE700BFC9
:105E90002D59070044BC070014BC07001FA60700CB
:105EA00038B50546C0B10020FFF7F2FB044648B9FB
:105EB00000F0B0FF01F004F830B9084B00201D607D
:105EC000FFF776FC204638BD0549064801F04CF83E
:105ED0000128F2D00324F5E70724F3E72452002039
:105EE0001C52002020520020011F0148FDF7D5B9A7
:105EF00090BC070013B5074C01AB0A46014620468B
:105F0000FDF73AFD9DF804200348214602F09AF976
:105F100002B010BDC7530020242B002010B5064C42
:105F200023783BB1054B984204D0054802F01CF998
:105F300000232370002010BD285200200CBC070055
:105F4000242B00202DE9F047364B1A7888B0044600
:105F50009846002A64D1344B344E3549354DF61AF3
:105F6000F608360446F0040A5046FCF7E3FD3248D2
:105F70002C60FDF759F9A9460446002833D12E4874
:105F80002E4F2F4DFDF767F92E4B83220330C3E9C7
:105F90000104DA601C702C4B7B602C4BC7E9023289
:105FA0002B4B3B612B4B7B610FCD6C460FC495E8AF
:105FB0000F0084E80F0025221D23CDE900231721BF
:105FC0001F23CDE902130125234A24488DF81450DC
:105FD00069460497FDF75AFD044640B1204946EA58
:105FE0000500FCF7A7FD204608B0BDE8F0872A466B
:105FF0001C491D4802F072F9044620B11B4946F0C5
:106000000100FCF797FD50461949FCF793FDD9F8BC
:106010000030012088F80000002BE4D09847E2E728
:106020000024E0E72852002014BC070054BC0700FD
:1060300000AC07002C52002090BC0700FC5300204D
:10604000CCAB070014540020F55E0700E95E0700A2
:10605000E05300200CBC070075600700202B0020D7
:106060001CAC0700F8530020242B002035AC07009F
:106070004CAC070070B50378012B0D4602D0022B03
:1060800033D070BD037A1BB343681A481978FDF703
:10609000A7FC064601221849184802F01FF9002EF5
:1060A000EFD1144C2846D4E9011201F08FFB1448BB
:1060B000FDF7D1F8134B144A9B1ADB081B04054665
:1060C00040B9124943F00100BDE87040FCF732BD11
:1060D0000D26DFE702460E4943F003000335FCF7C7
:1060E0002DFDC4E901562670CBE7C068BDE87040BD
:1060F000FDF7F4BD14540020F8530020242B002099
:1061000090BC070054BC070014BC070072AC070029
:106110008CAC07002DE9F04716464FF460721F461D
:10612000054688461E4C03F049F91E4BE41AE40864
:10613000240444F0040A814650B91B495046FCF738
:10614000F9FC16B90020BDE8F0874846B047F9E7EA
:1061500016495046FCF7EEFC2A4615495046FCF716
:10616000EDFC002201212846FFF7ECFA30B111497D
:1061700044F00100FCF7DEFC0320E4E74FF460721A
:106180004146384603F028F933464FF460723946E9
:106190002846FFF799FA0028D4D00749E8E700BF5E
:1061A0005CBC070014BC0700D1AE07001BAF0700A2
:1061B0002FAF07004FAF070072AF07002DE9F04780
:1061C000554C2368013379D000225821201DFCF75B
:1061D000B7FFD4F800A0AAEB0002D2F1000A4AEB04
:1061E000020A4E4F4E4C3E68DFF864913368DFF888
:1061F0003881013300F08A8000225821301DFCF7DD
:106200009FFF336883425CD17568012D0AD000225C
:10621000C32106F51870FCF793FFD6F85C522B1AD1
:106220005D425D41BAF1000F4DD0A4EB0906F608BE
:10623000360446F004063B493046FCF77BFC4FF43D
:1062400060723549384803F0C7F885B137493046A0
:10625000FCF770FC396836485422043103F0BCF86E
:106260003968344840F2C7225C3103F0B5F8D8F8F9
:106270000450012D48D1A4EB0900C00800042E49A8
:1062800040F00300FCF756FC2C49402201F2C710F5
:1062900003F0A2F82A491C2201F2C71003F09CF86F
:1062A000284988F8A1520023042201F2862088F8A8
:1062B000603288F8E23203F08FF822E04FF0000AF3
:1062C0008FE70025AEE76DB1A4EB0900C00800041C
:1062D0001D4940F00300FCF72DFC4FF46072396853
:1062E0001148C2E7A4EB0900C0080004174940F0B8
:1062F0000200FCF71FFC4FF4607200210A4803F013
:1063000079F80223C8F80430BDE8F087BAF1000F2D
:10631000E8D0002589E700BF00F007002C2B002003
:106320005CBC070042AD0700F45F002057AD0700DA
:10633000F85F0020506000203EAE07005061002052
:10634000906100201060002081AD0700DAAD0700E9
:1063500014BC070070B50D4C06460022582120469B
:10636000FCF7EEFE002244F8040CC32104F517707C
:10637000FCF7E6FE251FC4F8580232462946044BB6
:106380000448BDE87040FFF7C5BE00BFF85F0020BD
:106390002454002000F00700F8B50F4B0F4C104DAF
:1063A000E41AE408240407460E462A680D4944F01E
:1063B0000300FCF7C3FB3A460B4B28683146FFF756
:1063C000A9FE024630B144F001000849BDE8F8409A
:1063D000FCF7B4BBF8BD00BF14BC07005CBC0700F1
:1063E0002C2B00206AAE0700A457002094AE0700B3
:1063F0000149FFF7D1BF00BF00F0070038B50546DF
:106400000020FFF7A7FF044618B903492846FFF705
:10641000C3FF204638BD00BFF45F002038B5114BE4
:10642000114C1249E41AE4082404054644F004001F
:10643000FCF780FB2846FFF72BF9054638B10C49DD
:10644000024644F00100FCF779FB032038BDFFF75A
:10645000B5FE2846FFF7D2FF0028F7D002460549CF
:10646000EFE700BF14BC07005CBC0700BAAC070034
:10647000DDAC070008AD070008B50648064B074924
:10648000C01AC008000440F00200FCF753FB0020D3
:1064900008BD00BF5CBC070014BC0700A0AC07002F
:1064A0002DE9F843144B154CDFF86090144D154955
:1064B000E41AE408A5EB09052404ED0844F00404FB
:1064C00007462A462046FCF739FB0026AE4202D199
:1064D0004FF000080BE059F83630384698478046B0
:1064E00040B10346324608492046FCF730FB40469F
:1064F000BDE8F8830136E9E714BC070024BC0700B7
:1065000014BC0700F9AF07001DB007000CBC070062
:106510002DE9F843154B164CDFF86490154D1649DC
:10652000E41AE408A5EB09052404ED0844F004048A
:1065300007462A462046FCF701FB002609F104091C
:10654000AE4202D14FF000080BE059F83630384621
:106550009847804640B10346324608492046FCF73A
:10656000F6FA4046BDE8F8830136E9E714BC0700B7
:1065700024BC070014BC0700AAAF0700CFAF070078
:106580000CBC070008B50C22002102F033FF024BBF
:1065900000221A6308BD00BFF45F002008B543F273
:1065A0000400124B02689A421ED1002304221049B3
:1065B000FFF78AF858B10F4B0F481049C01AC008AE
:1065C000000440F00100BDE80840FCF7B3BA0C4BF2
:1065D0001A6A43F20801012A08BF18629A69096819
:1065E0000A44A2F580529A6108BD00BFDBE5B151B3
:1065F0004CB0070014BC070024BC0700D0B1070052
:10660000F45F002043F204031A68084B9A4201BF6A
:1066100043F20803186800F6FF7020F47F600CBF97
:1066200020F00F004FF48050704700BFDBE5B15100
:1066300008B5FFF7E7FF054B9B69184400F6FF70AC
:1066400020F47F6020F00F0008BD00BFF45F002041
:10665000FFF7D8BF4FF48050704700002DE9F04F8E
:1066600089B0804601920593664A674B04919B1A54
:10667000DB081B0443F00404644902932046FCF742
:1066800059FA42466249634E634D644F2046FCF717
:1066900055FA049B6249002B0CBF32462A4620461D
:1066A000FCF74CFA019B5F49002B0CBF32462A468F
:1066B0002046FCF743FA059B5B49002B0CBF324692
:1066C0002A462046FCF73AFA43F2040357491A686F
:1066D000574B20469A4214BF32462A46FCF72EFA00
:1066E00054492046FCF726FABB693A6A52492046CB
:1066F000FCF72DFA7B6AFA6A50492046FCF727FA24
:106700004FF000090697B346AA465FFA89F6012EB4
:1067100045D0022E52D0FFF78BFF019A0346002A84
:106720003BD0069A156A6A1E55425541444F07935D
:10673000FF1A049B4349474538BF01234A46204678
:106740000393FCF7FBF9079B3F491A462046FCF7E9
:10675000F5F947452CBF5A4652463C492046FCF7BE
:10676000EDF9002D0CBF5A46524639492046FCF738
:10677000E5F9039B3749002B0CBF5A465246204689
:10678000FCF7DCF9039BEBB1E5B909F10109B9F1BB
:10679000030FBAD1474523D216E0019DC6E7FFF7A4
:1067A00031FF059A03463AB943F204021568204ABC
:1067B000AD1A18BF0125B9E73546B7E701254FF4F3
:1067C0008053B3E7474509D2029B234943F00200B7
:1067D000FCF7B0F9042009B0BDE8F08F022E0DD10E
:1067E0001E492046FCF7A6F9FFF7D8FE20461C49B3
:1067F000FCF7A0F91B48FFF7C5FE01E0002EF5D11C
:106800000020E8E714BC070024BC070050B00700D4
:106810006EB0070088B0070083B00700F45F002067
:106820008EB007009FB00700ADB00700C2B00700F0
:10683000DBE5B151D2B00700E1B0070001B10700BC
:1068400000F0060021B107002BB1070040B107009E
:1068500055B1070068B1070079B10700A5B107007D
:10686000BEB107000C60002010B5084C4FF4007258
:10687000FF21204602F0BEFD20220021A4F12400C9
:1068800002F0B8FD002344F82C3C10BD50600020FD
:106890002DE9F04F4049414E8A6B414DDFF8289178
:1068A000DFF828A1DFF828B185B06F465C313846A3
:1068B000FEF726FB97E80F004FF0000886E80F0070
:1068C000384BF3604FF447724146284689F8008000
:1068D000CAF80080CBF8008002F08CFD2A463249CD
:1068E0003046FEF7AAFD044650B93048304B3149D6
:1068F000C01AC008000440F00100FCF71BF914E0C6
:1069000099F80090B9F1000F04D095F86C312C780B
:10691000A3B374B1264B25482749C01AC008000408
:1069200040F00100FCF706F90024204605B0BDE860
:10693000F08F95F87241002CF7D0DBF80020DAF8E0
:1069400000103846FEF7DCFA97E80F0086E80F00E3
:106950004FF4B272414605F5BA7002F04BFD05F5F1
:10696000BA7216493046FEF768FD044680B90F48F2
:106970000F4B1349C01AC0080004BCE7002CD4D048
:10698000AC79002CD1D008350E4B4C461D60CCE7BD
:1069900005F5BA75F8E700BFF45F0020705E0020CF
:1069A000545B0020616A0700F4A3070064BC070081
:1069B00014BC0700C6B60700F3B6070040A30700E3
:1069C00012B707002C5F0020505B00204C5B0020BA
:1069D000485B002010B590F8553013F0FB0F08D13C
:1069E00090F864202AB1846E74B30C6001242046B0
:1069F00010BD13F0010403D090F8564004B1846D2B
:106A00009B07F1D590F85C30002BEDD00F4B026E58
:106A1000C3F5FC239A4201D81444E5E70C490D481C
:106A2000401AC00800040C4940F00100FCF78FF840
:106A30000424074B07480949C01AC008000440F065
:106A40000100FCF777F8D2E70F24F2E700200700F7
:106A500014BC070064BC070061B707007EB70700DD
:106A600030B45B68DA68134B9A4208D1124C226842
:106A700012B912490A6822B1114B00221A7030BCB7
:106A80007047D0E90132981813F9015B002DA0EB93
:106A90000302F9DB23600A4B0A60012119700948DF
:106AA000094B0A49C01AC008000440F0040030BC79
:106AB000FCF744B840A307004C5B0020485B002073
:106AC000505B002064BC070014BC0700D5B407006D
:106AD00000B591B000F0BAFF68462022074900F0E7
:106AE000E8FF6A4640230649064800F007FF064BC8
:106AF00001221A7011B05DF804FB00BF6C9A070008
:106B0000805E002034BA0700245B00202DE9F043AA
:106B1000ABB006460F4690461C4678222023002143
:106B20000CA8039302F066FC294B1B780BB9FFF706
:106B3000CFFF2CB13146202204A800F0AFFF04AEF5
:106B4000244B254C2549DFF8AC90E41AE4082404D2
:106B500044F0040543463A462846FBF7F8FF03ABEA
:106B600001933A46CDF8009043461D490CA800F029
:106B700053FF024640B144F001001A49FBF7DEFF23
:106B800000202BB0BDE8F08320223146484602F0B9
:106B900015FCD8B1144944F00200FBF7CBFF1349B0
:106BA0002846FBF7C7FF202231462846FCF704F8A9
:106BB0000F492846FBF7BEFF202249462846FBF72F
:106BC000FBFFFBF745FE0028FBD1DAE70120D8E701
:106BD000245B002014BC070064BC0700B2B20700AD
:106BE00098A20700E5B2070016B3070030B307000C
:106BF00042B30700255B002013B543F204031A6873
:106C0000224B9A423FD042F204014458E11A4C42CE
:106C10004C419A4234D142F20403C35893422FD1DB
:106C20004FF440531B78142B81BF43F21403184ACE
:106C30001B68B3FBF2F300F5005298BF00231278F3
:106C4000142A82BF42F2140211498258114888BFA7
:106C5000B2FBF1F21049A0EB010098BF00220F49EE
:106C60000092C00893424FEA00400D4A40F00300F2
:106C700018BF0A460B4914BF01240024FBF771FF1B
:106C8000204602B010BD0024C3E700BFDBE5B151D0
:106C900040420F0064BC070014BC070043B2070069
:106CA00049B207004FB207002DE9F043A3B0814677
:106CB0000F461646984678222023002104A8029306
:106CC00002F098FB00230393404B1B780BB9FFF7AE
:106CD000FFFE3F4C3F4B4049E41AE408240444F0D3
:106CE00003052846FBF726FF47B944F002003B495D
:106CF000FBF720FF132023B0BDE8F083B9F1000FAC
:106D000005D028463649FBF715FF1620F3E72A9AE7
:106D10003449DFF8F8902846FBF710FF02AB0193E7
:106D2000CDF800902A9B3049424604A800F074FE3A
:106D3000002849D1402E47D1DFF8D4803246394669
:106D4000404602F049FB29492846FBF7F3FE202183
:106D5000404600F0BAFE4A46CDE90086029B24492F
:106D600003A800F0E7FD024640B344F001002149CA
:106D700044F00404FBF7E2FE1F492046FBF7DAFE6D
:106D8000324641462046FBF717FF1C492046FBF7D9
:106D9000D1FEBDF8082049462046FBF70DFF1849F3
:106DA0002046FBF7C7FE324616492046FBF704FF94
:106DB000FBF74EFD0028FBD105209CE72846124931
:106DC000FBF7B8FE012096E70A2094E7245B002039
:106DD00064BC070014BC070008B4070030B4070007
:106DE00044B407005BB4070098A2070076B407001C
:106DF000805E002087B40700A9B40700B4B4070080
:106E0000BAB407006C9A0700C6B40700C85E002039
:106E1000E85E002008B5044B986B08B1FFF738FD19
:106E2000024B187008BD00BFF45F0020285F0020EF
:106E300010B5044658B1B0F5007F0AD8064B0022C1
:106E40001A70FFF711FD054B01209C6310BD032054
:106E5000FCE70420FAE700BF285F0020F45F002071
:106E600070B5134C0646E06BA36B42189A420D4670
:106E70000BD9104B10481149C01AC008000440F04B
:106E80000100FBF757FE032070BD5C300A4620442A
:106E9000314602F0A1FAE36B04F140022B4429468B
:106EA0003046E363FCF74CF920640120ECE700BFB7
:106EB000F45F002014BC070064BC070052B3070055
:106EC000014B1878704700BF285F002037B51F4C72
:106ED00094F86C215AB394F8D802B4F8DA2204F585
:106EE000377104F5B87494F85930022B23D8201D5B
:106EF00000F0C6FA0128054616D0154B154C164968
:106F0000E41AE408240444F0020044F00404FBF70B
:106F100011FE12492046FBF70DFE114B1A88114B4A
:106F200020461968FBF748FE284603B030BD1146DD
:106F300010460434D7E70A4B1B680093094B1B68C3
:106F4000FFF7B2FE01280546D7D1D0E7545B0020F9
:106F500014BC070064BC0700E4B30700FAB30700E1
:106F6000485B00204C5B00202DE9F0413A4BD3E90F
:106F70000E329A4207460C460DD0384B38483949F4
:106F8000C01AC008000440F00100FBF7D3FD08253B
:106F90002846BDE8F081344E96F80080B8F1000F25
:106FA00009D0FFF745FB314B386021461868BDE832
:106FB000F041FFF70FBDFFF76BFC00283FD0FFF754
:106FC00085FF0128C7F800800546C4F8008027D156
:106FD000DFF898802146D8F80000FFF7FBFC012875
:106FE00005461DD1D8F80020206892F85510138A64
:106FF00001298CBF002101211BB15369003318BF47
:1070000001230022FFF72AFB154C144BE41AE40875
:10701000240440B1164944F00100FBF78BFD042520
:10702000FFF722FCB4E7FFF703FB12493860024682
:1070300044F00400FBF782FD01233370A8E7074BFF
:1070400007480D49C01AC008000440F00100FBF7D2
:1070500071FD05259CE700BFF45F002014BC07000C
:1070600064BC070075B30700285F00202C5F002078
:1070700090B30700ABB30700C7B30700012372301A
:10708000FFF744BD37B503780C461146032B03D8F0
:10709000DFE803F018051A23002003B030BDD0F854
:1070A000015000222046FCF74BF885420AD01048D8
:1070B000104B1149C01AC0080004012240F004001E
:1070C000FBF73CFD0120E8E70A460023214601309A
:1070D00003B0BDE83040FFF719BD00912346411CC5
:1070E00040220020FFF7E0FD431E58425841D4E7FC
:1070F00064BC070014BC07008FB207002DE9F04103
:10710000A2B004460E46174600217822984604A8ED
:10711000202303939DF8A05002F06CF94122002136
:10712000204602F067F9B6F894300BB196F8965005
:107130002570032D35D8DFE805F009020F2C002259
:1071400041463846FBF7FCFFC4F801004246394689
:107150002046FFF797FF19E003AB0193631C0093F0
:107160003A464346144904A800F056FC0028EDD0E6
:10717000FCF7F8FB114A124B12499B1ADB081B045F
:10718000024643F00100FBF7D9FC002022B0BDE825
:10719000F081B6F8982006F19A01601C02F01CF903
:1071A000D4E70748054B0849C01AC00800042A461E
:1071B00040F00100E7E700BF98A2070014BC0700F9
:1071C00064BC0700F1B1070022B207002DE9F043CB
:1071D0009B4B1C68A5B00546884617460A460146E3
:1071E0002046FFF74BFF002800F0258194F85560FA
:1071F000002E44D14FF00109CDF8009043462A46B5
:10720000214613A8FFF77AFF58B9002F00F0038139
:1072100005248C48FFF7B6F9FFF726FB8A4B9D64DF
:10722000FCE0002F00F00381412213A98748864F1C
:1072300002F0D2F8864B87488749C7F82C90C01ACD
:10724000C008000440F00400FBF774FC3E62238A8F
:107250000BB163690BB9FFF7A1F994F8923013B140
:1072600094F893300BB96368BB600022414628460E
:10727000FBF766FF744B0124C3E90980CCE7412288
:10728000002102A802F0B6F806F00109412200210F
:1072900013A806F0020602F0ADF8B9F1000F00F0F5
:1072A000B38042F20403E95803F1A34303F5471303
:1072B00003F2D753994213D06648654B6749C01A09
:1072C000C008000440F00100FBF734FC002F00F080
:1072D000A280FFF7BFF9A8429AD1FFF75FF997E7BD
:1072E000A36D03F5FF5203F6FF731F32C3F30B03C5
:1072F000D31A42F20802AA589A4206D25548544B71
:107300005749C01AC0080004DCE743F204031B68B5
:107310008B421AD14FF440531B78102B8ABF43F293
:10732000100300221A6805F500531B78102B8ABF42
:1073300042F210030023EB589A4206D04548444BD2
:107340004849C01AC0080004BCE72846FFF754FCAF
:1073500048B140483E4B4449C01AC008000440F0C0
:107360000200FBF7E7FB01230093A36D2A462146A9
:1073700002A8FFF7C3FE0028A8D0A36DEA18A8EB67
:107380000303A6B10021009113A82146FFF7B6FE22
:1073900000283FD09DF84C304BB12E482C4B334940
:1073A000C01AC008000440F00200FBF7C3FB002F26
:1073B0003DD0254FB9F1000F29D02846FFF71CFC1E
:1073C00018B107F11800FFF7DDF8412202A928489B
:1073D00002F002F8002E14BFAC23A523FB62A36DBC
:1073E0007B63002E3FF441AF412213A9214801F0F5
:1073F000F3FF94F8923023B194F89330002B7FF48C
:1074000034AF6368FB6030E743462A46B9E7AA23F6
:10741000FB62E6E737B90524FFF726FA204625B0D8
:10742000BDE8F083B9F1000F3FF4F2AE51E7064B2F
:1074300001245C61F2E71724002F7FF4EAAEEBE74A
:107440002C5F002018600020F45F0020956200206F
:1074500014BC070064BC0700F2B407001AB50700AB
:107460006BB50700D4B5070041B6070082B6070028
:1074700054620020D66200200122FFF7A7BE000060
:10748000F8B590F854309BB190F85530032B0FD8D5
:1074900090F86E20032A17D0524B53485349C01A14
:1074A000C008000440F00100FBF744FB1420F8BDC5
:1074B0004D484C4B4E49C01AC008000440F0010032
:1074C000FBF738FB0F20F2E790F892201AB190F802
:1074D0009320002A78D1027A32B94348414B45497A
:1074E000C01AC0080004E9E7C268342A0BD03D4B3B
:1074F0003D484149C01AC008000440F00200FBF7B3
:1075000019FB1120D3E743F20401028A0C683B49BE
:107510008C4250D15AB14169002931D0D2B20021F8
:1075200000F1140543F20C06CCB2A2420BD82D4B4D
:107530002D483349C01AC008000440F00200FBF790
:10754000F9FA1220B3E755F821703488A74201F107
:107550000101E9D10278002A38D0012B4268294B79
:107560002FD89B689A422FD21E4B1F482649C01A1B
:10757000C008000440F00200FBF7DCFA102096E798
:1075800093B9012AE6D9D2B2194600F1140543F2A3
:107590000C06CCB29442CAD255F821703488A74266
:1075A00001F10101F5D1D5E713F1FF3218BF012236
:1075B000002ACFD1BBE712B14269002ACAD10278B2
:1075C000F6E7DB689A42CFD9012070E7012B06D09D
:1075D0000548044B0D49C01AC00800046EE7184660
:1075E00065E700BF14BC07006CBC0700C6B7070006
:1075F000AFB70700D9B70700E8B70700DBE5B1511F
:10760000FBB70700F45F00200BB807001FB80700A6
:10761000030A08704B70030C000EC8708B700420B6
:10762000704700002DE9F0414278012A80460F465C
:1076300009D06048604B6149C01AC008000440F09E
:107640000200FBF77BFA98F80030082B0ED17B88FC
:107650003A88013B9BB27B80002A00F0A980002B76
:1076600040F0A68003237A8088F80030524B514EB8
:107670003D6998F800205249F61AF608360498F841
:10768000013046F00400FBF762FA60232B7098F893
:1076900000306B7098F80130AB70012B7DD198F8F9
:1076A00000300B2B00F28280DFE803F0728080460E
:1076B0008080516080720631E91CD8F80400FFF721
:1076C000A7FF0330C4B22919D8F80800FFF7A0FFBC
:1076D0000444E4B22919D8F80C00FFF799FF0444D8
:1076E000E4B22919D8F81000FFF792FF0444E4B27D
:1076F000D8F814002919FFF78BFF0444E4B2182CC2
:107700003AD9304946F00100FBF714FA34E098F812
:107710000430EB70291DD8F80800FFF779FF04301A
:10772000C4B22919D8F80C00FFF772FF0444E4B280
:107730002919D8F81000DEE7E91CD8F80400FFF793
:1077400067FF0330C4B22919D8F80800D3E7E91C51
:10775000D8F80C00FFF75CFF0330C4B22919D8F841
:107760000400FFF755FF0444E4B2ECE7B8F8043036
:10777000EB701B0A2B7105247B682146284698472D
:10778000B0B146F001001049BDE8F041FBF7D2B9B5
:1077900098F80430EB700424EEE70B2B06D1FEF7CB
:1077A0000DF8E8700020FEF703F8F4E70324E3E7A0
:1077B000BDE8F0814CBC070014BC07004AB80700C4
:1077C00072B8070095B80700B6B80700F0B50E46C6
:1077D00087B004460D46174600211822684601F07E
:1077E00009FE16F8013B8DF800302D4A0194013B4B
:1077F00002920A2B18D8DFE803F01E061717171B92
:10780000362B44174F00274B274822882749C01A98
:10781000C008000440F00400FBF790F9AA786B78E8
:1078200043EA022323806380A3683046984715E02B
:107830006B780493F8E7238863806B78D5F802208F
:107840000493012B0592EFD16069FEF761FEEBE72F
:10785000013FA3680496ADF8147003936846FEF7E1
:10786000FFFA07B0F0BD0F4B0F481149C01AC0080E
:10787000000440F00400FBF75DF9E368ADF8103058
:10788000D2E70948074B6A780A49C01AC0080004C1
:1078900040F00400FBF752F96B788DF81030C3E725
:1078A0002576070014BC07004CBC0700E1B80700B0
:1078B000FEB8070012B9070028B139B10023C1E9A9
:1078C00000301846704748F21050704748F2135085
:1078D000704730B1036848F240508B4208BF002027
:1078E000704748F21050704728B148F21150914249
:1078F00008BF0020704748F21050704770B5064628
:107900000C461D46FFF7D8FF50B9B3794AB1AB42D8
:107910000AD11146204600F058FA08B9044B2360FA
:1079200070BD48F21050FBE748F21150F8E700BF75
:107930007052464D2DE9F0470C4607460F49204648
:1079400015469846DDE90869FFF7C3FF98B96368F3
:107950005A79494652003046FFF7C6FF58B945B13B
:10796000089643462A4621463846BDE8F04700F0CF
:1079700034BA48F21050BDE8F08700BF7052464D4F
:1079800010B5044638B149B141600B68984708B951
:10799000044B236010BD48F20150FBE748F2105041
:1079A000F8E700BF6E524648F0B448B107680A4E87
:1079B000B74209D159B16AB14368F0BC5B68184756
:1079C00048F20150F0BC704748F20250FAE748F222
:1079D0001050F7E71046F5E76E524648F0B460B134
:1079E00007680C4EB7420CD171B143681568DC686A
:1079F000A5420CD39B68F0BC184748F20150F0BC7C
:107A0000704748F20250FAE748F21350F7E748F29D
:107A10001450F4E76E5246482DE9F04104461746EB
:107A20009846DDE90656FFF7ABFF60B94246394696
:107A30002046FFF7B9FF30B9324629462046BDE857
:107A4000F041FFF7CBBFBDE8F0810000F8B50A4F69
:107A50000A4C0B4DE41B0121E40829700026A642C4
:107A600003D102232B700020F8BD57F83630984719
:107A70000028F9D10136F2E70CBC07000CBC070066
:107A8000305F002001390144814200D27047037801
:107A90000A7800F8012B01F80139F5E7013A0244B0
:107AA0000139824200D2704711F8013F02F80139D2
:107AB000F7E770B516460D46FFF7F0FF3246A919F5
:107AC0003044BDE87040FFF7E9BF38B50D460446C5
:107AD000FFF7D8FF29466019BDE83840FFF7D2BF4D
