:1000000080910020A98A000071860000958A000076
:10001000958A0000958A0000958A00000000000083
:10002000000000000000000000000000918C0000B3
:10003000958A0000000000005D8C0000958A000099
:10004000D98E0000BD030200D98E0000D98E0000B9
:10005000D98E0000D98E0000D98E0000D98E000004
:10006000D98E0000D98E0000D98E0000D98E0000F4
:10007000D98E0000D98E0000D98E0000D98E0000E4
:10008000D98E0000D98E0000D98E0000D98E0000D4
:10009000D98E0000D98E0000D98E0000D98E0000C4
:1000A000D98E0000D98E0000D98E0000D98E0000B4
:1000B000D98E0000D98E0000D98E0000D98E0000A4
:1000C000D98E0000D98E0000D98E0000D98E000094
:1000D000D98E0000D98E0000D98E0000D98E000084
:1000E000D98E0000D98E0000D98E0000D98E000074
:1000F000D98E0000D98E0000D98E0000D98E000064
:1001000081F0004102E000BF83F0004330B54FEAC8
:1001100041044FEA430594EA050F08BF90EA020F35
:100120001FBF54EA000C55EA020C7FEA645C7FEAC8
:10013000655C00F0E2804FEA5454D4EB5555B8BFEB
:100140006D420CDD2C4480EA020281EA030382EA5C
:10015000000083EA010180EA020281EA0303362DEE
:1001600088BF30BD11F0004F4FEA01314FF4801CC1
:100170004CEA113102D0404261EB410113F0004FD3
:100180004FEA03334CEA133302D0524263EB43038A
:1001900094EA050F00F0A780A4F10104D5F1200E28
:1001A0000DDB02FA0EFC22FA05F2801841F1000183
:1001B00003FA0EF2801843FA05F359410EE0A5F157
:1001C00020050EF1200E012A03FA0EFC28BF4CF088
:1001D000020C43FA05F3C01851EBE37101F000453E
:1001E00007D54FF0000EDCF1000C7EEB00006EEB4B
:1001F0000101B1F5801F1BD3B1F5001F0CD34908D5
:100200005FEA30004FEA3C0C04F101044FEA44522B
:1002100012F5800F80F09A80BCF1004F08BF5FEAB2
:10022000500C50F1000041EB045141EA050130BD92
:100230005FEA4C0C404141EB0101013C28BFB1F5A4
:10024000801FE9D291F0000F04BF01460020B1FAEF
:1002500081F308BF2033A3F10B03B3F120020CDAC2
:100260000C3208DD02F1140CC2F10C0201FA0CF0A0
:1002700021FA02F10CE002F11402D8BFC2F1200C05
:1002800001FA02F120FA0CFCDCBF41EA0C019040BB
:10029000E41AA2BF01EB0451294330BD6FEA040404
:1002A0001F3C1CDA0C340EDC04F11404C4F12002EF
:1002B00020FA04F001FA02F340EA030021FA04F301
:1002C00045EA030130BDC4F10C04C4F1200220FA58
:1002D00002F001FA04F340EA0300294630BD21FA96
:1002E00004F0294630BD94F0000F83F4801306BF5C
:1002F00081F480110134013D4EE77FEA645C18BF50
:100300007FEA655C29D094EA050F08BF90EA020FE6
:1003100005D054EA000C04BF1946104630BD91EADE
:10032000030F1EBF0021002030BD5FEA545C05D1E1
:100330004000494128BF41F0004130BD14F5800420
:100340003CBF01F5801130BD01F0004545F0FE4194
:1003500041F470014FF0000030BD7FEA645C1ABFC9
:10036000194610467FEA655C1CBF0B46024650EA00
:10037000013406BF52EA033591EA030F41F400212C
:1003800030BD00BF90F0000F04BF0021704730B5B2
:100390004FF4806404F132044FF000054FF0000187
:1003A00050E700BF90F0000F04BF0021704730B548
:1003B0004FF4806404F1320410F0004548BF40421D
:1003C0004FF000013EE700BF42004FEAE2014FEA72
:1003D00031014FEA02701FBF12F07F4393F07F4F4D
:1003E00081F06051704732F07F4208BF704793F050
:1003F0007F4F04BF41F40021704730B54FF4607463
:1004000001F0004521F000411CE700BF50EA010265
:1004100008BF704730B54FF000050AE050EA01020E
:1004200008BF704730B511F0004502D5404261EB7E
:1004300041014FF4806404F132045FEA915C3FF4BF
:10044000D8AE4FF003025FEADC0C18BF03325FEA5C
:10045000DC0C18BF033202EBDC02C2F1200300FA0D
:1004600003FC20FA02F001FA03FE40EA0E0021FA32
:1004700002F11444BDE600BF70B54FF0FF0C4CF420
:10048000E06C1CEA11541DBF1CEA135594EA0C0FD2
:1004900095EA0C0F00F0DEF82C4481EA030621EA0D
:1004A0004C5123EA4C5350EA013518BF52EA033548
:1004B00041F4801143F4801338D0A0FB02CE4FF0FA
:1004C0000005E1FB02E506F00042E0FB03E54FF02A
:1004D0000006E1FB03569CF0000F18BF4EF0010E22
:1004E000A4F1FF04B6F5007F64F5407404D25FEA1E
:1004F0004E0E6D4146EB060642EAC62141EA5551D1
:100500004FEAC52040EA5E504FEACE2EB4F1FD0C12
:1005100088BFBCF5E06F1ED8BEF1004F08BF5FEA90
:10052000500E50F1000041EB045170BD06F0004642
:1005300046EA010140EA020081EA0301B4EB5C04EF
:10054000C2BFD4EB0C0541EA045170BD41F48011E7
:100550004FF0000E013C00F3AB8014F1360FDEBF0C
:10056000002001F0004170BDC4F10004203C35DAE8
:100570000C341BDC04F11404C4F1200500FA05F36B
:1005800020FA04F001FA05F240EA020001F000420C
:1005900021F0004110EBD37021FA04F642EB060182
:1005A0005EEA430E08BF20EAD37070BDC4F10C04AC
:1005B000C4F1200500FA04F320FA05F001FA04F270
:1005C00040EA020001F0004110EBD37041F100015C
:1005D0005EEA430E08BF20EAD37070BDC4F1200567
:1005E00000FA05F24EEA020E20FA04F301FA05F2CF
:1005F00043EA020321FA04F001F0004121FA04F277
:1006000020EA020000EBD3705EEA430E08BF20EA46
:10061000D37070BD94F0000F0FD101F00046400080
:1006200041EB010111F4801F08BF013CF7D041EA02
:10063000060195F0000F18BF704703F00046520006
:1006400043EB030313F4801F08BF013DF7D043EAD7
:100650000603704794EA0C0F0CEA135518BF95EA8D
:100660000C0F0CD050EA410618BF52EA4306D1D114
:1006700081EA030101F000414FF0000070BD50EA33
:10068000410606BF1046194652EA430619D094EABD
:100690000C0F02D150EA013613D195EA0C0F05D1A7
:1006A00052EA03361CBF104619460AD181EA0301FB
:1006B00001F0004141F0FE4141F470014FF00000B3
:1006C00070BD41F0FE4141F4780170BD70B54FF04E
:1006D000FF0C4CF4E06C1CEA11541DBF1CEA1355CE
:1006E00094EA0C0F95EA0C0F00F0A7F8A4EB0504B0
:1006F00081EA030E52EA03354FEA013100F08880A7
:100700004FEA03334FF0805545EA131343EA12636F
:100710004FEA022245EA111545EA10654FEA002624
:100720000EF000419D4208BF964244F1FD0404F5DD
:10073000407402D25B084FEA3202B61A65EB030539
:100740005B084FEA32024FF480104FF4002CB6EBF6
:10075000020E75EB030E22BFB61A754640EA0C0076
:100760005B084FEA3202B6EB020E75EB030E22BFB6
:10077000B61A754640EA5C005B084FEA3202B6EBF7
:10078000020E75EB030E22BFB61A754640EA9C00B6
:100790005B084FEA3202B6EB020E75EB030E22BF86
:1007A000B61A754640EADC0055EA060E18D04FEA44
:1007B000051545EA16754FEA06164FEAC30343EAE4
:1007C00052734FEAC2025FEA1C1CC0D111F4801FB1
:1007D0000BD141EA00014FF000004FF0004CB6E7AA
:1007E00011F4801F04BF01430020B4F1FD0C88BF49
:1007F000BCF5E06F3FF6AFAEB5EB030C04BFB6EB54
:10080000020C5FEA500C50F1000041EB045170BD46
:100810000EF0004E4EEA113114EB5C04C2BFD4EB73
:100820000C0541EA045170BD41F480114FF0000EF7
:10083000013C90E645EA060E8DE60CEA135594EA73
:100840000C0F08BF95EA0C0F3FF43BAF94EA0C0F76
:100850000AD150EA01347FF434AF95EA0C0F7FF4EB
:1008600025AF104619462CE795EA0C0F06D152EA3F
:1008700003353FF4FDAE1046194622E750EA410623
:1008800018BF52EA43067FF4C5AE50EA41047FF434
:100890000DAF52EA43057FF4EBAE12E74FEA410297
:1008A00012F5001215D211D56FF47873B3EB6252C2
:1008B00012D94FEAC12343F0004343EA505311F0E9
:1008C000004F23FA02F018BF404270474FF000007B
:1008D000704750EA013005D111F0004008BF6FF0B9
:1008E000004070474FF00000704700BF4A0011D22F
:1008F00012F5001211D20DD56FF47873B3EB62527A
:100900000ED44FEAC12343F0004343EA505323FA85
:1009100002F070474FF00000704750EA013002D1FA
:100920004FF0FF3070474FF00000704780F00040FC
:1009300002E000BF81F0004142001FBF5FEA4103B7
:1009400092EA030F7FEA226C7FEA236C6AD04FEAB7
:100950001262D2EB1363C1BFD218414048404140FC
:10096000B8BF5B42192B88BF704710F0004F40F4AE
:10097000000020F07F4018BF404211F0004F41F4CA
:10098000000121F07F4118BF494292EA030F3FD096
:10099000A2F1010241FA03FC10EB0C00C3F12003A9
:1009A00001FA03F100F0004302D5494260EB400038
:1009B000B0F5000F13D3B0F1807F06D340084FEAA3
:1009C000310102F10102FE2A51D2B1F1004F40EB98
:1009D000C25008BF20F0010040EA03007047490000
:1009E00040EB0000013A28BFB0F5000FEDD2B0FA9D
:1009F00080FCACF1080CB2EB0C0200FA0CF0AABFC0
:100A000000EBC25052421843BCBFD040184370475D
:100A100092F0000F81F4000106BF80F40000013263
:100A2000013BB5E74FEA41037FEA226C18BF7FEA3A
:100A3000236C21D092EA030F04D092F0000F08BF7C
:100A40000846704790EA010F1CBF0020704712F063
:100A50007F4F04D1400028BF40F00040704712F1A2
:100A600000723CBF00F50000704700F0004343F007
:100A7000FE4040F4000070477FEA226216BF08463D
:100A80007FEA23630146420206BF5FEA412390EA00
:100A9000010F40F4800070474FF0000304E000BFF6
:100AA00010F0004348BF40425FEA000C08BF7047A7
:100AB00043F0964301464FF000001CE050EA01026B
:100AC00008BF70474FF000030AE000BF50EA010280
:100AD00008BF704711F0004302D5404261EB41016D
:100AE0005FEA010C02BF84460146002043F0B64392
:100AF00008BFA3F18053A3F50003BCFA8CF2083AB7
:100B0000A3EBC25310DB01FA02FC634400FA02FCBF
:100B1000C2F12002BCF1004F20FA02F243EB0200C6
:100B200008BF20F00100704702F1200201FA02FC28
:100B3000C2F1200250EA4C0021FA02F243EB02001B
:100B400008BF20EADC7070474FF0FF0C1CEAD0525F
:100B50001EBF1CEAD15392EA0C0F93EA0C0F6FD020
:100B60001A4480EA010C400218BF5FEA41211ED0FE
:100B70004FF0006343EA501043EA5111A0FB0131EA
:100B80000CF00040B1F5000F3EBF490041EAD371BF
:100B90005B0040EA010062F17F02FD2A1DD8B3F13B
:100BA000004F40EBC25008BF20F00100704790F0AA
:100BB000000F0CF0004C08BF49024CEA502040EAFC
:100BC00051207F3AC2BFD2F1FF0340EAC2507047C2
:100BD00040F400004FF00003013A5DDC12F1190F00
:100BE000DCBF00F000407047C2F10002410021FA72
:100BF00002F1C2F1200200FA02FC5FEA310040F18A
:100C0000000053EA4C0308BF20EADC70704792F002
:100C1000000F00F0004C02BF400010F4000F013A3A
:100C2000F9D040EA0C0093F0000F01F0004C02BF35
:100C3000490011F4000F013BF9D041EA0C018FE7A4
:100C40000CEAD15392EA0C0F18BF93EA0C0F0AD0AA
:100C500030F0004C18BF31F0004CD8D180EA0100D0
:100C600000F00040704790F0000F17BF90F0004F69
:100C7000084691F0000F91F0004F14D092EA0C0F4B
:100C800001D142020FD193EA0C0F03D14B0218BFDE
:100C9000084608D180EA010000F0004040F0FE4024
:100CA00040F40000704740F0FE4040F440007047C0
:100CB0004FF0FF0C1CEAD0521EBF1CEAD15392EA3F
:100CC0000C0F93EA0C0F69D0A2EB030280EA010C2F
:100CD00049024FEA402037D04FF0805343EA1111C8
:100CE00043EA10130CF000408B4238BF5B0042F126
:100CF0007D024FF4000C8B4224BF5B1A40EA0C00CB
:100D0000B3EB510F24BFA3EB510340EA5C00B3EBFC
:100D1000910F24BFA3EB910340EA9C00B3EBD10FEA
:100D200024BFA3EBD10340EADC001B0118BF5FEA3C
:100D30001C1CE0D1FD2A3FF650AF8B4240EBC25065
:100D400008BF20F0010070470CF0004C4CEA502026
:100D50007F32C2BFD2F1FF0340EAC250704740F475
:100D600000004FF00003013A37E792F0000F00F067
:100D7000004C02BF400010F4000F013AF9D040EAE5
:100D80000C0093F0000F01F0004C02BF490011F479
:100D9000000F013BF9D041EA0C0195E70CEAD15371
:100DA00092EA0C0F08D142027FF47DAF93EA0C0F58
:100DB0007FF470AF084676E793EA0C0F04D14B023C
:100DC0003FF44CAF08466EE730F0004C18BF31F0EE
:100DD000004CCAD130F000427FF45CAF31F00043E8
:100DE0007FF43CAF5FE700BF4FF0FF3C06E000BF81
:100DF0004FF0010C02E000BF4FF0010C4DF804CDA4
:100E00004FEA40024FEA41037FEA226C18BF7FEAB3
:100E1000236C11D001B052EA530C18BF90EA010FB5
:100E200058BFB2EB030088BFC81738BF6FEAE17044
:100E300018BF40F0010070477FEA226C02D15FEAE0
:100E4000402C05D17FEA236CE4D15FEA412CE1D04C
:100E50005DF8040B704700BF844608466146FFE713
:100E60000FB5FFF7C9FF002848BF10F1000F0FBDF5
:100E70004DF808EDFFF7F4FF0CBF012000205DF8EE
:100E800008FB00BF4DF808EDFFF7EAFF34BF012073
:100E900000205DF808FB00BF4DF808EDFFF7E0FF0C
:100EA00094BF012000205DF808FB00BF4DF808ED5D
:100EB000FFF7D2FF94BF012000205DF808FB00BFC0
:100EC0004DF808EDFFF7C8FF34BF012000205DF8A2
:100ED00008FB00BF7BB972B90029BEBF00204FF0EC
:100EE000004106E008BF00281CBF6FF000414FF032
:100EF000FF3000F077B8ADF1080C6DE904CE0029A1
:100F000009DB002B1ADB00F082F8DDF804E0DDE9F4
:100F1000022304B07047404261EB4101002B1BDB10
:100F200000F075F8DDF804E0DDE9022304B040428A
:100F300061EB4101524263EB43037047524263EB62
:100F4000430300F064F8DDF804E0DDE9022304B0B7
:100F5000404261EB41017047524263EB430300F0B2
:100F600056F8DDF804E0DDE9022304B0524263EBF9
:100F70004303704753B94AB9002908BF00281CBF72
:100F80004FF0FF314FF0FF3000F02CB8ADF1080CFE
:100F90006DE904CE00F03BF8DDF804E0DDE9022362
:100FA00004B07047D0B5FFF70FFA0C4B002206468D
:100FB0000F46FFF761FAFFF799FC0446FFF7E2F9E5
:100FC000074B0022FFF758FA02460B4630463946D7
:100FD000FFF79AF8FFF78AFC2146D0BD0000F03DEC
:100FE0000000F041704700BF10B500210446FFF734
:100FF00049FF20B92046BDE81040FFF7D3BF04F1F8
:101000000040FFF7CFFF404261EB410110BD2DE9E9
:10101000F04786468C460846089E15467446194693
:10102000002B40F0C2808542B2FA82F245D94AB123
:10103000C2F1200300FA02FC2EFA03F3954043EAC2
:101040000C0C94404FEA154EA8B2BCFBFEF8230CE2
:101050000EFB18CC08FB00F943EA0C43994528D94C
:10106000EB1808F1FF3704D2994502D9A8F102071D
:101070002B44A3EB0903A4B2B3FBFEFC0EFB1C3311
:101080000CFB00F044EA0344A04214D92C190CF1E3
:10109000FF3304D2A04202D9ACF102032C44241A3B
:1010A00043EA07401EB1D440002334607360BDE8BA
:1010B000F0874746DDE76346F1E792BB431B01211A
:1010C0004FEA154EAFB2B3FBFEFC200C0EFB1C33F7
:1010D0000CFB07F840EA0343984562D9EB180CF182
:1010E000FF3004D2984502D9ACF102002B44A3EBA7
:1010F0000803A4B2B3FBFEFC0EFB1C330CFB07F78A
:1011000044EA0344A7424ED92C190CF1FF3304D210
:10111000A74202D9ACF102032C44E41B43EA00408D
:10112000C0E7C2F1200320FA03F1954090402EFA67
:1011300003F303434FEA154EAFB2B1FBFEFC0EFBC7
:101140001C10190C0CFB07F841EA0041884504FA11
:1011500002F422D969180CF1FF3004D2884502D973
:10116000ACF102002944A1EB08019BB2B1FBFEFCEB
:101170000EFB1C110CFB07F743EA01439F420ED9FB
:10118000EB180CF1FF3104D29F4202D9ACF10201FD
:101190002B44DB1B41EA004192E76046E3E76146EE
:1011A000F7E76046A3E76346B7E7834206D916B977
:1011B000002108467BE7C6E900E0F9E7B3FA83F7C8
:1011C0008FB9834201D3724508D8BEEB020460EBAD
:1011D000030301209C461EB9002168E73846FAE760
:1011E000C6E9004CF8E7C7F1200CBB4022FA0CF42A
:1011F0001C432EFA0CF120FA0CF3B84001434FEADD
:1012000014490EFA07F5B3FBF9F81FFA84FE09FB3F
:1012100018300B0C08FB0EFA43EA00439A4502FA19
:1012200007F240D9E31808F1FF3004D29A4502D9F9
:10123000A8F102002344A3EB0A0389B2B3FBF9F837
:1012400009FB183308FB0EFE41EA03418E452CD9F9
:10125000611808F1FF3304D28E4502D9A8F10203C8
:10126000214443EA0040A0FB0298A1EB0E01414556
:10127000CE46434602D306D14D4504D2B9EB020E09
:1012800068EB04030138002EA6D0B5EB0E0261EB2B
:10129000030101FA0CFC22FA07F34CEA0303F940BC
:1012A000C6E9003198E74046C5E74346D9E703461B
:1012B00013F8012B002AFBD1181A013870470000DF
:1012C0002DE9F047074686B00E469246384D28462F
:1012D00028F0FEFD002862D00446D5F808803B21A6
:1012E000D8F80C3028469847002858D10321D8F860
:1012F00010306A46284698470198FFF753F82AA30A
:10130000D3E90023FFF7E2F9804600988946FFF70A
:1013100049F802460B4640464946FEF7F7FE254B84
:101320000022FFF7A9F8FFF7B9FA38800398FFF712
:1013300039F81DA3D3E90023FFF7C8F980460298C6
:101340008946FFF72FF802460B4640464946FEF70E
:10135000DDFE184B0022FFF78FF8FFF79FFA308071
:101360000598FFF71FF810A3D3E90023FFF7AEF9A4
:10137000064604980F46FFF715F802460B4630461E
:101380003946FEF7C3FE0B4B0022FFF775F8FFF757
:1013900085FAAAF80000204606B0BDE8F0870024D0
:1013A000204606B0BDE8F0870000000080842E4192
:1013B000E8F602000000A04001A1D1E90001704759
:1013C0003F718900100000002DE9F843D0E907358E
:1013D000D0F818805C193034A0450F46164619D84D
:1013E0001D4DA3FB05011AA3D3E90023FFF7C2FD9E
:1013F0000346A4EB0800A0FB050123F07F4414A3DF
:10140000D3E90023FFF7B6FD20F07F403C60306059
:10141000BDE8F883DFF840900DA3D3E90023A8FBD3
:101420000901FFF7A7FD044605F1300008A3D3E941
:101430000023A0FB0901FFF79DFD24F07F4420F06D
:101440007F403C603060BDE8F88300BFAFF30080B0
:101450008D49FD1A0700000000CA9A3B00000000F9
:101460002DE9F04F8DB09B46179C9DF85890636D09
:1014700005460E46904663B1B4F8963023B1B4F8F1
:1014800094209A4280F08580D4F89820002A40F079
:1014900083804FF6FF739B4523D027780137FFB237
:1014A0002770002F00F093807F49804BC1F80480A3
:1014B00004F11C000022C86081F80A900D60A1F8B8
:1014C00008B09960012011460FF0A2FF002840F0FB
:1014D0008D80676DC4F8A850002F6CD0204616F0A0
:1014E00009FC94F8245015F0010561D1704B714A44
:1014F00019781378994200F095804FF6FF739B4559
:1015000040F08A804FF0000B676DD846D4F8989071
:10151000B4F894A0B9F1000F33D0BAF1000F30D075
:10152000D4F888200BF1010B40F271211FFA8BF3E4
:1015300001FB02FB604A4FF0070CA6FB02010BFB0C
:1015400003F30CFB0611099355A3D3E90023FFF71E
:1015500011FD099B584A1E184FF0070CA5FB02010C
:101560000CFB05114EA3D3E90023FFF703FD5844FC
:101570003044814586BFA9EB0606C4F89860C4F8DC
:1015800098B0D044A4F894801FB13A68536E2B44AD
:1015900053660DB0BDE8F08FD4F8881040F2712387
:1015A000A1FB0313914273F10003FFF472AFF0E764
:1015B000676D0025E8E794F82430DB07E9D43C4B5D
:1015C0003C4A1978137899422CD03D4625E03B4A95
:1015D0003B493C4840F6421304F054FD87F3118820
:1015E000BFF36F8F0323184602DF5DE7334A3649A6
:1015F000344840F6641304F045FD002383F311885A
:10160000BFF36F8F0323184602DF676DC4F8A8503D
:10161000002F7FF463AFCEE7676D0BF101081FFA6F
:1016200088F873E7013304210BA813701FF02CFA1C
:101630000B9B26490694A1FB0321581A244A01EB6F
:1016400050012448A21AA0FB0202090A40F24710E6
:101650005209002500FB113302321F490591013365
:10166000CDE90355CDE90155D2B2009501212846B7
:101670000B9311F0BDFA10F0FD0F0DD00F4A174972
:10168000104840F2B37304F0FDFC85F31188BFF3FA
:101690006F8F0323184602DF0B9D2EE7AFF3008008
:1016A00000CA9A3B0000000024350020B804002046
:1016B000CC580020CD5800208D49FD1AEC170300AE
:1016C0004419030000FB02001416030021F1D4901A
:1016D0009010002083BEA02FD560010048190300A0
:1016E000002900F0E4812DE9F04F012895B004466F
:1016F00000F2CE82DFF800839A46AC2303FB00861B
:10170000934610FB03F20B9296F89C30D80708EB37
:10171000020500F1C88295F83D3005EB83031E6C8D
:1017200095F8293005EB8303DF6A002E00F047812E
:1017300032463946284614F085FE8146002840F09E
:10174000B2813B7813F00E0F00F0B78103F00F0366
:10175000072B00F0AE8113F0BFF8002840F0DC82C8
:10176000AC2303FB048318654FF0000A53464FF087
:10177000AC0909FB04890121A9F896A0C9F89830A1
:101780004FF0000A95F825B0A9F894A095F82430F8
:101790000DF14500C3F342038DF845300FF086FF8D
:1017A000CBF3820B0246002800F073815B46314682
:1017B000384614F0E7FF9149914B0B9AB9F88860CD
:1017C00008F802A0A0FB0101C0184FF03103C5E9E1
:1017D00005AA41F10701C9E901A3C9F80CA084A336
:1017E000D3E90023FFF7C6FBC9F8100011F004FB92
:1017F00000F1090B002E00F0B58295F824906AF3F1
:10180000000985F8249019F0010940F00381AC2308
:1018100003FB04831A460E93AB6DD2F810A0002B85
:1018200000F02E821B680C9393F8623003F00303E0
:10183000012B0F9340F024820DF1470312A901936D
:101840000DF146034A460B91009328460B46202192
:1018500000F022FD8146002840F02581DDF8491086
:101860000C9817F0C1FB6F6D002F00F0CD823F6820
:101870000B990AF102035B443846129300F034FCE2
:10188000FF2211460D90384616F02AFA5B4958A3FC
:10189000D3E90023A0FB0101FFF76CFB129B20F0B2
:1018A0007F410D98023303444A46284601EB030961
:1018B0000C9901F091FA0C9903464A46284601F02A
:1018C000BFFA002840F0E5800E9B9DF847205B6D35
:1018D000DDF83C905A759DF8463085F82930AC23E8
:1018E00003FB048340F2E140D3F88820002140F25A
:1018F0007123E2FB030140F2E2420023FFF73AFBCF
:10190000A7F850000D9A1299384600F035FC0028CF
:1019100040F0BF8001230D930B9B089304EB440C14
:10192000384BCDF810A00AF24711069543F82C1059
:1019300003EB8C030993344B07933448344B0593E2
:101940000223A6FB0002129304EB030A91214FF637
:10195000FF7301FB06210393002625A3D3E900238F
:101960000296FFF707FB5FFA8AFA019003215B46B4
:1019700052460096304611F0DBF80B9912F00CFB42
:10198000002840F086800D9B7BB197F8623043F0D1
:10199000010387F86230B9F1000F06D00C9A92F873
:1019A000623043F0020382F86230AC2303FB04830D
:1019B00093F89C2042F0010283F89C206DE13B7873
:1019C00003F00F03072B6CD00B9B03F13C0040444A
:1019D0001FF03CFDC0B2002840F09B8195F83D30DF
:1019E00005EB83031E6C04233370062373709FE69C
:1019F0008D49FD1A070000009010002000CA9A3B94
:101A00008C49FD1A4435002001300100002AE7848A
:101A100061140000AC2303FB048306951B69CC49C9
:101A200004930226019304EB4403B34004EB440205
:101A3000002001EB82020992C85012AB0893C54FF7
:101A4000C54B0593A2190321CDE902000090079729
:101A5000D2B25B46129611F06BF812A912F09CFA02
:101A6000B8B9BE4A059212A94AF2D832089100923A
:101A70000321CDE90300CDE9010007975B460695F8
:101A80000122129611F038F812A912F085FA0028F6
:101A90008BD0AC2303FB04831B6A13B1284614F0DC
:101AA0005BFB4FF00C09484615B0BDE8F08F14F011
:101AB00099BBBB785A067FF54EAE2B6A002BF0D14E
:101AC00012F0ACF90C90002800F0238112F0B2F96A
:101AD0000D90002800F01A8118F028FC814600289B
:101AE00000F01181D0F888004FF6FF7209F11C0355
:101AF000A9F828200E93002800F0758109F17C02D6
:101B000009F178010FF000FC99F88E2022F007020D
:101B100089F88E200022C9F88820A9F88C203A780C
:101B200002F00F02072A00F0418199F8762022F096
:101B30007F0242F0190289F876200121884A99F83B
:101B4000CA01D2F801C0C9F8CBC1C9F8D1C112F895
:101B500001CB9288A9F8CF21A9F8D52199F839208D
:101B600002F03F0262F07F0289F83920B9F8F420D0
:101B700022F4807222F00102A9F8F42099F877206B
:101B800061F3020289F8772099F83C2099F8D41083
:101B900022F0070289F83C20002262F300010CF0D9
:101BA000010C89F8D41040F27F416CF30000A9F8D1
:101BB000D2100E216CF3410089F8D7104FF4C021E8
:101BC000C9F8B811C9E9122289F8CA01A9F8322066
:101BD000C9F82E2089F83B20C9F85020A9F8BE2169
:101BE000A9F8B42148461AF073FD0C9BC9F884315A
:101BF000002289F8802118F07BFE99F8C41160F367
:101C0000020189F8C41118F079FE99F8C41160F343
:101C1000C50189F8C41199F8B011002262F341019D
:101C200089F8B0113A7802F00F02072A0ABF95F836
:101C3000251001214909484619F0B4FA09F58270C6
:101C40001AF01EFBAC2202FB04820C9BC2F880300F
:101C50000D9BC2F88430002209F11C032B62C9E9F4
:101C60000522C9F81C9089F800201FF03FFA0028CF
:101C70003FF471AD284614F06FFA4FF0030912E7F4
:101C80006F6D002F79D112ABCDE90C770B9343E642
:101C900012F022FE00287FF404AF4FF000094846FE
:101CA00015B0BDE8F08F12F017FE0028F5D096F8B9
:101CB0009C30D9077FF5F5AE95F83D3005EB8303F1
:101CC00028461A6C95F8293005EB8303D96A14F07D
:101CD000B9FB814600287FF4E6AE336D002B3FF45C
:101CE000E0AE1A7902F0FF014AB942F2107202FB2B
:101CF0000BF2A6F89410A6F896A0C6F898201B79C7
:101D0000002BCAD0CDE60D9812F09AF80C9812F07C
:101D10008BF84FF00709C6E612F080F881460028DC
:101D20003AD012F087F8002862D0AC2303FB04837A
:101D30000022C0F800900271186595F82430DB0786
:101D40003FF512AD42F2107303FB0BF30FE500BF3A
:101D5000443500200130010061140000395F0100AA
:101D6000C808030097F800A00AF00F0AAAF1010AB8
:101D7000BAFA8AFA4FEA5A1A3FE50AF102033F68B3
:101D80005B44129312AB194638460B9300F0ACF942
:101D900000230D900C93A2E5AC2303FB04831B6A84
:101DA000002BB6D0284614F0D7F9B2E795F82520D5
:101DB00099F87610520962F3020189F8761095F8C5
:101DC0002520C9B2520962F3061189F8761095F8F8
:101DD000261099F8762061F3C30289F8762095F8E9
:101DE00025104909AAE609F18000C9F8880085E6AE
:101DF000AC2303FB04831B6A13B1284614F0ACF92F
:101E0000484612F011F884E70D9785E500000000C0
:101E1000F0B590F8243090F825708BB0C3F34203EE
:101E20000D46044601210DF1230016468DF823309E
:101E30000FF03CFCC7F3820702463B46314628467A
:101E400014F0A0FC1E491F4AA0FB0131981841F173
:101E5000070119A3D3E90023FFF78CF823699842FF
:101E6000054621D21B1A00220192174A0293174BF2
:101E7000A21AA3FB02320221520900230A4409AE2E
:101E8000099113490591CDE903330321D2B2069696
:101E90000093184610F0ACFE314612F07DF838B9C8
:101EA000256100200BB0F0BDFBD9C21A0023DBE78F
:101EB0000C200BB0F0BD00BF8D49FD1A07000000DB
:101EC00000CA9A3B8C49FD1A9010002083BEA02FB7
:101ED00001300100000000002DE9F04788B0814684
:101EE000119C9DF840A02746164617F81C5B01354B
:101EF000EDB298462570002D7DD06F4A6F4BC2F829
:101F00000090A2F8088082F80AA05660D7609A6014
:101F10000022114601200FF07BFA00287AD1676E6B
:101F2000E06C002F60D0B0F5967F36D80023636652
:101F30004FF000096249682220460FF0C5F90025DC
:101F400060490591021DCDE90355CDE90155CDF854
:101F5000009006943B46D2B20121284610F048FE7C
:101F600010F0FD0F0DD0584A5849594840F6835398
:101F700004F088F885F31188BFF36F8F03231846A8
:101F800002DF256A2868836D23B11B6893F86220FD
:101F900092074FD408B0BDE8F087A36C8342C5D147
:101FA000256A2A7B697B8A42D3B204D00133DBB233
:101FB000022B08BF002305EB83036A7A1B6959785B
:101FC0004FF49673E364C2F381030B440933DB00DF
:101FD000C2F3C002D340C01AB0F5967F30D80023B8
:101FE0006366002FA4D1CDE7B0F5967FC9D9A36C65
:101FF0008342C6D1D4E7344A3649354840F60D53BA
:1020000004F040F885F31188BFF36F8F032318465F
:1020100002DF72E72C4A30492D4840F6475304F05E
:1020200031F8002383F31188BFF36F8F0323184621
:1020300002DF74E75E6608B0BDE8F04716F0E6BF61
:102040002649A0F596701AA3D3E90023A0FB01014D
:10205000FEF790FF4FF0000830F07F49C4F864802D
:10206000BFD0286814F0F2FF1D4B0593821CCDE908
:102070000388CDE901890694CDF80080D2B24346A9
:102080000121404610F0B4FD10F0FD0F3FF452AFB7
:102090000D4A0E490E4840F6775303F0F3FF88F3DC
:1020A0001188BFF36F8F0323184602DF42E700BF9A
:1020B0008D49FD1A070000006C350020F80400204F
:1020C000A035002075740100F419030038180300CE
:1020D00000FB0200441903001416030000CA9A3BD7
:1020E000B1740100000000002DE9F04182B0044607
:1020F0001F4E204F884615F09DF907250023636089
:10210000E36029463346E0FB07313122A2601846DE
:1021100015A3D3E90023FEF72DFF94F8313020F00A
:102120007F4004EB83032061596BFF231A4620464E
:1021300015F040F92946E0FB07610BA3D3E9002322
:102140003046FEF717FF01A920F07F401DF010FC7C
:1021500018B9019B0233C8F800300020E06402B0D7
:10216000BDE8F081AFF300808D49FD1A0700000043
:102170008C49FD1A00CA9A3B2DE9F04100258CB02C
:102180008846C0E905551C49057017466822044673
:102190000FF09AF8CDE9025506942369B4F850C0BF
:1021A0001F44061D40F2E2431448049703FB0CF35E
:1021B000A3FB0001124B0793124B059302230BACB8
:1021C0000B930BA3D3E900230894FEF7D3FEF6B2DA
:1021D000CDE90050434632462846032110F08CFCDE
:1021E000214611F0D9FE0CB0BDE8F081AFF30080BC
:1021F0008D49FD1A07000000A035002000CA9A3B57
:1022000001300100D91E000070B590F803C01CF029
:10221000010F14BF00F10A04041D1B481CF0020F3B
:1022200015461E464FF00702A1FB000318BF0634F7
:1022300002FB01311CF0080F11A3D3E9002318BFE2
:102240000234FEF797FEAD1B10492844A1FB003174
:102250000D09490C04D00E4BA3FB003001214509A8
:10226000A2782078657022F01F02C5F3042361F381
:10227000C71013432070A370204670BDAFF30080D9
:1022800000CA9A3B000000008D49FD1A89888888A1
:10229000B5814E1B000000002DE9F04FA5B00C46A3
:1022A0001E4640F201232E990E92A3432F9A0F91BE
:1022B0000546109200F0B68195F8293005EB8303AE
:1022C000D3F82CA09AF8007007F00F07072F04F43A
:1022D00000730ED023B90C27384625B0BDE8F08F27
:1022E000D6F801203178284625B0BDE8F04F14F02B
:1022F0006BBF9AF802200AF1040112F03F0B18BFDD
:102300009AF803B00B9113B17F2A00F2AD810F99B7
:10231000099305F128001FF061F99AF8001002787E
:10232000034601F00F0122F03F020A4303F8022B9B
:1023300081469AF8022099F802101493920962F3E8
:10234000871189F80210696D099B05F11C004FF097
:102350000008002900F032834A7D01EB8202906977
:102360000A681692C2780D900230139002F00100B4
:10237000129001F114001099119209931FF02EF997
:10238000804699F8000098F800100D9B119A00F013
:102390000F0021F03F01014388F80010197898F8E8
:1023A0000000C1F3801161F3861088F800001978ED
:1023B000C0B2C90961F3C71088F8000099F802108B
:1023C00098F802004FF00103890961F387108DF836
:1023D000283014F0010388F802000C930BF0010080
:1023E000099B40F02F81002800F082819AF80000BC
:1023F00098F800C00C99C0F3801060F3861C88F830
:1024000000C099F8000061F3861089F800000AF115
:102410000A010B911298002840F07D810D9804303C
:10242000099002F002011BF0020F219100F040819F
:102430000B9998F800C006310B919AF800104046AD
:10244000C90961F3C71C00F810CB4FF003018DF8E8
:10245000281099F800106FF3C71189F8001002F0E6
:10246000020111B10999063109911BF008011A9175
:1024700002D00B9902310B91811C0C9114F00801D0
:1024800000F0148102213170D6F801101991C6F8BC
:10249000010005360A9941F0080C12F008018DF888
:1024A00028C01B9102D00999023109911BF010013B
:1024B0001C9102D00B9903310B914FF018018DF84C
:1024C0005C1009F10901119102F010011E91E10661
:1024D00040F1E080811CC6F801104CF010010A9117
:1024E00003213170053602F01001002900F0DA8076
:1024F000002118910999033109919DF828C01CF019
:10250000100F1CBF05300C9002F020001D90A0069B
:102510005FFA8CF140F1AA800A990C98C6F8010084
:1025200041F02001122030708DF828100536C9B214
:1025300002F02000002800F0A98000201F900998D8
:1025400012300990880602D50C9912310C911BF0BB
:10255000400F10D00B9901310B9195F8251001F027
:102560001C01102900F04B824FF058018DF85C10CF
:1025700009F10A011191510606D5099A0132099211
:102580000A9A42F040020A929DF82820D1B212F035
:1025900040021591209202D00C9A01320C921499AB
:1025A000119A521AD2B2022A149204D809F10302E3
:1025B00011920122149209991398091AC9B2022999
:1025C00003D80D9A0332099201210D9A92F801B0B5
:1025D0008B45C0F0C4800C9A08F10200101AC0B2FA
:1025E000022803D808F103020C920120002B00F00E
:1025F0009680ABEB010396F800B0099AD6F801106B
:10260000C6F80120DBB233700536BBF1000F40F095
:10261000BB80002940F0BE810F465C4609999B466D
:10262000BC468BE0624A634963484FF4C06303F0E1
:1026300029FD002383F31188BFF36F8F032318460E
:1026400002DF39E616F801EB98F800C06EF3861C3D
:1026500088F800C099F800C06FF3861C89F800C0A4
:1026600000283FF4D7AED2E6122735E60E98800652
:102670003FF55EAF02F0200040B10A9909981F9023
:1026800041F020018DF82810C9B258E702F020006F
:102690001F9057E70E99C9063FF525AF02F01001CC
:1026A00000297ED102F01001189126E71991F1E678
:1026B0000C9908F10A0000297FF4CBAE02F0020168
:1026C000002966D00D9998F800C00878C00960F319
:1026D000C71C40464FF0030100F810CB8DF82810BE
:1026E00099F800C00C9961F3C71C89F800C0B9E6DD
:1026F0001298A0B30D9998F800C008780C99C0F30F
:10270000801060F3861C88F800C099F8000061F31F
:10271000861089F800000D990A31099181E6620559
:102720001FD40E9A940500F13581ABEB010B1C46CA
:102730005FFA8BFB09995B462746A4460344634432
:10274000FF2B3BDD431C23445B44CA45337000F040
:10275000C2810D9B984500F0B9814527BCE51F2734
:10276000BAE53478D6F801E0ABEB01015FFA81FB02
:102770000BEB0401B1F5807F5B46A4463FF7ACAD9F
:10278000099977460536D9E700245B462746A446D3
:10279000D4E799F800C00C9961F3C71C89F800C010
:1027A00063E64CF010010A9109991891A2E600BF66
:1027B000F4190300A41A030000FB0200149B89F81B
:1027C00001305A1E99F802300C9E62F3050389F815
:1027D000023098F80230421E62F3050388F8023096
:1027E00004EB0B03034488F801305A4630462CF0C2
:1027F0007EFE2FB12246394606EB0B002CF069FE17
:1028000098F802309A0600F0C380179B5B0640F1EF
:102810000B810B9A119912F8013C01F8013C531EEF
:102820000B934B1E11931D9B13B1099B123B0993F4
:10283000159B9F0602D50C9B123B0C931F9B23B14B
:102840000C98194612222CF052FE1C9B13B10B9BC4
:10285000033B0B93119E95F8253016F8032C6FF36C
:10286000050206F8032C5C091EF092FC32288CBF8E
:102870000020012094FAA4F3002CB3FA83F308BFDC
:102880004FF0FF335B0106F8013C16F8033C60F3A0
:1028900086136FF3C71306F8033C002306F8023CC7
:1028A0001E9B13B1099B033B0993159BDE0602D5C2
:1028B0000C9B033B0C93189B23B10C9803221946E5
:1028C0002CF015FE1A9B13B10B9B023B0B931B9B29
:1028D00013B1099B023B0993199B002B00F0E9807F
:1028E000199A537812781B0203F470631A431198F3
:1028F000D1B200F8051C95F89230C3F303031B0115
:1029000003EB122300F8043C0C9800F8021C95F825
:102910009230C3F303031B0103EB122300F8013CC5
:10292000159B9C0770D4831E159AD0070BD5129A5D
:10293000002A00F0D580099A063A116843F8061C6F
:10294000928823F8022C99F802300D9899061CBF42
:102950009DF85C3089F8033098F802309A061CBF65
:102960009DF8283088F8033095F8264095F82530F2
:10297000189A04F0010400944FF496745B094146E0
:10298000019415F0DFF9169B93F86230DB075AD4F7
:102990000027A1E4149B89F801305A1E99F80230EF
:1029A00062F3050389F8023098F8023088F80100D4
:1029B000013860F3050388F8023021E715F032F999
:1029C000099B1690002800F09780DDF858E0CDF8BC
:1029D00048809EF831200EEB82020121506B0D9051
:1029E00084461CF8022BCDF84CC002F03F02417027
:1029F000027080F803800EF11C014246B9E40A9986
:102A000041F040010A91B6E5219B002B6BD0099B58
:102A1000063B09930C991A6841F8082C9B8821F809
:102A2000043CA1F108037FE7209B002B3FF4FBAEA1
:102A3000099A0C9912F8013C01F8013C531E0993C4
:102A40004B1E0C93EFE6169C204614F0F3FC364A1E
:102A5000364B0721E0FB0231184631A3D3E90023AE
:102A6000FEF788FA256920F07F44AC423FD22E1B46
:102A70000025169F2E4902236822384623930EF024
:102A800023FC00232B490195021D23AD0591CDE9BF
:102A9000033303210296D2B200931846069510F034
:102AA000A7F8294611F078FA00287FF414AC3C61AD
:102AB0006EE795F89230204903F00F0331F81320A8
:102AC000501C21F81300C2F30B0210E7109A6B6D33
:102AD00012785A7541E60F9B1B7885F8293038E645
:102AE0000B9A063A29E70B9B063B0B9392E77FF67E
:102AF0004FAF651B0026BCE7CA457FF4EDAB0F4A1C
:102B00000F49104840F2336303F0BCFA169B83F37D
:102B10001188BFF36F8F0323184602DFFFF7DCBB7A
:102B20008D49FD1A0700000000CA9A3B8C49FD1A26
:102B3000A0350020013001007C350020F41903008D
:102B4000F41A030000FB02002DE9F04FD0F858B052
:102B50009549DBF8003091B0682209901846089337
:102B60000EF0B2FB0025861DFF23CDE90C55F6B211
:102B70008DF82D3004240DF13C0A0DF12E090DF1D4
:102B800038080CAF0DE00D9BAB4203D0002C2FD0CA
:102B9000013CE4B29DF82D30FF2B3DD09E424ED03B
:102BA0000D9D824B059300200221CDE90189CDE9DD
:102BB0000300CDF818A000970DAB0DF12D020F9179
:102BC00010F0B4F8022800F0D7800F9B002BDAD069
:102BD000774A7849784840F6F30303F053FA002324
:102BE00083F31188BFF36F8F0323184602DFCAE710
:102BF00072496F4A704840F6F50303F043FA84F3D4
:102C00001188BFF36F8F0323184602DF9DF82D3024
:102C1000FF2B4FF0FF04C1D16949654A664840F671
:102C2000F70303F02FFA002383F31188BFF36F8FAC
:102C30000323184602DF9DF82D309E42B0D10E9B33
:102C400060490C9FA3F57422A2F510728A4207D93D
:102C500003F1E873013F03F5D4330C9703F5A57333
:102C6000089A5949526EA1FB03139E0C5549A2F5CF
:102C70007423A3F510738B4207D902F1E872013770
:102C800002F5D4320C9702F5A572099B596D4E4B93
:102C9000487DA3FB0232950C0A7D0E958242D3B289
:102CA00004D00133DBB2022B08BF002301EB830108
:102CB0008C69E378D80748BF0A34444858BF0434C5
:102CC000990748BF06341A0748BF02340721DB06BC
:102CD000A7FB000301FB073131A3D3E9002348BF61
:102CE0000334FEF747F9731B1844B0F5161F384A32
:102CF00028BFA0F51610A2FB00122CBF4023002312
:102D0000550C4FEA121143D0324AA2FB0020C0F307
:102D10004712C0F344300343203363702270BBF882
:102D20001010BBF81430BDF82E200B44134423823E
:102D30009BF824209BF825108A429BB206D0BBF852
:102D400026001B1A13F4004F08BF0A461821062359
:102D500013FB02130BEB03025BF803306360137980
:102D600003F01F0323721EF011FA237A43EA401383
:102D7000237211B0BDE8F08F0F9B022B7FF425AFBB
:102D80000221002010F020F80F9B022BF8D01CE746
:102D900043EA1233DBB2CAB2BFE700BFAFF3008031
:102DA00000CA9A3B0000000094360020AD8D01005F
:102DB000341C0300B81B030000FB0200C01B03000F
:102DC000F01B0300BFBDF07F83DE1B438D49FD1A5E
:102DD00089888888B5814E1B38B50023C1E9053341
:102DE0000C460B70F2B1517893783E31C3F3050372
:102DF000C91AC9B2204616F0DDF80F4A0F4B072159
:102E0000E0FB0231002518463123A360656008A36A
:102E1000D3E90023E560FEF7ADF820F07F402061A4
:102E2000284638BD91F8453001EB83039A6CDAE708
:102E30008D49FD1A0700000000CA9A3B8C49FD1A13
:102E40002DE9F047B1F860500E4640F2E2418CB0F7
:102E5000904601FB05F568221D4930461F460EF0DD
:102E600033FA04461B4802230B93A5FB000116A36B
:102E7000D3E90023FEF77EF80DF12C0ACDF820A04F
:102E80000696194633691F44134B0793134B05935A
:102E900000258146002310464FF47A72CDE903578E
:102EA000FEF768F80634E4B2CDE9019043462246C5
:102EB0000095284603210FF01FFE514611F06CF8D3
:102EC0000CB0BDE8F08700BF8D49FD1A0700000077
:102ED0009436002000CA9A3B013001001D8E01008B
:102EE000F0B58A784B7803F13E01C2F30503C91AA5
:102EF0008BB0C9B2044616F05DF81D491AA3D3E998
:102F00000023A0FB0101FEF735F8266920F07F457C
:102F1000AE4220D9761B0027022316490993682266
:102F200020460EF0D1F9002313490296821D09AE06
:102F30000591CDE903330321D2B2019700931846DE
:102F400006960FF055FE314611F026F838B9256186
:102F500000200BB0F0BDFBD2AF1B0026DCE70C203D
:102F60000BB0F0BDAFF300808D49FD1A07000000E3
:102F700000CA9A3B94360020013001000000000096
:102F80002DE9F04F06468DB08A4601200221994670
:102F9000154621F063F900220B90022101200EF06A
:102FA00003FA3B494FF4EC7230460EF08DF9C71D21
:102FB000FFB2384B00963A46012100200FF030FE58
:102FC00010F0FD0F0ED0344A3449354840F6320334
:102FD00003F058F8002383F31188BFF36F8F0323A6
:102FE000184602DF2F4CA5FB044527A3D3E9002395
:102FF00020462946FDF7BEFF0896069633690493DE
:10300000294B20F07F48A8FB0331E01A274B079398
:103010004FF00702264B059302FB08114FF6FE7393
:1030200065EB010103934FF47A720023FDF7A2FFD1
:103030004FF0000BCDE90180CDF800A04B463A4699
:10304000012158460FF058FD10F0FD0F0DD0124A27
:103050001249134840F6470303F014F88BF3118824
:10306000BFF36F8F0323184602DF0B9B13B90DB01C
:10307000BDE8F08F0122022110460DB0BDE8F04FEF
:103080000EF092B9AFF300808D49FD1A07000000E1
:10309000E8110020CDA20100E81C0300A01D0300E0
:1030A00000FB020000CA9A3B8D49FD1A6DA2010087
:1030B000E5F70100000000002DE9F0438468228D4F
:1030C0004FF6FF739A428DB000F088800546204687
:1030D00019F09CFD2B7D012B00F00F81022B00F0DD
:1030E0000281002B00F0E18094F88071002F40F005
:1030F000FD80E68DB4F83080002E72D12A8A08F166
:1031000001060023CDE90A33B6B2002A71D094F942
:103110003930002BC0F248810023A4F8BA31AB7CCF
:10312000D90740F1F0800023A4F8BE310DF1270249
:103130003146204619F008FB743000F04781B4F89E
:10314000B8312BB1B34240F20E819B1BA4F8B831C9
:10315000B4F8B4312BB1B34240F2FC809B1BA4F80D
:10316000B431258E17B9A84500F0EB800135ADB21A
:1031700094F8D13013F001065BD1DDE90A130A4659
:10318000002B40F0EE80002900F0DD801E4618463E
:10319000228DE4690694CDE903570732A84D0290C9
:1031A000CDE90016D2B20121002005950FF020FDD7
:1031B00010F0FD0F12D010F019FF84420ED0A14A7A
:1031C000A149A2484FF4A36302F05CFF002383F3FC
:1031D0001188BFF36F8F0323184602DF0DB0BDE8DF
:1031E000F0832A8A46440023CDE90A33B6B2002A86
:1031F0008DD1AB7CDA0796D4B4F8BA31002B00F04D
:103200008280B34240F2FA809B1BA4F8BA31B4F832
:10321000BE31002B8AD09E4280F0DE809B1B9BB289
:103220000022062BA4F8BE31228600F2AC800127D2
:103230007CE794F939206FF30003002A84F8D13039
:1032400077DB94F87600C0F3C00100F007001DF0B2
:1032500075FDB4F86E20B4F86C30134403F2D51346
:1032600003447B4A7B480721E3FB0021104672A3FD
:10327000D3E90023FDF77EFEDDE90A1320F07F424B
:1032800020692261904235BF161A801A002000265C
:103290000A46002B7FF47CAF56EA010C7FF478AF2E
:1032A000002850D019461E4672E794F88E3003F07D
:1032B0001803182B7FF418AFA18DB4F8B6218B1D1D
:1032C0009A42C4BF931F5B1AB4F8B211CCBF9BB231
:1032D0001346994200F08C80A4F8B231A4F8B431BE
:1032E000A4F8B82100E73D2784F8807139462046CC
:1032F0000DB0BDE8F04317F01FBC0023A4F8B831AF
:10330000A4F8B431F0E6B4F8BE31002B83D1628D5D
:10331000B4F8BC3140F2E24101FB02F242F210711A
:1033200001FB0323013BB3FBF2F39BB2A4F8BE31D4
:103330006FE794F87700012100F007001DF000FD11
:1033400087E73D4614E7002D4BD000261146304656
:1033500033461DE70023A4F8B431204619F096FA4D
:10336000FFE6304614E710F0ABFD014600283BD0E5
:103370000023A4F8B831238DC3801B230371006898
:1033800010F070FDE4E694F939309342BFF6CEAE0A
:10339000B8F1000F7FF44BAFD4F8A8315A08DB071F
:1033A00043D4C4F8A821C1E628460AAA0BA904F50B
:1033B0008279FEF709F8484618F0A4FF18B348468A
:1033C00018F0A0FF18B300232386A5E69DF8271068
:1033D000204617F0B1FB01E70821204617F0ACFBAF
:1033E000FCE6002FB1D1F9E60123A4F8B831AFE62D
:1033F000B4F8B81100297FF477AE6FE73E2120467C
:1034000017F09AFBEAE6FF2017F050FBD7E70246D9
:10341000D4E91E010DF090FF0028D4D194F83C307F
:10342000580744BFA38D238676E642F00042C4F8D5
:10343000A821FCE6AFF300808D49FD1A07000000CB
:1034400029A20100E81C0300EC1D030000FB0200A0
:103450008C49FD1A00CA9A3B2DE9F04F87B0CDE99F
:103460000423BDF8442003780292BDF84820BDF83B
:103470004080BDF84C50468EB0F82E90B0F844B164
:10348000019104460392002B00F08F80013EB6B2FA
:10349000A368D4F83C71721B92B2002B009209DA37
:1034A000E168626823F0004391422CBF7F18BF1887
:1034B000A360FF1A009A638D13FB02F39BB2B3FB68
:1034C000F8F218FB02F080B283421FFA82FA5BD254
:1034D000C01A40F2E2425E4902FB00F0A0FB01018B
:1034E00059A3D3E90023FDF745FD20F07F400744B1
:1034F000D94494F839304D44AD1B554440F2E2466E
:10350000DB09E58506FB08F553D1524A5249534879
:1035100040F6BD0302F0B6FD002686F31188BFF326
:103520006F8F0323184602DFA946029BA385039BE6
:10353000A4F8BC3129462046A4F82A8019F040F9A5
:10354000474BA18D2B44881DB3FBF5F39AB29042F3
:10355000A4F8B62102D2521A063A92B2019BA4F8FC
:10356000B22113B10023A4F8BE313B464A4631468E
:103570002046FFF705FD94F8B03143F0010384F8CD
:10358000B03107B0BDE8F08F08FB1231304840F28F
:10359000E24389B203FB01F1A1FB00012AA3D3E9B5
:1035A0000023FDF7E7FC3F1AA2E74E445E44B6B2A3
:1035B0006EE7226C0099A36CDFF894B002FB113324
:1035C000A3641DF0E5FD814694F8A401C0F3420018
:1035D0001DF0E2FD049B814406FB03F305FB09F9A2
:1035E000236509F574291F4B09F23F29A3FB09390B
:1035F0004FEA994303FB0AF02364A5EB0309A36C8C
:103600006A080344963A934228BF1346C4E911233B
:103610000023C4F8AC31A0FB0B010BA3D3E90023BA
:10362000FDF7A8FC104B059A3F1AA3FB0230800A55
:1036300006FB00F004A3D3E90023A0FB0B01FDF778
:1036400099FC20F07F4670E78D49FD1A07000000C5
:1036500000CA9A3BE81C03002044030000FB020060
:103660007FC3C90183DE1B435917B7D10000000097
:103670002DE9F04F04460B68D0F81E00D3F8008007
:10368000638C166893B00F46ADF84430237F2168F1
:103690000A91C3F3801B1090CDF82CB012A911E948
:1036A00003004FEAD31A08F19D0915460E90ADF8B4
:1036B0003C100EAB5A465046494617F025F90028F3
:1036C00040F0BF8196F8CA11BDF83C200C906BF316
:1036D00041010E98C6F8D1016AF3000186F8CA11BB
:1036E000A6F8D521D8F89D20C6F8CB21B9F804203A
:1036F000A6F8CF21E28D94F83010A9722A81D4F86F
:103700002A206A60D4F83A20AA6105F1180094F8DA
:103710003E20027105210DF0C9FF6A7F00F03F00D5
:1037200060F305026A7794F83F20C2F30401A97799
:10373000A18EE981012802F01F0289B240F2818145
:103740001B3202F01F020B2A00F27B810C9B002926
:1037500000F077813A685360E38E2B82B5F80E90C3
:10376000D8F85420618E0C9140F2E24303FB09F932
:10377000002A00F0EB8198F8251040F6C41240F6BC
:10378000A6637F2988BF1A460D920021304619F0A2
:103790002BF894F83F3096F8A4215B0963F34302B9
:1037A00086F8A4211DF0F4FC824696F8A401C0F32B
:1037B00042001DF0F1FC0AEB000309FB03F3CC4AC5
:1037C00003F5742303F23F23A2FB03239B0C6B62DC
:1037D0004FEA5903963BAB6294F8313040F2E24233
:1037E00002FB03F3AB63238FA6F8BC314946304696
:1037F00018F0E6FFBF4BC04AC6F8C0214B44B3FBEC
:10380000F9F39AB2A6F8B621298A881D824204DD0E
:10381000C1F57F41FA310A4492B2A6F8B2216B6831
:10382000C6F8A831D8F85430002B00F08B814FF047
:10383000010AE20700F148819DF82C30A377BDF81A
:103840003C30A4F823300E98C4F81F004FF4807366
:10385000A383EB89E3842B8A2385B6F8BC31638587
:1038600096F8A431C3F3420384F82C30304616F0A6
:1038700069FD0423A881E08085F8B73021460A98C5
:103880007C6810F0E3FAAB89E3801C23D4F800B025
:103890002371BAF1000F40F00E8184F81CA011F0E2
:1038A0001BF8002840F0ED802146584610F0DAFA67
:1038B00095F85B00B5F85040B5F852A0012100F032
:1038C00007001DF03DFAA2440AF2D51A82440446CC
:1038D0008A4A8B480721EAFB002131234FF0000A76
:1038E0001046B360C6F804A07FA3D3E90023C6F84E
:1038F0000CA0FDF73FFB20F07F4030610C99FB6886
:103900006D6A40F2E24202FB01330D99303B1944EB
:103910000C1B5246022101200DF046FDD8F8543010
:10392000A9EB0505B3B1D3F80090484614F02AF985
:10393000021D744BCDF80090D2B2012150460FF019
:103940006FF9012800F0198199F862306FF30003D4
:1039500089F86230404613F079FB8246684862A3DA
:10396000D3E90023A4FB0001FDF704FBCDF804809C
:10397000BB686449009120F07F490AF102023A3B9A
:10398000D2B24B44012100200FF08CF9012800F045
:10399000DF8098F82430DB076BD4304616F0D2FC79
:1039A000574BA5FB03A804464FA3D3E90023504679
:1039B0004146FDF7DFFA544BBF68544A079220F0A6
:1039C0007F45A5FB0331BAEB0300514B059340F251
:1039D000D1130696089333694FF0000BCDE903B37A
:1039E0004FF0070303FB051168EB01014FF47A72F6
:1039F0000023FDF7BFFA07343A3FE4B2CDE90150A6
:103A0000CDF800903B462246012158460FF074F84D
:103A100010F0FD0F0DD03F4A3F4940484FF4E97385
:103A200002F030FB8BF31188BFF36F8F032318462E
:103A300002DF0122022110460DF0B6FC13B0BDE8F2
:103A4000F08F0022C8F8142095F820300A9862F30D
:103A5000000385F82030E56801262146267110F024
:103A6000F5F928682E71294610F0FCF913B0BDE86D
:103A7000F08F002301220093184611460FF0D0F872
:103A80008BE72146584610F0E1F9D8F850404046FF
:103A9000D4F800B013F0DAFA5FFA80FABAF1010F45
:103AA00040D800231222A4F806A023722271AA890A
:103AB00062816372F8E66B7F43F040036B77281DE9
:103AC0001CF0D2FAE883E8E6124A15491348F823B5
:103AD00002F0D8FA002383F31188BFF36F8F03231A
:103AE000184602DFA8E600BF8D49FD1A0700000056
:103AF00083DE1B437FC3C901404B4C008C49FD1A38
:103B000000CA9A3BA5F701008D49FD1A71F7010023
:103B1000E5F70100CC220300A01D030000FB02001A
:103B2000441703001F4A204920484FF4A67302F0AF
:103B3000A9FA002383F31188BFF36F8F032318467C
:103B400002DFAEE7237FC3F3401A72E60D931CE653
:103B500010F04CFA80453FF41CAF124A1449134848
:103B600040F2792302F08EFA002383F31188BFF329
:103B70006F8F0323184602DF0BE710F037FA8145F9
:103B80003FF4E2AE074A0A49084840F2792302F0BE
:103B900079FA8AF31188BFF36F8F0323184602DF87
:103BA000D2E600BFCC2203002C18030000FB020069
:103BB000282303000000000038B503460438C0B2D3
:103BC00001280D4616D9062B2DD0D81FC3B2012BC4
:103BD00002D90024204638BD80B216F0BBFB044653
:103BE0000028F6D090F93930002BF2DB03692B6006
:103BF000204638BD14F066F804460028E9D0FF22BC
:103C0000114614F06DF8104A104B0721E0FB023109
:103C100018460BA3D3E90023FDF7ACF920F07F4051
:103C20002860204638BD002015F0A6F9044600287B
:103C3000CFD0FF2115F0BEF9E5E700BFAFF300805C
:103C40008D49FD1A0700000000CA9A3B8C49FD1AF5
:103C50002DE9F04F8FB00DF137010446DFF8F0A0E9
:103C6000DFF8F0800DF1360010F06CF99DF8363079
:103C70009DF837B00B930FF0BFF8DAF80060A6FBA1
:103C8000085631A3D3E90023002781463146284650
:103C9000FDF770F9CDE90777069420F07F44DAF854
:103CA00004002D4B0593A0FB080127A3D3E90023B3
:103CB000FDF760F9294B20F07F40A4FB0331072278
:103CC00002FB0411CDE90370E81A66EB01014FF421
:103CD0007A720023FDF74EF90097CDE901404B467B
:103CE0000B985A4603210EF007FF10F0FD0404D094
:103CF0006FF08B000FB0BDE8F08F1948194A002310
:103D000027F09EF820B9DAF80C000FB0BDE8F08F6C
:103D10009DF837209DF836000094234603210EF0CD
:103D20007FFF10F0FD0F0CD00F49104A1048E4231C
:103D300002F0A8F90F4802F0A5F90C48E42102F0BE
:103D400097F96FF07300D5E78D49FD1A0700000061
:103D50008042002000CA9A3B750202008D49FD1A7C
:103D600068420020447B0B009824030028240300B1
:103D700000FB0200E024030038B50F4D04460FF0AD
:103D80003BF8A9680FF03AF8696803460B48B3FBA3
:103D9000F4F4A1FB00011C4405A3D3E90023FDF7C3
:103DA000E9F820F07F40844294BF0020012038BD14
:103DB0008D49FD1A070000008042002000CA9A3B8E
:103DC000F0B5C468636883B00546002B56D11FF078
:103DD000BDFC94F940001FF0E3FCA17A607A01F089
:103DE0000101C0F382001FF0CDFC627A252102F0B0
:103DF0001C0208201FF03CFD3D4B019301A81FF061
:103E00001FFD3C4940F25B601FF0D2FD237AC3F3F3
:103E1000420262F30613237220461DF057FC276806
:103E20002E6838461CF024FF06446A6806F1090132
:103E3000012020F009F820F0F7F8204613F012F9DD
:103E4000811C3246C9B238461CF020FF054600BB33
:103E500020461CF081FE10B9002003B0F0BD264AB8
:103E60002649274840F22C4302F00CF985F31188CB
:103E7000BFF36F8F0323184602DFEDE793F820307E
:103E80009B07A4D01F4821461FF01EFC1FF040FDD9
:103E9000E2E7194A1C491A4840F2144302F0F2F8CA
:103EA0001A4B0721A5FB030301FB05310EA3D3E940
:103EB0000023FDF75FF816490246164802F0E2F8C3
:103EC000002585F31188BFF36F8F0323184602DFA7
:103ED000114821461FF0F8FB1FF01AFD6FF08B0010
:103EE000BBE700BFAFF3008000CA9A3B00000000B0
:103EF000D6BE898E555555004C2703001416030075
:103F000000FB0200450E0200204403008D49FD1A0B
:103F100004280300C4270300FD1102000000000074
:103F20002DE9F047C46882B0002380460DF10301FB
:103F300004F1140066688DF803301DF085FB05461A
:103F4000002800F0CA80337B06EB83031F693B78AF
:103F500003F00F03072B0DD08D4A8E498E489F2307
:103F600002F090F8002383F31188BFF36F8F0323CF
:103F7000184602DFBB7813F03F0976D0FB78D807EC
:103F80004CBF07F10A023A1D990748BF06321807CD
:103F900048BF0232D90640F19980937851781B02CC
:103FA00003F4F8530B4300F09180238992F800A0AA
:103FB000013323811FF0CAFB96F940001FF0F0FB8C
:103FC00096F80990B17A4FEA591901F00101484673
:103FD0001FF0D8FB4FEA8902FF2108201FF048FCA0
:103FE0006E4B019301A81FF02BFC0AF03F0A6C49AD
:103FF00040F25B601FF0DCFC50461CF059FE284686
:104000001FF070FCBB783F2B3DD8AB789A0602D0EE
:10401000EB78DB066FD4634821461FF055FB1FF099
:104020009DFE2668D8F8005030461CF021FE05445D
:1040300005F10901D8F8042001201FF005FF1FF049
:10404000F3FF204613F0A8FD011D2A46C9B23046F1
:104050001CF01CFE054600286DD120461CF07CFD9E
:1040600028BB002002B0BDE8F087494A4E494A48C3
:10407000AB2302F007F889F31188BFF36F8F032396
:10408000184602DF7AE70DF1030106F120001DF06A
:10409000DBFA0546002840D0214644481FF014FBB7
:1040A00096201FF0C5FE48461FF0A2FDB9E7384A2A
:1040B0003F4939484FF4AD7301F0E4FF85F31188AF
:1040C000BFF36F8F0323184602DFCAE73948214642
:1040D0001FF0FAFA1FF01CFCC3E72D4A36492E48A0
:1040E0008A2301F0CFFF85F31188BFF36F8F03237D
:1040F000184602DF27E721463048A5621FF0E4FAA0
:104100004FF496701FF094FEB37A03F00103194642
:104110004A4648461FF0FAFD83E71D4A28491E48D3
:10412000F12301F0AFFF85F31188BFF36F8F0323F5
:10413000184602DFB0E7164A2249174840F24913F1
:1041400001F0A0FF204B0721A5FB030301FB053174
:104150000DA3D3E90023FCF70DFF1C4902461C48C0
:1041600001F090FF002585F31188BFF36F8F0323C3
:10417000184602DF0B4821461FF0A6FA1FF0C8FBC5
:104180006FF08B006EE700BF00CA9A3B0000000092
:10419000102803006828030000FB0200D6BE898EA9
:1041A00055555500651F0200902803008920020024
:1041B00014160300B921020060280300B51F020095
:1041C000B8270300204403008D49FD1AB0280300DE
:1041D000C427030000000000F0B5C4680189228AEA
:1041E000A38A0A4492B213440646628298B294F8B3
:1041F000242094F82530411CA1829A424FF00001FE
:1042000083B0218205D0E18C411A090402D484F8DC
:1042100024301A4602EB420304EB430306215B7F82
:1042200001FB02421832E18A03F03F031BF020FF3A
:1042300005461FF08BFA636893F940001FF0B0FA4F
:1042400063685F7A997A7F0901F0010138461FF0AF
:1042500099FABA00FF2108201FF00AFB04F10800B8
:104260001FF0EEFAA389A17B40F25B6043EA0141B3
:104270001FF09EFB28461CF01BFD00210DF10302E0
:1042800004F128008DF803101DF014FC05460028E9
:104290005CD001AA294620461FF06CF828461FF082
:1042A00021FBAB789A0602D0EB78DB0624D4444895
:1042B00021461FF009FA1FF051FD2768356838467E
:1042C0001CF0D6FC054405F10901726801201FF0BD
:1042D000BBFD204614F058FE811D2A46C9B238465F
:1042E0001CF0D4FC054600283ED120461CF034FCCE
:1042F000B8B9002003B0F0BD3248E56321461FF095
:10430000E3F94FF496701FF093FD94F8403013F0EA
:10431000010315D000233A463846194620F026F905
:10432000CBE7294A29492A4840F2071301F0AAFE9F
:1043300085F31188BFF36F8F0323184602DFD8E798
:1043400019463A4638461FF0E1FCB6E71E4A2149B5
:104350001F48B02301F096FE85F31188BFF36F8FDD
:104360000323184602DF94E7174A1B491848F7232E
:1043700001F088FE194B0721A5FB030301FB053162
:104380000DA3D3E90023FCF7F5FD154902461548B6
:1043900001F078FE002585F31188BFF36F8F0323AA
:1043A000184602DF104821461FF08EF91FF0B0FAC0
:1043B0006FF08B009EE700BF00CA9A3B0000000030
:1043C000B925020099260200BC2803001416030038
:1043D00000FB020064280300204403008D49FD1AFD
:1043E0000C290300C4270300050E02000000000092
:1043F0002DE9F041C468A2894FF6FF739A4282B05A
:1044000000F0F98005461EF06DFA2B89628AE08A79
:104410001A4492B21044637FA28280B2411CE182AE
:104420005E064FF00001618204F1180100F1B780CF
:1044300003F03F000B46A17F009004F11F001BF02A
:10444000CBFD0646D4E90B321A44D4E90D03002112
:10445000E1626163A16A03448A42A36394F8723003
:1044600028BF0A46226313F0040200F0A4801FF064
:104470006DF994F9B7001FF093F9201D1FF0E0F9D2
:104480002389A17A40F25B6043EA01411FF090FA70
:1044900030461CF00DFC724821461FF015F996209D
:1044A0001FF0C6FC94F85B0000F00703042B7ED0DD
:1044B000002104F1B9000DF0E1F80178CB0740F1DB
:1044C000978094F85B30477B03F007030193012347
:1044D000421C00934908334607F003001EF094FF86
:1044E00094F8B83066F3460384F8B83094F85B006B
:1044F000012394F85A2000930021C2F3C00300F076
:10450000070002F007021FF0E7FB20461EF04CFAFE
:1045100027682E6838461CF0ABFB06446A6806F133
:10452000090100201FF090FC80461FF051FD002083
:104530001FF068FD236B94F85B0003F13002A36B5E
:1045400000F00700012103EB42051FF0D9F94544B3
:10455000054494F85B0000F00700022829D00428E5
:104560000CBF4FF4BC73282301211D441FF0CAF96E
:1045700028441FF01FFD1FF003FCA18907313246BC
:10458000C9B238461CF082FB054600283AD12046C5
:104590001CF0E2FAE8B9002002B0BDE8F0810A465A
:1045A00003F03F03E18B1BF063FD06464AE700235F
:1045B0009FE71823D8E7D4E917010CF0BDFE0028C7
:1045C0007FF455AF94F8723043F0040384F87230EE
:1045D0004DE7244A2449254840F2551301F052FD85
:1045E00085F31188BFF36F8F0323184602DFD2E7EC
:1045F0001EF028FF7AE71E4821461FF065F81FF0DD
:1046000087F9C8E7174A1B49184840F24B1301F0D5
:1046100039FD194B0721A5FB030301FB05310EA34F
:10462000D3E90023FCF7A6FC14490246144801F024
:1046300029FD002585F31188BFF36F8F03231846EA
:1046400002DF104821461FF03FF81FF061F96FF0BC
:104650008B00A1E7AFF3008000CA9A3B0000000086
:10466000DD2C02008C2903001416030000FB02005D
:10467000450E0200204403008D49FD1AE029030085
:10468000C4270300050E0200032942D870B5044672
:1046900072B3072A02D06FF0850070BDD3E9002005
:1046A0001F4BC117C2FB0301012871F1000326DB78
:1046B0001C4BC01841F1000117A3D3E90023FCF7FC
:1046C00009FCB0FA80F566682469C5F11E05EDB2F3
:1046D0002946304603F05AFA0028DED1337EB3FA79
:1046E00083F35B0905EB4305F422AA40E28070BD29
:1046F00001691A884068BDE8704022F043BD0A4B4A
:10470000C01861F1000104A3D3E90023FCF7E2FB28
:10471000D7E76FF0850070473AA3950000000000CE
:1047200040420F009DD14A00632EB5FF704700BF85
:10473000014826F0C9BF00BFC81800202DE9F04786
:104740000B78023B0C46042B07D8DFE803F00D3949
:1047500003470800284B4A681A60BDE8F087274BDA
:104760000A791A60BDE8F087254DCB68B5F800A03E
:10477000534453453DD9234EDFF88C80234FDFF857
:10478000909010E03B68642B13D809F803100133B4
:104790003B608368DB6998472A88E3680AF1010A6D
:1047A0001344534525D96368306813F80A100D295E
:1047B000E8D183685B699847404626F085FFEBE7C0
:1047C000104B0F4A18680C49836809681B6900245C
:1047D0001480BDE8F0474FF480721847074B1A6801
:1047E000002ABAD000221A60BDE8F047094826F036
:1047F0006BBF2B80BDE8F087C8020020B4180020F2
:10480000B4580020B0180020D8180020E818002064
:10481000EC180020B8180020F8B5094F0546441ED2
:10482000C0F1010605E0386814F8011F8368DB69F0
:1048300098472846FCF73BFD33199842F3D8F8BD5A
:10484000B018002010B5084C206883685B69984751
:1048500040F6CD40002128F031FD20680021BDE860
:10486000104002F0C9BE00BFB018002010B5094BBF
:10487000186884680849E46801234FF48072A047EF
:104880006422064800212AF04CFE054B00221A60E3
:1048900010BD00BFB018002050190020EC180020F7
:1048A000E818002030B54A4C4A48206083B025F013
:1048B0000FFB002800F0868029F06CFA4B014501BF
:1048C0002D1A43EAD06363EB01039B0043EA95731F
:1048D000AD002D1841EB0301CB0043EA5573C5F33E
:1048E000103545EA4345206883681B6A002B46D093
:1048F0009847002843D12568AB681B68002B61D01E
:10490000024635492846984700285BD12068012196
:1049100002F072FE206882683049D56801234FF4A6
:104920008072A847054600284CD1014664222C48D5
:104930002AF0F7FD2B4B20681D6083685B6A002B13
:1049400040D029499847044600283BD127492848A8
:1049500026F0CAFD2749284826F0C6FD27492848E1
:1049600026F0C2FD002200232648CDE900234FF4A3
:10497000A022002329F034FB204603B030BD29F0EB
:1049800009FA4A014FEA401CBCEB000C42EAD06233
:1049900062EB010292004FEA8C031B1842EA9C7200
:1049A00041EB0201C90041EA5371C3F3103343EAFA
:1049B00041435B1BB3F57A7F95D96FF00404204621
:1049C00003B030BD6FF00D04204603B030BD00BF12
:1049D000B018002070F602003D470000501900207A
:1049E000EC180020E8180020B4FA02000D4D000079
:1049F000D818002045480000C81800206D48000065
:104A0000B818002038070020F0B5A5B004461646B7
:104A10000D46642200210BA82AF083FDA24804223F
:104A200021462AF0E1FC10B9042D00F0B9809F481E
:104A3000092221462AF0D8FC034610B9092D00F0BE
:104A4000BC809B48072221462AF0CEFC10B9072DD6
:104A500000F0DA802378412B05D16378542B02D102
:104A6000022D00F095809348062221462AF0BCFCD6
:104A700010B9062D00F08F808F480A2221462AF0B7
:104A8000B3FC074610B90A2D00F0F58021468B488B
:104A900009222AF0A9FC014650B38948092221467F
:104AA0002AF0A2FC08B9092D67D0214685480922C1
:104AB0002AF09AFC014600283AD10D2D38D92AF067
:104AC00041FD814F05460A2204F10D00E9512AF00B
:104AD000A9F9EB59002B40F0AF80002800F0DE80F0
:104AE00001283CD100F0C0F97848B047012039E0F6
:104AF000092DD2D92AF026FD734F05460A2204F16A
:104B00000900E9512AF08EF9EB5943BB082826DC4D
:104B100010F1140FC0F2B9806D4B00F11402D340B4
:104B2000DB071CD540B200F083FF6848B047DDE7E3
:104B30002146684809222AF057FC0146A0B9092DF0
:104B400012D92AF0FFFC604F05460A2204F10A0040
:104B5000E9512AF067F9EB59002B00F085805E4897
:104B6000B047002025B0F0BD5C48092221462AF05C
:104B70003BFC0028F3D10120F4E707A800F082FFF6
:104B80009DF91C2056490BA82AF024F90BA8B04720
:104B90004E48B047AAE75348B0475348B047A5E747
:104BA0005249534B534A00910BA853492AF012F92A
:104BB0000BA8B0474C48B04798E707AC079303A849
:104BC000C4E90133237300F0D3F99DF80C30002BB6
:104BD00035D0DDF80D00BDF81130059005ADADF80C
:104BE00018300D2322460621284601F06FFA204690
:104BF00000F002FA414922460BA82AF0EBF80BA874
:104C0000B0473948B04771E707AC05AD22462946A1
:104C100003A8FCF755FB074608B93948B0472246B8
:104C2000294603A800F058FEB8B93648B04700F04E
:104C300095FE08B93448B0472748B04756E7DDF835
:104C40000F309DF80E208DF818201BBA05939DF8A3
:104C50000D308DF8193005ADC3E700F07FFE002858
:104C6000E8D0002F94D1E7E781B2084600F046F97A
:104C700000288DD173E71548B04741F69A100021FE
:104C800028F01CFB384601F00BFA10F1280F3FF416
:104C900049AF10F11E0F3FF445AF60E700F0FEF89A
:104CA0000A48B04722E700BFB4F90200D8F9020071
:104CB000F4F9020040FA02005CFA020068FA02000D
:104CC00074FA02008CFA02000C0000002CFA0200B8
:104CD0001111D11F9CFA020034FA0200A8FA020056
:104CE00080FA020048FA0200D0F90200DCFE02005D
:104CF000A0F9020078F90200BCF90200E4F9020010
:104D0000FCF902000CFA02001CFA0200F8B5174F79
:104D1000174C3B68632B28BF632300222046E254D4
:104D2000FCF7C5FA134A01462046FFF76DFEC0B9ED
:104D30000F48114E114D642200212AF0F2FB00238E
:104D40003B60306882680123D46829464FF4807242
:104D5000A0470446A420002128F0B0FA002CF0D18E
:104D6000F8BD074829F0AEF9E2E700BFE8180020D7
:104D7000EC18002019480000B0180020501900203D
:104D8000380700202DE9F04F85B014461D468B46AC
:104D9000FBF708FB2C4BDFF8B4902D4E9DF938A0A3
:104DA0002C4FDFF8B4800022FBF790FCFBF79EFD50
:104DB000A9F800005846FBF7F5FA234B0022FBF751
:104DC00085FCFBF793FD73692268616899605A60FE
:104DD00022899A8173692A68C3F80E20AA885A82A8
:104DE0007369A8F8000083F803A01C4B1C4800213D
:104DF0003A46197007F034F910B105B0BDE8F08FEC
:104E00000090314603460322386807F0A7F9154998
:104E100038680CF03DF90028EFD1B9F80010B8F867
:104E20000020ADF808104FF480433868ADF80A2030
:104E300002A9039307F050FA0028DED138680CF07D
:104E4000D9F905B0BDE8F08F0000F43FB858002054
:104E5000CC020020501B0020B6580020C65800206D
:104E60000C0300200403002038B5094C237803B15B
:104E700038BD084D286807F0B1FA0028F8D1064976
:104E8000286807F09DF90028F2D10123237038BD6E
:104E9000C6580020501B0020541B002038B5114C70
:104EA000237803B938BD104D286807F09BFA28B95C
:104EB000286807F00BF958B9207038BD0B490C4829
:104EC0000C4AC52301F0DEF80A48C52101F0D0F8EC
:104ED00009490748074AC62301F0D4F80548C62106
:104EE00001F0C6F8C6580020501B0020DCFA020072
:104EF00000FB0200BCFA020020FB020030B583B0C8
:104F00000C46FBF74FFA0022154B164DFBF7DEFB64
:104F1000FBF7ECFC03462B802046FBF743FA104BD3
:104F2000114C0022FBF7D2FBFBF7E0FC2080FFF7DF
:104F3000B5FF0E4B22882D881868ADF802204FF47B
:104F4000804369460193ADF8005007F0C5F9044667
:104F5000FFF78AFFB4FA84F0400903B030BD00BF08
:104F60000000F43FB8580020B6580020501B002025
:104F70004FF01023D3F8802001321BD04FF01023C4
:104F80000021D3F88420120A4270D3F88420827062
:104F9000D3F88020120EC270D3F88020120C027158
:104FA000D3F88020120A4271D3F880300170DBB24E
:104FB00083717047D3F884300133DFD14FF08053D1
:104FC0000121D3F8A820120A62F03F024270D3F800
:104FD000A8208270D3F8A420120EC270D3F8A420A7
:104FE000120C0271D3F8A420120A4271D3F8A43033
:104FF0000170DBB28371704710B50446FCF757F9B6
:1050000070B1631E074C184413F8012FA15C01F026
:105010000301022904BF203AD2B298421A70F3D198
:1050200010BD00BF4D44030010B5134CA368DB69ED
:1050300082B01BB1114900222046984763681B6863
:105040005B070AD5A3680C485B6801A998470C4820
:1050500002B0BDE8104025F0ABBE0A490A4A0B4831
:1050600040F2FF5301F00EF8094801F00BF8064832
:1050700040F2FF5100F0FCFF28F60200741B0020F4
:105080005C1B002078FB020044FB020000FB0200D6
:10509000B8FB02002DE9F041564E574C84B04FF05A
:1050A000FF324FF0FF33304625F0CAFE002840F0B3
:1050B0009F8028F06FFE4B014201121A43EAD06331
:1050C00063EB010397009B003F1843EA927341EBA7
:1050D0000301CB0043EA5773C7F3103747EA43474E
:1050E000002140F6CD4028F0E9F863681B685907B5
:1050F00024D523690193A36803A95B6820469847D8
:1051000028B9019A039B126853405A0732D5D4F844
:105110000480D8F800305B0710D523690193A36899
:1051200003A95B6820469847B8B14FF4A4700021EA
:1051300028F0C4F8D8F800305B07EED42F49304A85
:10514000304840F2FF5300F09DFF2F4800F09AFFD7
:105150002B4840F2FF5100F08BFF019A039B12682D
:10516000534003F004054FF4A470002128F0A6F882
:10517000002DCED1254A13680133136028F00AFEB2
:1051800045014B012D1A43EAD06363EB01039B00F9
:10519000AA00121843EA957341EB0301CB0043EADE
:1051A0005273C2F3103242EA4342D21B4FEAD33366
:1051B00063F100031649B2F57A7F73F10003A8BFCB
:1051C00001200B68B8BF00209847A368DB69002B5B
:1051D0003FF465AF0F490122204698474FF0FF3258
:1051E0004FF0FF33304625F02BFE00283FF461AF2F
:1051F00004F030F95C1B002028F6020078FB020066
:1052000044FB020000FB0200B8FB0200581B002018
:10521000801B0020741B002030B5344B83B0186015
:10522000334C204624F054FE08B903B030BDD4E915
:1052300001351B6821695A0739D50B682D4A43F09F
:1052400004030B602B680221204698470028ECD10C
:1052500001220146284825F09BFD284826F0E4FD60
:1052600027492848EB690422C1E9010213B1012250
:1052700020469847D4E901239D6923690092019350
:10528000002DD2D013685B0720D5019B18481B68FE
:1052900013F0040F14BF4FF000734FF080634FF012
:1052A000A0720221AC4603B0BDE830406047164909
:1052B000164A174840F2ED3300F0E4FE154800F0BE
:1052C000E1FE124840F2ED3100F0D2FE0E490F4AE5
:1052D0000F4840F28B3300F0D5FE0E4800F0D2FEAE
:1052E0000A4840F28B3100F0C3FE00BF801B002053
:1052F00028F60200110001005C1B00205809002064
:10530000741B00202950000078FB020044FB0200BF
:1053100000FB0200B8FB02002DE9F843444E306860
:1053200024F0D6FD002878D0F06824F0D1FD0028C4
:1053300069D0B06924F0CCFD00285AD0344606F17B
:1053400024080127E3882068217943F4202203F010
:105350003005302DD0E901E9D0F810C01FD003F09E
:105360000605042D39D0DEF8005007FA01FE1EEACA
:10537000050F23D0DCF80050DB074CBF4EEA0505D3
:1053800025EA0E05CCF80050D9F800300C349847C7
:10539000A045D7D1012386F82430BDE8F8832549FC
:1053A000254A264840F2D33300F06CFE244800F032
:1053B00069FE214840F2D33100F05AFE21491E4ACD
:1053C0001E4840F2ED3300F05DFE1F4800F05AFE2B
:1053D000194840F2ED3100F04BFE1C491748164ABF
:1053E00040F2DA3300F04EFE134840F2DA3100F0BA
:1053F0003FFE17491148174A2F2300F043FE154876
:105400002F2100F035FE14490C48124A2E2300F0DB
:1054100039FE10482E2100F02BFE104907480D4A96
:105420002D2300F02FFE0B482D2100F021FE00BFA0
:10543000200300208CFC020044FB020000FB020061
:10544000C8FC020078FB0200B8FB020008FD020065
:105450005CFC0200DCFB020028FC0200F8FB0200FE
:1054600010B5304A92F82440002C51D0022845D87B
:1054700001290B4638D800EB400002EB800152F8BE
:1054800020000B7291F804C0416802690C68012188
:1054900001FA0CF1214218D01268114218BF83F0B2
:1054A000010323B18368DB68984720B910BD836886
:1054B0001B699847F9E71C491C481D4A3F2300F027
:1054C000E1FD1B483F2100F0D3FD1A491A4A174855
:1054D0004FF4CB6300F0D6FD184800F0D3FD16481A
:1054E0004FF4CB6100F0C4FD15491048104A3B232E
:1054F00000F0C8FD0E483B2100F0BAFD11490B48F1
:105500000B4A3A2300F0BEFD09483A2100F0B0FDF5
:105510000D490648064A392300F0B4FD04483921F4
:1055200000F0A6FD2003002074FD020000FB020035
:10553000DCFB020078FB020044FB0200B8FB020027
:1055400060FD020050FD02003CFD020048B11D4A12
:10555000137883F0010313700BB1FFF785BCFFF7DD
:105560009DBC70B5184D19492B78164A013303F0CC
:105570000303012631F813102B70044608461670F9
:10558000FFF7BCFC31460220FFF76AFF002141F221
:10559000343027F093FE00210220FFF761FF002145
:1055A00041F2343027F08AFE01210220FFF758FF34
:1055B0002B7801349C42E9DDBDE8704000210220D7
:1055C000FFF74EBFE8060020C758002068FE020023
:1055D00070B584B000238DF80B30044600283DD10F
:1055E0000DF10B0000F04EFA04214FF60E409DF92C
:1055F0000B60039404F0F2FC054610B304210C3058
:105600001FF06CFB03AA447084700470C6702946B6
:105610004FF60E4004F082FD10B903981FF058FABF
:10562000154A164B12789DF90B4033F8121000946E
:10563000134B144A0846FFF7A5FBFFF715FC04B00F
:1056400070BD1149114A1248FC2300F01BFD11489E
:1056500000F018FD0D48FC2100F00AFD0B4A0C4833
:105660000D49C62300F00EFD0C48214600F00AFD4E
:105670000648C62100F0FCFCC758002068FE020066
:10568000841B002018FE0200F0FD0200A4FD0200B1
:1056900000FB0200F4FD0200C0FD0200CCFD020090
:1056A0002DE9F04782B028F075FB4B014401241A24
:1056B00043EAD06363EB01039B00A200121843EAA4
:1056C000947341EB0307FF0047EA5277C2F31035AA
:1056D00045EA47452E4EDFF8BC90FF0B4FF000081F
:1056E00044E028F057FB4B014201121A43EAD06311
:1056F00063EB01034FEA820A9B001AEB000A43EABC
:10570000927341EB0301C90041EA5A71CAF3103A9E
:105710004AEA414ABAEB05024FEAD13464EB070387
:10572000914578EB03031CD23378D3B104210DEB00
:10573000010003F0D5FE019DFFF7B0FBEBB24FF483
:105740000042414640F2E730E3FB02014FF47A7237
:105750000023FBF70FFC27F0B1FDFFF785FB554653
:1057600027464FF42030002127F0A8FD3378002B86
:10577000B7D001210220FFF773FE00214FF4A4707F
:1057800027F09CFD00210220FFF76AFEA9E700BF79
:10579000E8060020BF27090010B582B06C462046FD
:1057A000042103F09DFE9DF8000040F2E7314FF424
:1057B0007A72002301EBC0300021FBF7DBFB27F0FE
:1057C0007DFD2046FFF7D4FB00F0FAF800F050F81A
:1057D0009DF8003033BB1E4A0DF1060313F8011982
:1057E00002F8011BA342F9D1FFF75CF8FFF794FD23
:1057F00000210846FFF734FE00210120FFF730FEAC
:1058000000210220FFF72CFE1248FFF705FD124889
:1058100005F074FA044668B9104826F005FB2046E6
:1058200002B010BD0A4BDDF80100BDF8052018607C
:105830009A80D9E70A490B4A0B487C2300F022FCE6
:105840000A4800F01FFC07487C2100F011FC00BF53
:10585000841B00204D550000D1550000E8090020B0
:1058600024FE0200A4FD020000FB020040FE020034
:1058700070B5002182B0164801F0BEFE0446154DF9
:10588000284624F025FB10B9204602B070BD6E6892
:105890000121304602F03CFA04460028F4D10121EF
:1058A000304602F04FFA04460028EDD100220023D2
:1058B000CDE90023AB681E6836B102466B46032172
:1058C0002846B0470446DFE76FF05704DCE700BF27
:1058D000B8F60200E8F602002DE9F84307460E4646
:1058E00090461D4D284624F0F3FA18B900242046AE
:1058F000BDE8F88304460121284601F07DFE0346F9
:1059000008B17833F2D1D5F808901348D9F80C30A3
:105910003B21984705460028E8D10D21D9F81030E1
:105920000D483A4698470E21D9F810300A483246B9
:1059300098471021D9F81030074842469847064842
:10594000294601F059FE0028D1D0783014BF002438
:1059500001242046BDE8F883B8F6020030B589B0CE
:1059600000258DF80650154C204624F0B1FA10B9E8
:10597000002009B030BD0DF10702062101238DF88A
:105980000710029269440722CDE9051303938DF8AD
:105990001C208DF81050A2685223956802A902229B
:1059A0002046A8470028E3D19DF80600A0F1B300E7
:1059B000B0FA80F0400909B030BD00BFA0F6020087
:1059C00030B5194C1948A0624FF4F42385B0236018
:1059D00024F07EFA28B3A06A216801AA20F0CEF94B
:1059E000F8B9029AA28120464FF4C043B3FBF2F308
:1059F000E38101F007FA054648B1A289E389A06A6C
:105A0000216803FB02F283689B68984710B128461F
:105A100005B030BD204601F0F5F90546284605B031
:105A200030BD4FF0FF35F2E78C1B002088F60200F6
:105A300010B5012382B004460DF107020C488DF821
:105A40000740194601F0FCFB012801D802B010BD47
:105A50000849094A04464A23084800F013FB08484D
:105A60000121224600F00EFB03484A2100F000FB12
:105A70008C1B002090FE020070FE020000FB020062
:105A8000B4FE0200012310B504461946044822461C
:105A900001F0A4FD01281CBF0423237010BD00BF2A
:105AA0008C1B0020C2B1531E0C4A00B501F1FF3C13
:105AB00001EB030E1CF8013F584003090001D35CC1
:105AC000C0B2434019091B01505CDBB2F44580EAC7
:105AD0000300EFD15DF804FB704700BFE4FE020055
